:020000040000FA
:10100000101C0020D5100000F1100000392E000047
:1010100000000000000000000000000000000000D0
:10102000000000000000000000000000F5100000BB
:101030000000000000000000F7100000554A00000A
:10104000E1460000E9460000F1460000F9460000D4
:10105000E12800009D4E0000C1500000C950000072
:10106000A32E0000AB2E000089490000914900002A
:10107000832E00008B2E0000854E00008D4E000058
:10108000954E00009B2E0000A54E0000AD4E0000C6
:10109000B54E0000D1460000CB520000BD47000015
:1010A00071270000D9460000BB520000C352000067
:1010B000B32E0000932E0000792A0000D9280000EA
:1010C0000348854601F0B8F8004800471D27000096
:1010D000101C002009480A4A002100A1814200D9C1
:1010E00002440848084A0260084880470848004708
:1010F000FEE7FEE7FEE7FEE7FEE7FEE70000002072
:101100000000000008ED00E000100000354E000077
:10111000C110000030B50B460146002020220124FA
:1011200009E00D46D5409D4205D31D469540491B1B
:101130002546954040191546521E002DF1DC30BD64
:1011400070B500242546002801DA01244042002918
:1011500001DA01254942FFF7DDFFAC4200D04042F1
:10116000002C00D0494270BD03460B439B0703D0BF
:1011700009E008C9121F08C0042AFAD203E00B785C
:101180000370401C491C521EF9D27047D2B201E0D4
:101190000270401C491EFBD270470022F6E710B5D2
:1011A00013460A4604461946FFF7F0FF204610BDD5
:1011B00030B505462A460B4610781C78521C5B1C3D
:1011C000002801D0A042F7D0002C03D0002802D084
:1011D0006D1CEFE7284630BD10B5044605E00B78DE
:1011E0000370401C002B00D0491C521EF7D2204631
:1011F00010BD421C0178401C0029FBD1801A7047A9
:1012000030B505460020034600E05B1C934205D242
:10121000EC5CC85C201A01D1002CF6D130BDF8B5C9
:101220000E460546002400E0641C285D00F08EFB9D
:101230000746305D00F08AFB381A02D1295D00298B
:10124000F2D1F8BD00B58DB009900B90009200204E
:10125000C0430A9000200C90044806900448079070
:101260006A4609A800F0E2FE0DB000BD4D20000066
:101270006D200000F8B502464A40D40F42004B00F2
:1012800052085B089A4202D20246084611464A00BA
:1012900023D0C30D4A00DDB2120EAD1A202D35DA6F
:1012A00049020126490AF6058A19002C00D052424B
:1012B00020214F1B1146B9402A411018C20D9A42F5
:1012C00021D0002C17D0012D08DCDA05801AD20FAE
:1012D0008019D207DBB200F0E3FEF8BDDA05801A10
:1012E000012340001B06C01880185A428018CA0FFC
:1012F0001043490007E04908C2071143DA05801A84
:1013000080194008801800F0C3FEF8BD610001227A
:10131000511A001BF7E70122D2075140AAE7012228
:10132000D2075040A6E7024670B54A40D30FDB070C
:1013300040002DD04A002AD0010E140E00021202E5
:101340000919400A520A8418E50104465443000A68
:10135000120A2E045043A4194219200CC543AA189E
:10136000120C0125AD03521C521912047F392404BA
:1013700000D0521C104301D44000491EC2B20C06DA
:10138000C0092018401C4008802A02D003E0002039
:1013900070BD40084000002900DA0020184370BDED
:1013A00070B502464A40D50F40004A00ED0740089C
:1013B0005208002814D0002A12D0C40DD30D4102C7
:1013C0000120C0055202490A520AE41A09181218EB
:1013D0007D34914201D3641C00E04900002C01DA05
:1013E000002070BD0023914201D3891A03434008B5
:1013F00049000028F7D100290AD0914202D10121E9
:10140000C90705E0914201D2012101E00121C94350
:10141000E005C018401900F03BFE70BD420005D049
:101420004200120E52428A4201DB00207047C90579
:1014300008187047F0B507460846584087B0C00FF7
:10144000049048000E46590040084908BC1A8841DB
:1014500005D2384631461E4617460B46024658000E
:10146000400810434CD0300D039040055900400D0A
:10147000490D0590401A0290402872DA18030121A4
:10148000000B09050843019004980092002805D03C
:101490000199524200208841009201900298402117
:1014A0000A1A0199009800F02EFA05460C466B4680
:1014B00007CB00F038FAC0197141039A0E0D0023D2
:1014C000D71756401A467A40164344D0049A002A49
:1014D0002DD0029A012A039A15DC1205C01A9141F7
:1014E00001263605001C7141D20F059ED2070093DC
:1014F000019202962A46234600F018FE07B0F0BD7E
:1015000038463146FAE71605224A0F46B218C01A85
:10151000B74101210905001C4F4100187F411146C8
:1015200018187941E20F10436D19644113E0E20786
:101530006D0815436408C2071443039A0126120577
:10154000C01A91413605001C7141CE074008304356
:101550004908C01851412A46234600F0DAFDCDE77C
:10156000FFE7049801224000C117121A00238B41A3
:1015700004983146C417381AA141EEE730B401246B
:10158000E407634030BC55E730B40124E407614010
:1015900030BC4FE70000E0FFF0B51FB488B00B99F6
:1015A0000998002448400999C00F49004908099149
:1015B000C0070B990090490049080B9109990898B8
:1015C000A64608431CD00B990A98084318D00998DE
:1015D00001244000420D4800410D099824050003F4
:1015E000000B204309900B980003000B20430B9045
:1015F00050181C494018002201901446104605E07E
:10160000002001460DB0F0BD032801DA034600E0DA
:1016100003239C46C11A0AAE0AE05F0008ADED5BE9
:101620004F00F75B7D430027AA187C41491C5B1ED5
:101630006145F2DD410004AB5A522104120C0A4309
:10164000240C401C0828DFDB0198029000997046AA
:1016500001910090059B049A0799069800F066FD99
:10166000D0E700000DFCFFFFF0B50C465C4085B0F4
:10167000E40FE40703944C000026640859009446E4
:10168000490802460296224321D062460A431ED0F0
:101690006200570D4A000E032303550D0124024634
:1016A0002C492405781B1B0B360B4018234326437B
:1016B000614600901C46501AB44103D30098401C68
:1016C000009002E0921800985B41002803DA0020A5
:1016D000014605B0F0BD00200121090507468646F8
:1016E00011E064461D46141BB54106D36546521BE6
:1016F000B341744607430C43A646CD07400849084A
:10170000284392185B4105460D43EAD11046184321
:1017100013D06046194650407140084306D06046D9
:10172000101AB34106D20122002306E00022012351
:10173000DB0702E00122D2435310009874460105F2
:10174000381C6141029C039D0019694100F0E1FCD5
:10175000BFE70000FD03000070B54B005B080343CA
:101760000BD04B005C0D002633466542B341D417C5
:10177000AD1AA34102DB0020014670BD12053018EE
:10178000514170BDC217C10F504010B54018CA0773
:101790009623002100F084FC10BD10B50022962392
:1017A000114600F07DFC10BD0EB5C217C10F5040B0
:1017B000CA0740180021054B0293019200910A4686
:1017C0000B4600F0B3FC03B000BD00003304000082
:1017D0000EB505490291002100910A460B46019180
:1017E00000F0A4FC03B000BD33040000C20F4100B0
:1017F00040020123400ADB05D207090EC0187F29E9
:1018000001DA00207047962903DC9623591AC84054
:1018100001E096398840002AF4D0404270474100E8
:1018200040020122400AD205090E80187F2901DA00
:1018300000207047962903DC9622511AC840704751
:10184000963988407047C20FD207400040080BD03D
:10185000C10D0723DB01C91840020905400A1143E5
:10186000C208400711437047002001467047CB0F64
:10187000DB07490010B5490802460A4307D00A0DA4
:1018800007240903E401090B121B002A01DC0020D4
:1018900010BDC900440F0C43C100E018D2058018E8
:1018A00000F0F6FB10BDF0B51FB40646002082B074
:1018B00005464024019100901BE0019922460F4605
:1018C000304600F008FD049A059B801A994110D318
:1018D00010461946224600F016F8361A8F41019735
:1018E000224601200021009F00F00DF838184D41DC
:1018F00000902046641E0028DFDC019B00982946EA
:10190000324607B0F0BD10B5202A04DB0146203A6C
:101910009140002010BD914020239C1A0346E340D3
:101920001943904010BD10B5202A06DBCB1708469E
:10193000203A1041C1170B4306E00B461341D0403B
:101940002024A21A91400843194610BD014641398E
:10195000192900D820307047FFB50025ED4385B028
:101960000020009001909F685E681C46A1696D1C74
:10197000069888470290216A88470028F6D1029885
:10198000401C0CD0032040028643002F19DD700656
:1019900014D502982B2809D02D280FD103E0002060
:1019A000C04309B0F0BD012080020643A1696D1C4F
:1019B000069888477F1E0290002F02DD029830288B
:1019C00003D00798002828D024E0012040020643D5
:1019D000A1696D1C7F1E069888470290002F03DDC9
:1019E000782805D0582803D00798002810D011E097
:1019F0000798002801D010280CD10120400286430E
:101A0000A1696D1C7F1E069888470290102000E097
:101A100008200790C017039016E00A20F9E701207C
:101A2000400206437F1E039B079A0199009800F02D
:101A300015FC029AD3178018594101910090A169B1
:101A40006D1C069888470290002F06DD07990298C2
:101A500000F059FC02900028E1DAE1690698884715
:101A6000B00502D40120C0439BE7F00710D17006F7
:101A700010D5700505D50098019B002241429A417E
:101A800001E0019A00992068031D2360006806C0E8
:101A9000284686E72068011D21600068019A0099A8
:101AA000F5E7FFB50027FF4383B000205C68019095
:101AB0009E681D46A9697F1C049888470090296A82
:101AC00088470028F6D10098401C0CD00320400223
:101AD0008443002E19DD600614D500982B2809D008
:101AE0002D280FD103E00020C04307B0F0BD012036
:101AF00080020443A9697F1C04988847761E0090E1
:101B0000002E02DD0098302803D00598002825D04B
:101B100035E0012040020443A969761E7F1C049829
:101B200088470090002E03DD782805D0582803D080
:101B30000598002810D022E00598002801D0102830
:101B40001DD1012040028443A969761E7F1C0498A0
:101B500088470090102002E0082000E00A2005904D
:101B60000DE0012149020C43059A0199761E51436B
:101B700008180190A9697F1C049888470090002EDE
:101B800005DD0599009800F0BEFB0028E9DAE96957
:101B900004988847A00502D40120C043A5E7E007C8
:101BA00022D1600611D56005019800D54042296810
:101BB0000A1D2A600968220501D5087014E0220771
:101BC00001D5088010E008600EE02868011D29603A
:101BD0000068210502D50199017005E021070199EE
:101BE00001D5018000E0016038467EE7FFB50020A6
:101BF00083B0009050680190916914460026976860
:101C00000498884705460C990698084305D009E0D2
:101C1000A169761C049888470546216A28468847AA
:101C20000028F5D1681C03D00198C00704D017E044
:101C30000020C04307B0F0BD2068011D216000688E
:101C400000900DE00198C00704D10098057000983D
:101C5000401C0090A169761C7F1E049888470546A9
:101C6000002F1CDD681C1AD0069800280FD0E8173A
:101C7000C00E401941118A000699400951184001CF
:101C80002A1A0968012090400142DBD107E00C9834
:101C90000028D7D1216A284688470028D2D0E16998
:101CA000049888470C98002807D1002E05DD01987C
:101CB000C00702D1009800210170A068B84204DD7D
:101CC0000C98002804D0002F02D00120C043B1E7B7
:101CD0003046AFE7FFB5087885B01546FF2805D038
:101CE000491C2D2804D00022002407E000240BE02A
:101CF0000122F9E70A235C430419491C0878FF28EC
:101D0000F8D1002A00D06442002001902A780146D0
:101D10002D2A01D02B2A04D16D1C2D2A0DD0002292
:101D2000019200262F78FF2F09D00A2200236D1C74
:101D300000F094FA38187141F4E70122F0E7089AAC
:101D4000A218039202460A430DD00024B24AB14DB4
:101D50002646009200F082FC04900398029100282D
:101D600007DA47421AE0002105980A4606C009B082
:101D7000F0BD074612E0F80707D022462B46304652
:101D80000099FFF709FC0646009122462B461046B3
:101D90001946FFF701FC04460D467F10002FEAD1DB
:101DA0000398009B002802990498324602DAFFF754
:101DB0005BFC01E0FFF7F0FB019A002A02D0012250
:101DC000D2075140059A03C2D1E7FFB591B0002078
:101DD00009900025ED432E209E685C681F46019007
:101DE000B9696D1C129888470090396A88470028A5
:101DF000F6D10098401C0AD00D20C0018443002E6B
:101E000012DD00982B2809D02D280DD103E00020E9
:101E1000C04315B0F0BD012080020443B9696D1CB8
:101E200012988847761E009003A9600501D52D20E1
:101E300000E02B206A461073491C0CA80F910290F9
:101E40000AE0B9696D1C1298884700900120400291
:101E500004431398761E0560002E02DD009830289A
:101E6000EFD001990098884246D18020044308E0D1
:101E70000998401E09900120400204431399681CF0
:101E80000860B9696D1C761E12988847009030284A
:101E9000EED031E00199884205D1200603D480209C
:101EA0000443761E1EE0009803F06CFB002826D049
:101EB00001204002044307A90F980331761E88428F
:101EC0000BD200980F99303808700F98401C0F9073
:101ED000200607D50998401E03E0200602D4099881
:101EE000401C0990A00502D51399681C0860B969C7
:101EF0006D1C129888470090002ECBDC59E0002E14
:101F000057DD0098652801D0452852D1A00550D54D
:101F1000032000028443B9696D1C761E129888471D
:101F20000090002E0CDD2B2804D02D2808D1FF2096
:101F300001300443B9696D1C12988847761E0090E1
:101F4000E00501D52D2100E02B21029801700298B7
:101F5000401C0290019025E00120400204430EA99C
:101F600002980131761E88420ED2009802993038CC
:101F70000006000E087003D10299019881420AD927
:101F80000298401C029006E0E00501D5234801E0DC
:101F9000224840420990B9696D1C12988847009008
:101FA00013980560002E04DD009803F0EBFA00287A
:101FB000D2D1F969129888470F99FF2008700299C9
:101FC00003AA087000200A900B900CA90AA8099B8C
:101FD000FFF780FEA00502D40120C04319E72420AA
:101FE000044209D0E00713D138680B9A0A99031DFF
:101FF0003B60006806C00BE00B990A98FFF737FCBE
:102000000146E00704D13868021D3A6000680160AB
:102010002846FEE6000024400000F03FF1D8FFFF14
:1020200002681378511801601846704710B5D160E6
:10203000044951610449116200211161114600F007
:1020400071F910BD21200000F92200004268002A29
:1020500008D001680B78491C002B03D0521E06C023
:10206000184670470121C160881E70474268002AE7
:102070000BD0C3680168002B07D183688B4204D062
:10208000491E521C06C0002070470020C043704704
:10209000002904DA401C490001D140084000704783
:1020A00070B40024050C05D11024000402D10029CD
:1020B00021D01124050E01D100020834050F01D1F1
:1020C0000001241D850F01D18000A41C002801DB24
:1020D0004000641C002908D020252E1B0D46F54029
:1020E000A14000D001212943084301061B1B000A1F
:1020F000DB1D02D5002070BC7047DB051818801866
:102100000029F8DA401C4900F5D170BC40084000B5
:10211000704710B5002B08DA0024401C614192186A
:102120005B411A4301D14008400010BDF0B51FB417
:1021300082B005460C0003D0084603F0DDF802E04B
:1021400003F0DAF820300246009021462846FFF7D7
:10215000DAFB049B059A04460F46184311430843D3
:1021600014D0184610431BD0009840210A1A184674
:10217000059900F0B0F805460E46009A05990498B6
:10218000FFF7C1FB084305D0012004E02046394693
:1021900007B0F0BD0020C11705430E432C43374361
:1021A00000990E986305401A7905E40A00220C4351
:1021B000FD0A0A3002D500200146E9E701051019A1
:1021C00069410C9C0D9D00196941FFF7A2FFDFE7F3
:1021D0004A0009030123090B1B0519430A4B10B5DB
:1021E000520D9A4202DA0020014610BD064B3433EC
:1021F0009A4203DC9A1A00F06EF810BD034BD21815
:10220000FFF781FB10BD0000FF030000CDFBFFFFC7
:1022100010B5002904DB0124E40740428C4121462B
:10222000002B04DB1C460123DB075242A3419942E9
:1022300000D1904210BD0000064C0125064E05E07D
:10224000E36807CC2B430C3C98471034B442F7D3D7
:10225000FEF73AFF24DB000044DB0000F0B51FB4BA
:1022600086B000200090019002900698069980B2F6
:1022700004900798090C02040014114307900027EA
:10228000089D099806913E463C4603900398A9B2E2
:102290000204000C039004982D0C154348430021C0
:1022A0002246FFF730FBC719714110340E46402C0F
:1022B000ECDB3846029AFFF726FB009A019B801858
:1022C0000090594102980191103002904028CCDBD7
:1022D00000980BB0F0BD10B5202A04DB0846203A68
:1022E000D040002110BD0B46D340D0402024A21A7C
:1022F00091400843194610BD10B50F21C0B24902E4
:1023000000F0CEF910BD3A2800D230382023024622
:102310009A43412A01D310463738884201D300201E
:10232000C0437047F3B58DB000200A9001200B9098
:10233000002608460C300C46099062690121099874
:102340009047051E2ED0252D2DD0216A88470028C4
:1023500018D06269012109989047216A88470028AE
:10236000F7D1411E62690998904700E0761CA16987
:102370000D988847216A88470028F7D1E1690D98B0
:102380008847DAE7A1690D9888470746A84201D136
:10239000761CD2E7E1690D9888477F1C02D10A9824
:1023A000002877D049E1002762693D4639460998FF
:1023B00090472A280CD1626901210998904701258C
:1023C00006E00A214F433F18303FEBD4102005436D
:1023D0006269012109989047014630390A2903D2E0
:1023E0009B498F42DEDCECE7E90600D4994F6C286C
:1023F0000AD04C2810D0682824D06A282ED07428FF
:102400000CD07A280AD00DE0626901210998904722
:102410006C2823D004211CE020200543626901219F
:1024200009989047A760656065284FD026DC58283A
:1024300039D01ADC452849D012DC252834D041286F
:10244000B0D143E06269012109989047682802D021
:1024500008210D43E6E70120C002DEE70220DCE7A9
:10246000462833D047282CD130E05B2870D0612833
:102470002CD063286CD0642823D161E06F284FD022
:1024800009DC662822D0672820D0692826D06E284B
:1024900017D12EE0CDE070284DD073286FD075286D
:1024A0004ED078280DD154E0A1690D988847054693
:1024B000252800D16CE7E1690D9888476D1C00D193
:1024C0006DE7BAE00A224CE00A2252E001202346DE
:1024D0006A46C0430D99FFF778FCA3E028464021E7
:1024E00008436060A807234601D5002239E0002296
:1024F0003FE0E80700D020E72068011D2160006868
:10250000290501D5067018E7290701D5068014E7CB
:10251000A90703D5F117066041600EE706600CE7D6
:102520002846402108436060A807234601D50822B9
:1025300017E008221DE0484928460840606016E080
:102540002846402108436060A8072346BCD5B9E768
:1025500015E02846402108436060A80707D52346B8
:1025600010220120C0430D99FFF7F6F95AE02346E7
:1025700010220120C0430D99FFF793FA52E0002189
:102580000C910B460091632802D05B2807D043E0F2
:10259000E80601D40120A060012000903CE06269BF
:1025A0000121099890475E2805D101200C90014631
:1025B0006269099890472169002906D10B4601AA52
:1025C0008F00491CD3510829FADB002835D0216936
:1025D00000290ED1C117C90E09184A11930001AA8A
:1025E0009A1849094901411A012013688840034398
:1025F000136062690121099890475D28E5D10C9824
:10260000002808D0002001AB81005A58401CD2435A
:102610005A500828F8DB01AB01202246C0430D992F
:10262000FFF7E4FA00280ADA401C06D10B980028CC
:1026300003D00020C0430FB0F0BD0A98FBE7E907C4
:1026400002D10A99491C0A91361800200B9074E6B1
:10265000CCCCCC0CFFFFFF7FF1F7FFFF0EB5054A96
:1026600002920022009213460192FFF75FFD03B031
:1026700000BD00003304000010B5002904DB012474
:10268000E40740428C412146002B04DB1C46012319
:10269000DB075242A3418B4200D1824210BD0000B1
:1026A0007F2801D9002207E0054B42089A5CC00749
:1026B00000D112091207120F012090400840704704
:1026C000E0D4000070B58C180578401C6B075B0FD8
:1026D00001D10378401C2A1106D10278401C03E086
:1026E00006780E70401C491C5B1EF9D12B0705D4DF
:1026F0000023521E0DD40B70491CFAE70378401CCE
:10270000CB1A921C03E01D780D70491C5B1C521EF5
:10271000F9D5A142D8D3002070BD000010B51048F3
:102720004088104C80056169800D890A8902014347
:1027300061610D480089E1684005400DC90AC90280
:102740000143E16002F07CFA08490860206A216ACE
:10275000E20311432162206208F0CEFA002010BD8E
:10276000200C100000200040000C10000000002091
:1027700010B5C046C04610BD0246044B1202D21826
:10278000012300208B40D94351617047000C004069
:10279000034A000280180069C840C007C00F704794
:1027A000000C00400246054B00201202D2181368AC
:1027B0001B0C1B040B43136070470000000C00400F
:1027C0000246054B00201202D21853681B0C1B0452
:1027D0000B43536070470000000C004002490002A8
:1027E0004018806870470000000C00400246034B10
:1027F00000201202D218936891607047000C0040CC
:102800000146044A002009028918CA6801231A43B4
:10281000CA607047000C00400146044A00200902CB
:102820008918CA6852085200CA607047000C0040FC
:102830000146054A002009028918CA6801239B0243
:102840001A43CA6070470000000C00400246214B4A
:1028500010B400201202D218D36803242403A34327
:102860000C78A407A40C2343D360D368012464022A
:10287000A3430C79E407A40D2343D360D368FF245A
:102880000134A3430C7AE407E40D2343D360D368F7
:102890007024A3430C7B6407640E2343D360D36886
:1028A0000824A3430C7CE407240F2343D360D3689C
:1028B0000424A3430C7DE407640F2343D360D3684F
:1028C000097E0224C907A343890F0B43D36010BCC0
:1028D00070470000000C004010B5C046C04610BD57
:1028E00010B500F089F810BD81000448081841694E
:1028F000072212049143416170470000001002401A
:1029000002480168C2041143016070470010024090
:1029100081000448081801690122D20711430161AE
:102920007047000000100240810004480818416907
:10293000012212051143416170470000001002405E
:1029400081000448081841690122D2041143416101
:102950007047000000100240002901D10420704798
:10296000194B30B400228000C01842618C680A689C
:102970000D692243CC682C4322434C6922438C6965
:102980002243CC6922438C6A2243426102690F4C84
:10299000224002610269CC880125641E22438C8892
:1029A0002D042404641B0D8EED052C43224302618B
:1029B0001A68CC6A22431A600A6A8261496AC16154
:1029C00030BC00207047000000100240000030E0E2
:1029D000024A8000801881617047000000100240A8
:1029E000044A800080180268120C1204491E0A432F
:1029F000026070471010024010B503490120887032
:102A00000020FFF771FF10BD3C00002030B4C40669
:102A1000E40E0123A340134C23608407E50EFF243A
:102A2000AC408907090EA94000280BDA0007000F07
:102A3000083885080C48AD002D18E869A043084304
:102A4000E86107E085080948AD002D182868A04313
:102A500008432860012A03D00548036030BC704752
:102A60000448FAE780E200E000ED00E000E400E066
:102A700080E100E000E100E010B5C046C046C0467D
:102A8000C04610BDF0B400248AB0FF25314B00943D
:102A9000019402940394A4460494059406941A465F
:102AA0000895079401280DD002280BD0042809D0DE
:102AB000062807D0082805D00C2803D00AB0F0BC9F
:102AC000042070471E6A01277F02C907BE43890D93
:102AD0000E431E62410100911721414301911B21C8
:102AE000414302911C49414303911C4941430491D4
:102AF000182141430591F021414306917D21C900F0
:102B0000414307910C2800D10195154D154EFF202A
:102B10000890A0001758694609588F4203D10BE06E
:102B2000089F002F0FD0089F7F1E0897DD62DE628E
:102B3000115017588F42F3D1641C082CE7D30AB008
:102B4000F0BC604670470027FF4308970AB0F0BC0E
:102B5000072070470000024050460000E0220200BB
:102B60005A5A0000A5A50000F8B4FF262249002704
:102B70000096884202D9F8BC042070471F490A6AAF
:102B8000D20606D5009A531E009329D30A6AD206AC
:102B9000F8D41B4DCD621B4CCC620022D2430A6399
:102BA00000960A6A9207920F022A0FD0009B5B1EC2
:102BB000009315D3CD62CC620A6A92089200921CEF
:102BC0000A620A6A9207920F022AEFD1002202706B
:102BD0000096086AC00609D50098431E009302D2E9
:102BE000F8BC09207047086AC006F5D4CD62CC62F3
:102BF0000A633846F8BC7047FFFF0000000002403F
:102C00005A5A0000A5A5000005480449C1620549BB
:102C1000C1620021C9430163704700005A5A000095
:102C200000000240A5A5000010B40949074A00238E
:102C3000CA62084ACA620A6A0C248007A243000FCB
:102C400002430A6210BC1846704700005A5A00003E
:102C500000000240A5A50000F8B400229446FF271A
:102C6000224A0097904202D9F8BC04207047204CB9
:102C7000226AD20606D5009A531E009328D3226AF0
:102C8000D206F8D40097226A1A4D9207920F1A4E74
:102C9000012A0FD0009B5B1E009319D3E562E66208
:102CA000226A92089200521C2262226A9207920FB4
:102CB000012AEFD1E562E6620022D243226301706D
:102CC0000097206AC00609D50098411E009102D2E3
:102CD000F8BC09207047206AC006F5D4E562E662B8
:102CE00000202063F8BC604670470000FFFF000032
:102CF000000002405A5A0000A5A500000068C84024
:102D0000C007C00F70470000034B10B50022C01869
:102D100001F042FE002010BD100E0240920010187B
:102D2000034A10B58018002201F036FE002010BDC5
:102D3000300D024092001018034A10B5801801228D
:102D400001F02AFE002010BD300D0240024A10B5ED
:102D50008018FFF7D3FF10BD040D0240024A10B5E2
:102D60008018FFF7CBFF10BD000E024070B504467F
:102D70001B4815460E460022201801F00DFEB1003A
:102D8000184A091900208918086017482A7831461E
:102D9000201801F001FE15482A793146201801F06B
:102DA000FBFD13482A7A3146201801F0F5FD114841
:102DB0002A7B3146201801F0EFFD0F482A7C31466E
:102DC000201801F0E9FD0D4988680122D2039043E3
:102DD0002A7DD207120C10438860002070BD0000CD
:102DE0000C0D0240000C0240000D02401C0D024080
:102DF000200D0240240D02402C0D0240000F024025
:102E0000024A10B58018FFF779FF10BD080D024087
:102E1000890008180249401802600020704700002D
:102E2000000C0240034B10B5C01801F0B5FD0020A6
:102E300010BD0000080D024081B000200090002865
:102E4000FDD001B0704770B4002A15DD0346164668
:102E50000C78491C25092407240F30343035392DCE
:102E600001DDED1D6DB2392C01DDE41D64B21D7074
:102E70005C709B1C761EEBD100215200815470BC0B
:102E8000704710B5C046C04610BD10B5C046C0461C
:102E900010BD10B5C046C04610BD10B5C046C046F6
:102EA00010BD10B5C046C04610BD10B5C046C046E6
:102EB00010BD10B5C046C04610BD000005490A69E6
:102EC00004231A430A610A69012383401A430A61F1
:102ED00030BF704700ED00E0014800687047000017
:102EE00004000020F0B5C3B0072102201C4E62246C
:102EF000009101F09FFB002802D0012043B0F0BDFB
:102F0000184D286A8047A9690F2088470027A969BA
:102F1000F05D88477F1CFFB2A742F8D3E86980477D
:102F2000286A80470098A96940008847002702ADB9
:102F30000C48816900208847E8557F1CFFB2A742F2
:102F4000F6D30848C06980470020295C325C914272
:102F5000D3D1401CC0B2A042F7D3002043B0F0BD93
:102F6000A10300200404002070B50224002800D131
:102F700003240220062501F05DFB002805D121462F
:102F8000284601F083FB002800D0012070BD70B5F9
:102F900005466621002000F003FC082404430020BD
:102FA000662601F047FB002803D12146304601F098
:102FB0006DFB01200F2401F03DFB002805D12946BF
:102FC000204601F063FB002800D0012070BD70B5E1
:102FD0006621002000F0E4FB0146F72001400C468A
:102FE0000020662501F026FB002812D12146284644
:102FF00001F04CFB00280CD101200F250A2401F020
:1030000019FB002805D12146284601F03FFB002886
:1030100000D0012070BDF8B500244B252D01002003
:103020006C271F2601F006FB002803D131463846E5
:1030300001F02CFB6C21002000F0B2FB00280ED028
:10304000641CE4B200210020401C80B26428FBD341
:10305000491C89B2A942F6D3032CE0D30120F8BD64
:1030600010B51D4C0A20A16A88470421022001F0F6
:103070000DFB00282ED1A16A0A20884703210220D7
:1030800001F004FB002825D1A16A0A20884702210B
:10309000084601F0FBFA00281CD1A16A0A208847E3
:1030A000606980470621042001F0F0FA002811D160
:1030B000A16A0A2088470121022001F0E7FA0028CE
:1030C00008D1A16A0A2088470021022001F0DEFA17
:1030D000002800D0012010BD0404002070B5474C2A
:1030E000206A8047A16908208847A1690020884795
:1030F0000546E0698047102005432946042001F079
:10310000C5FAA16A0A2088472946EF200140042019
:1031100001F0BCFA206A8047A16900208847A169B4
:10312000002088470546E06980476D066D0E2946F8
:10313000002001F0ABFAA16A0A20884780200543ED
:103140002946002001F0A2FAA16A0A2088476906F0
:10315000490E002001F09AFAA16A0A20884700214E
:10316000022001F093FA002841D1A16A0A20884781
:103170000121022001F08AFA002838D1616A012079
:1031800088471B21032001F081FA00282FD17621E6
:10319000042001F07BFA002829D1032026264025AF
:1031A00001F048FA002822D12946304601F06EFA93
:1031B00000281CD160688047616A0120884702218D
:1031C000084601F063FA002811D1A16A0A20884755
:1031D0000321022001F05AFA002808D1616A012077
:1031E00088470421022001F051FA002801D0012073
:1031F00070BDA16A0A208847002070BD0404002029
:1032000010B56C21002000F0CBFA10BD70B50D2177
:10321000032000F0C5FA0009062806D0072806D0CA
:10322000082806D0092807D105E00F2404E00C2463
:1032300002E0092400E0062400F032F81549884233
:103240001FDAFEF700FB144A144BFEF7A5F90646F9
:103250000D462046FEF7A8FA32462B46FEF78EF9B9
:10326000FEF705FB04467E21012000F099FAFEF7E7
:1032700089FA8721C905FEF74EF82146FEF74BF87B
:1032800070BD7E21012000F08BFAFF380138FEF777
:1032900079FA70BD0000C040CDCCCCCCCCCCEC3F9A
:1032A000F8B57421012000F07BFA04467521012055
:1032B00000F076FA06467621012000F071FA050446
:1032C0003002054325437121022000F069FA0646C9
:1032D0007221022000F064FA07467321022000F0F8
:1032E0005FFA04043802044334437C21012000F0D7
:1032F00057FA0609002C00D101242046FEF768FA8F
:103300000C4607460121B1402846FDF703FFFEF7B2
:103310005FFA3A462346FEF7A7F907F01BFC0022A6
:10332000024BFEF739F9FEF7A2FAF8BD000024407F
:1033300070B500200625012401F07CF900287DD11C
:103340002146284601F0A2F9002877D10024204622
:103350001F26182501F06EF900286FD12946304646
:1033600001F094F9002869D120462026152501F0A6
:1033700061F9002862D12946304601F087F900281A
:103380005CD120462326082501F054F9002855D1A8
:103390002946304601F07AF900284FD120462526EB
:1033A00001F048F9002849D12946304601F06EF96C
:1033B000002843D120462726042501F03BF90028A8
:1033C0003CD12946304601F061F9002836D120462B
:1033D0002826142501F02EF900282FD12946304641
:1033E00001F054F9002829D120462D26332501F07B
:1033F00021F9002822D12946304601F047F900285A
:103400001CD120462E25332601F014F9002815D1B1
:103410003146284601F03AF900280FD120462F26E0
:10342000332501F007F9002808D12946304601F07C
:103430002DF9002802D12046302600E081E001F07D
:10344000F9F800287DD12946304601F01FF90028FF
:1034500077D12046312601F0EDF8002871D12946B8
:10346000304601F013F900286BD120463226602542
:1034700001F0E0F8002864D12946304601F006F951
:1034800000285ED120463326072501F0D3F8002816
:1034900057D12946304601F0F9F8002851D120468D
:1034A0003E262C2501F0C6F800284AD12946304690
:1034B00001F0ECF8002844D120463C26FF2501F01D
:1034C000B9F800283DD12946304601F0DFF8002840
:1034D00037D120464026502501F0ACF8002830D1E5
:1034E0002946304601F0D2F800282AD120464C2641
:1034F000BF2501F09FF8002823D12946304601F06E
:10350000C5F800281DD120464D260E2501F092F861
:10351000002816D12946304601F0B8F8002810D10D
:1035200020465525022401F085F8002809D12146BE
:10353000284601F0ABF8002803D101200E254424D1
:1035400000E081E001F076F800287DD12146284690
:1035500001F09CF8002877D101200F240A2501F002
:1035600069F8002870D12946204601F08FF800281C
:103570006AD101201E25002401F05CF8002863D1E7
:103580002146284601F082F800285DD1012011254E
:10359000A12401F04FF8002856D12146284601F019
:1035A00075F8002850D101201525382401F042F883
:1035B000002849D12146284601F068F8002843D167
:1035C00001202F250C2401F035F800283CD121469C
:1035D000284601F05BF8002836D101203825022466
:1035E00001F028F800282FD12146284601F04EF896
:1035F000002829D101205725332401F01BF8002889
:1036000022D12146284601F041F800281CD1012092
:10361000582501F00FF8002816D12146284601F060
:1036200035F8002810D10120592501F003F80028B1
:103630000AD12146284601F029F8002804D10120AA
:103640005A2500F0F7FF00E080E000287ED12146F7
:10365000284601F01BF8002878D101205B2500F0F6
:10366000E9FF002872D12146284601F00FF8002812
:103670006CD101205C24332500F0DCFF002865D1EB
:103680002946204601F002F800285FD101205D257F
:10369000332400F0CFFF002879D12146284600F0DE
:1036A000F5FF002873D101205E2500F0C3FF00283C
:1036B0006DD12146284600F0E9FF002867D101209E
:1036C0005F2500F0B7FF002861D12146284600F0B1
:1036D000DDFF00285BD10120602500F0ABFF002852
:1036E00055D12146284600F0D1FF00284FD10120B6
:1036F0006125112400F09EFF002848D1214628466C
:1037000000F0C4FF002842D103200625262400F043
:1037100091FF00283BD12146284600F0B7FF002842
:1037200035D103201025802400F084FF00282ED1FD
:103730002146284600F0AAFF002828D103201125A1
:103740000D2400F077FF002821D100E01FE0214682
:10375000284600F09BFF002819D1032012251624CB
:1037600000F068FF002812D12146284600F08EFFA5
:1037700000280CD103201825FF2400F05BFF00284F
:1037800005D12146284600F081FF002800D0012005
:1037900070BD00000149012008707047A00300209F
:1037A00070B50D4600F046FF002801D0012070BD25
:1037B000074C206A80476806A169000E8847A16906
:1037C000002088470546E0698047284670BD000014
:1037D00004040020F8B507467D210120FFF7E0FF33
:1037E0000B4E0446306A02258047B1692846884757
:1037F0000025002C06DDB1690020884778556D1C36
:10380000A542F8DBF0698047FFF705FC2046F8BDCC
:103810000404002070B5124C206A80470025A1697D
:1038200028468847A169002088470646E069804706
:1038300080213143002000F029FF206A8047A169E0
:1038400028468847A169002088470546E0698047E7
:103850006906490E002000F019FF002070BD00002D
:1038600004040020F8B506460C4601200C27CDB212
:1038700000F0E0FE00280BD12946384600F006FF94
:10388000002805D10521022000F000FF002801D00A
:103890000120F8BDFFF7BFFB094F0325386A8047B9
:1038A000B969284688470025002C05DDB969705D97
:1038B00088476D1CA542F9DBF86980470020F8BDF8
:1038C0000404002070B5054635210020FFF768FF8D
:1038D000C408E4002C430020352500F0ABFE00288E
:1038E00005D12146284600F0D1FE002800D0012055
:1038F00070BD70B5044643210020FFF751FF000959
:103900000001E1000843C4B20020432500F092FE0C
:10391000002805D12146284600F0B8FE002800D036
:10392000012070BD70B504464B210020FFF738FF21
:1039300000090001E1000843C4B200204B2500F05B
:1039400079FE002805D12146284600F09FFE002878
:1039500000D0012070BD70B504460D210320FFF793
:103960001FFF0007000F21010843C4B203200D25EB
:1039700000F060FE002805D12146284600F086FEB2
:10398000002800D0012070BDF8B5044600250421B0
:10399000022000F07BFE00281AD1204600F0ECF84F
:1039A000002815D1134CA068804701200C2706463B
:1039B00000F040FE00280BD13146384600F066FE8C
:1039C000002805D10521022000F060FE002801D06A
:1039D0000120F8BDFFF71FFB206A03268047A1697D
:1039E00030468847A16928468847E069804700201B
:1039F000F8BD00000404002070B50421022000F08E
:103A000045FE002814D10B48006980471E21012083
:103A1000FFF7C6FE4408640001201E2500F00AFEE0
:103A2000002805D12146284600F030FE002800D0AD
:103A3000012070BD0404002070B50421022000F0B4
:103A400025FE00284CD106210320FFF7A9FEFB210B
:103A50000840042404430320062600F0EBFD012562
:103A6000002803D12146304600F010FE0D2103202E
:103A7000FFF796FE0407240F9020044303200D2631
:103A800000F0D8FD002803D12146304600F0FEFDAD
:103A90000E210320FFF784FE0407240F7020044347
:103AA00003200E2600F0C6FD002803D12146304633
:103AB00000F0ECFD1D2000F072FC1E210120FFF73C
:103AC0006FFE2946084304461E25084600F0B2FD55
:103AD000002805D12146284600F0D8FD002800D056
:103AE000012070BD70B504460D210320FFF758FE7C
:103AF000F121084061000143CCB203200D2500F004
:103B000099FD002805D12146284600F0BFFD002878
:103B100000D0012070BD70B504460E210320FFF7D0
:103B20003FFEF7210840E1000843C4B203200E2500
:103B300000F080FD002805D12146284600F0A6FDB2
:103B4000002800D0012070BD70B504461E2103205E
:103B5000FFF726FE400840002043C4B203201E2584
:103B600000F068FD002805D12146284600F08EFDB2
:103B7000002800D0012070BDF0B50546FE48FF4981
:103B800028187D2483B00027E400FD4E029088426F
:103B90000ED84A2100200F27009100F04BFD00288D
:103BA0007ED13946009800F071FD002878D162E09E
:103BB000F448F549281888420ED84A2100202F27BA
:103BC000009100F037FD00286AD13946009800F0D6
:103BD0005DFD002864D14EE0EC48ED49281888428C
:103BE0000ED84A2100204F27009100F023FD002825
:103BF00056D13946009800F049FD002850D13AE0EE
:103C0000E448E54A281890420ED84A2100206F2740
:103C1000009100F00FFD002842D13946009800F0D5
:103C200035FD00283CD126E0DC48DD4A28189042CA
:103C30000ED84A2100208F27009100F0FBFC0028BD
:103C40002ED13946009800F021FD002828D112E03D
:103C5000D448D54A2818904226D84A210020AF27B8
:103C6000009100F0E7FC00281AD13946009800F0D6
:103C70000DFD002814D17D210127C9002846FDF73C
:103C800049FA192148433146FDF744FA04468800B1
:103C90007D21143CC900FDF73DFA0646002000E0F6
:103CA0008EE000F06FFAB6E0C0482A18C0488242A1
:103CB00022D84A210020CF27009100F0BBFC002829
:103CC0007ED13946009800F0E1FC002878D17D21B2
:103CD0000127C9002846FDF71DFA1921484331463E
:103CE000FDF718FA044688007D21143CC900FDF751
:103CF00011FA064600208CE0AE4AAF4BAA189A4251
:103D000022D84A210020EF27009100F093FC0028E0
:103D100056D13946009800F0B9FC002850D17D21D9
:103D20000127C9002846FDF7F5F919214843314616
:103D3000FDF7F0F9044688007D21143CC900FDF729
:103D4000E9F90646002064E09C4A9D4EAA188A4282
:103D50000FD84A2101910F210020009100F06AFC48
:103D600000282DD10099019800F090FC002827D15F
:103D7000B8E09449944A691891420FD84A210191B8
:103D80002F210020009100F055FC002818D1009947
:103D9000019800F07BFC002812D1A3E08B49691840
:103DA000814211D84A2101914F210020009100F059
:103DB00041FC002804D10099019800F067FC00E064
:103DC0007BE0002879D18DE081488249281888421B
:103DD00034D84A2101916F210020009100F02AFC83
:103DE00000286AD10099019800F050FC002864D1A5
:103DF00021462846FDF78EF97D2148433146FDF7DF
:103E000089F90446C800143C7349FDF783F9064656
:103E1000012000F0B7F971490298884204D8FF2EBA
:103E200002DA641EFF369136152164060320640E03
:103E3000009100F0FFFB00283FD165E06848694928
:103E4000281888420FD84A2101918F210020009123
:103E500000F0F0FB002830D10099019800F016FC2A
:103E600000282AD13EE060486049281888420FD8CF
:103E70004A210191AF210020009100F0DBFB0028D6
:103E80001BD10099019800F001FC002815D129E010
:103E9000574858492818884210D84A210191CF2103
:103EA0000020009100F0C6FB002806D1009901987F
:103EB00000F0ECFB002800D114E05CE04E484F49D4
:103EC0002818884257D84A210191EF2100200091FB
:103ED00000F0B0FB00284ED10099019800F0D6FB0D
:103EE000002848D121462846FDF714F97D21484392
:103EF0003146FDF70FF90446C800143C3649FDF77A
:103F000009F90646012084E72146009800F0BEFB2F
:103F1000002830D116210320F4B2009100F08AFB72
:103F2000002828D12146009800F0B0FB002822D1BB
:103F30003105032017240E0F00F07CFB00281AD156
:103F40003146204600F0A2FB002814D1182103209E
:103F5000FFF726FCF9210840BC0079000C4304431C
:103F6000082004430320182600F064FB002802D137
:103F70002146304644E07DE000D68AEA80969800EB
:103F8000A0860100803FF2E9C0E1E400C05D0DE9D8
:103F9000002D3101BF30DCE73F787D017FB85EE660
:103FA0007FC3C901FFF494E4BF0E16023FE67EE230
:103FB000FF5962023F8C1CE03FD2DF0300AC15D5F5
:103FC00040420F00007FE4D380C3C9017FBB1AD2F7
:103FD0007F61B8CF7FF0FA0210270000001C4E0E60
:103FE000FF70BDCCFF869303FFE929C97F1D2C0418
:103FF0007FCCFDC4FFB3C4047F1839C07FA4BF07C2
:1040000000F044FB002835D1ECB20320092600F073
:1040100011FB00282ED12146304600F037FB002846
:1040200028D12804040E03200A2600F003FB0028F0
:1040300020D12146304600F029FB00281AD1280261
:10404000040E03200B2600F0F5FA002812D12146B9
:10405000304600F01BFB00280CD12C0E03200C2551
:1040600000F0E8FA002805D12146284600F00EFBB2
:10407000002800D0012003B0F0BD70B50124054632
:10408000082813D265210020FFF78AFBAC400443C7
:10409000E4B20020652500F0CDFA00281AD12146AF
:1040A000284600F0F3FA002814D170BD66210020E4
:1040B000FFF776FB083DAC400443E4B200206625E0
:1040C00000F0B8FA002805D12146284600F0DEFAB3
:1040D0000028EAD0012070BD70B50D4604460828BE
:1040E0001AD267210020FFF75BFB0121A140002DC0
:1040F00008D00143CCB20020672500F09BFA0028CD
:1041000025D102E004468C43F5E72146284600F01D
:10411000BDFA00281BD170BD68210020FFF740FBCD
:104120000121083CA140002D08D00143CCB2002061
:10413000682500F07FFA002809D102E08843044690
:10414000F5E72146284600F0A1FA0028E3D0012037
:1041500070BD70B5044612210320FFF721FBF72143
:104160000840E1000843C4B20320122500F062FABF
:10417000002805D12146284600F088FA002800D002
:10418000012070BD70B5054645210020FFF708FBF2
:104190008408A4000120002D07D0044300204525F9
:1041A00000F048FA002809D102E002200443F5E7B4
:1041B0002146284600F06AFA002800D0012070BD90
:1041C00010B50146022000F061FA002800D001205D
:1041D00010BD70B50546C4B20320132600F02AFABC
:1041E000002812D12146304600F050FA00280CD1A8
:1041F0002C0A0320142500F01DFA002805D12146C1
:10420000284600F043FA002800D0012070BD70B5A8
:1042100000250446002820D00D210320FFF7C0FA16
:1042200005090E210320FFF7BBFA0109284605F016
:10423000FDFC7D22D200544301462046FCF76AFF74
:10424000401C84B2082C00D20824E5B203201326B7
:1042500000F0F0F900282DD119E0082403201326DE
:1042600000F0E8F9002810D12146304600F00EFA9F
:1042700000280AD12C460320142500F0DBF9002881
:1042800003D12146284600F001FA002070BD2946DE
:10429000304600F0FBF900280CD1240A0320142535
:1042A00000F0C8F9002805D12146284600F0EEF9B3
:1042B0000028EBD0012070BD70B505460621032013
:1042C000FFF76EFA8408A4002C430320062500F0B3
:1042D000B1F9002805D12146284600F0D7F9002879
:1042E00000D0012070BD70B50446C01F062814D24E
:1042F0000E210320FFF754FA0007000F21010843A5
:10430000C4B203200E2500F095F9002805D12146FE
:10431000284600F0BBF9002800D0012070BD000045
:1043200070B5114988421CD8C4B20004050E0320A0
:10433000072600F07FF9002811D12146304600F011
:10434000A5F900280BD10320082400F073F90028F8
:1043500005D12946204600F099F9002800D0012017
:1043600070BD0148E0E70000FFFF000070B50446A3
:1043700006210320FFF714FAFB210840A1000143A6
:10438000CCB20320062500F055F9002805D12146BE
:10439000284600F07BF9002800D0012070BD70B5E0
:1043A0000025044600280ED0012C26D0022C3FD038
:1043B000E01E082870D2C4B20120632500F03AF94B
:1043C000002868D150E000240120632500F032F974
:1043D000002860D12146284600F058F900285AD11B
:1043E000FFF7A0FA002856D1FFF783FA002852D130
:1043F000FFF768FA00284ED1EDE000240120632584
:1044000000F018F9002846D12146284600F03EF970
:10441000002840D1FFF786FA00283CD1FFF769FA5F
:10442000002838D10320FFF74DFA002833D1D2E01D
:1044300000240120632500F0FDF800282BD121463F
:10444000284600F023F9002825D1FFF76BFA002851
:1044500021D10120FFF74DFA00281CD10320FFF7DE
:1044600031FA002817D1B6E02146284600F00EF9AF
:10447000002810D10120FFF755FA00280BD10120A8
:10448000FFF737FA002806D10320FFF71BFA0028B0
:1044900001D1A0E000E085E020460B380E281ED2B6
:1044A00020019938C4B20120632500F0C3F8002828
:1044B00078D12146284600F0E9F8002872D1012081
:1044C000FFF730FA00286DD10120FFF712FA00281B
:1044D0007FD10320FFF7F6F900287AD17BE0192C71
:1044E0000DD01A2C41D020461B38042871D2F72554
:1044F0000120632600F09EF800286AD153E00120D5
:104500006326E72400F096F8002862D12146304661
:1045100000F0BCF800285CD12C46284635261F2523
:1045200000F088F8002854D12946304600F0AEF853
:1045300000284ED120464326F12500F07BF80028C4
:1045400047D12946304600F0A1F8002841D1204645
:104550004B254F2400F06EF800283AD1214628461A
:1045600000F094F8002834D135E0F72401206325C9
:1045700000F060F800282CD12146284600F086F88B
:10458000002826D10120FFF7CDF9002821D10120F4
:10459000FFF7AFF900281CD10320FFF793F900289B
:1045A00017D118E015E02946304600F06FF80028D2
:1045B0000FD10120FFF7B6F900280AD10120FFF73B
:1045C00098F9002805D1173CE0B2FFF77BF90028E5
:1045D00001D0012070BD002070BD70B504464A2195
:1045E0000020FFF7DDF8052C02D0062C10D01EE0CD
:1045F000044610210C4300204A2500F01BF8002837
:1046000015D12146284600F041F800280FD170BD91
:104610000446EF210C4000204A2500F00BF800284A
:1046200005D12146284600F031F80028EFD00120BE
:1046300070BD0000F8B5144C0546206A804700267E
:10464000A16930468847A169002088470746E0698C
:104650008047B80880002843C1B2002000F016F857
:10466000206A8047A16930468847A16900208847B1
:104670000646E0698047B007800FA84201D10020BC
:10468000F8BD0120F8BD000004040020F8B50F4C6F
:104690004700206A0E467D1C8047A169E8B2884722
:1046A000A16930468847E0698047206A8047A16950
:1046B000F8B28847A169002088470546E06980472D
:1046C000B54201D10020F8BD0120F8BD040400204E
:1046D00010B5C046C04610BD10B5C046C04610BD9E
:1046E00010B500F00DF810BD10B500F021F810BDA8
:1046F00010B5C046C04610BD10B500F053F810BD4F
:1047000010B502214020FEF729FB002805D007F054
:10471000E5FF02214020FEF7F7FA01214020FEF7D5
:104720001DFB002803D001214020FEF7EDFA10BD4B
:1047300010B503214020FEF711FB002805D007F03B
:10474000D3F903214020FEF7DFFA04214020FEF7D1
:1047500005FB002803D004214020FEF7D5FA0021F4
:104760004020FEF7FBFA002805D007F0B7FF002134
:104770004020FEF7C9FA01214020FEF7EFFA002899
:104780000BD006480222017A11430172044808F056
:1047900013F901214020FEF7B7FA10BD9817002049
:1047A000F017002010B50421C020FEF7D7FA00282A
:1047B00003D00421C020FEF7A7FA10BD10B500F009
:1047C00049F810BD01490020C86170470020004031
:1047D000024800218162491E81627047002000402A
:1047E00070B5094C054600220321204600F0D4F89C
:1047F00000220421204600F0CFF82A460621204658
:1048000000F0CAF870BD00000414004010B500228A
:104810000321024800F0C0F810BD0000041400405D
:1048200010B502460721024800F0B6F810BD00009E
:104830000014004002480021016041607047000000
:104840000014004010B503210148FEF757FA10BDCF
:104850000414004010B5FFF7F5FF012801D1FFF760
:10486000D5FF10BD70B53D4C0546002207212046FE
:1048700000F092F82068082188432978C907090FB9
:10488000084320602068211488432979C907490C0E
:10489000084320606868002802D0012809D013E08E
:1048A0002068297BC008C0004907490F08432060E1
:1048B0000AE0297A402907D220683F22120289069D
:1048C0009043890C084320606068072109028843EF
:1048D000297C4907490D08436060288BFF2101317D
:1048E0006A6988420ED8216B0123DB03D207994302
:1048F000120C11432163216BC005490A4902C00D06
:104900000143216320681A3500060ED56068012135
:104910000843606012486168890704D4401E00049F
:10492000000CF8D170BD0028FCD02878A060687811
:10493000E060A87820612879A0616879E061A879B1
:104940002062E8786061606840084000606020682C
:104950000006E7D560688007FCD470BD00140040F5
:10496000E7030000074841680122114341604168A4
:104970008907FCD5416849084900416041688907B9
:10498000FCD470470014004010B5C046C04610BDAE
:1049900010B5C046C04610BD01238B400168012AF6
:1049A00002D09943016070471943FBE70021416140
:1049B000084670478068084000D00120704710B456
:1049C000002202604C680B6823438C68C9680C4362
:1049D000234340210B430360826010BC10467047A4
:1049E000C068C0B27047C160002070474160704726
:1049F00070B40025002A2ADD6B00CC565E18012316
:104A0000F3562646613E192E01D8203C64B2303C54
:104A1000E4B2092C01D9E41FE4B21E46613E192E0E
:104A200001D8203B5BB2303BDBB2092B01D9DB1F45
:104A3000DBB20F2C01D80F2B03D970BC0020C04370
:104A400070472401E31843556D1C9542D4DB70BCBC
:104A50000020704710B500F001F810BD0248016851
:104A6000491C01607047000004000020F8B50546AD
:104A700001680026032030232F4C05292ED20A007E
:104A80007A441279921897442A020C132200216961
:104A900089088900014321612069984318432061F6
:104AA0001DE060690321890288430843606116E0C4
:104AB000A2690C218A430A43A261A169890889007D
:104AC0000143A161A06998431843A06107E0E06B2E
:104AD0000721C90388430843E06300E0042601215D
:104AE000286800F02FF828781449A160144FA760B7
:104AF0002168E02240079143000E0143216000F04D
:104B000091F929790D48A060A76020680722120258
:104B100049079043490D08432060297A0748A0605F
:104B2000A76020680322D20289079043C90C08437A
:104B300020603046F8BD0000002000405A5A0000B6
:104B4000A5A5000070B4394A0546374B0020936094
:104B5000374B9360002900D00121136A01242407F8
:104B6000052D5DD22E007E443679B619B744020D6C
:104B7000212D42001468640864000C43146000296D
:104B80004FD0D4682405FAD54BE0156A2543156249
:104B9000284CE56803263543E56014680225AC43DC
:104BA0004D002C43146000293BD014696406FAD5EB
:104BB00037E014680425AC438D002C4314600029B1
:104BC0002FD05469E404FAD52BE0156A2543156209
:104BD000194CE5680326B6033543E56014680825DB
:104BE000AC43CD002C43146000291AD094696406AC
:104BF000FAD516E0146A01252D042C4314620F4CDB
:104C0000256801263543256014681025AC430D0145
:104C10002C431460002904D0D46B6403FAD500E05F
:104C20000420136270BC70475A5A000000200040F4
:104C3000A5A50000C00D0240800D024000240040E8
:104C4000F0B5494C0020211D2EC982B0AC466569E3
:104C50002468464F0094AE463E88054604463443D9
:104C600001947E883404BE880443240C2404344315
:104C7000FE88360435433E4E36882D0C2D043543D0
:104C80003C4E36683606760F052E45D237007F44F7
:104C90003F79FF19BF44022527333600354FF868A6
:104CA00046050198760D864201D1704634E0F868D9
:104CB000260C4005400DB04201D160462CE0F8685A
:104CC000A4B24005400DA04201D1184624E0F86886
:104CD0002B0C4005400D984201D110461CE00846BF
:104CE0001AE0254818E02348A9B240698005800DE4
:104CF0008142009801D1000C0EE080B20CE001204E
:104D0000C00309E01B48C66BF643B6070BD01A492F
:104D1000C06BC005000F48431649096802B0490539
:104D2000490FC840F0BD019EC7687F057F0DBE4298
:104D300001D17146ECE7C768260C7F057F0DBE42A6
:104D400001D16146E4E7C668A4B27605760DB442A7
:104D500001D11946DCE7C4682B0C6405640DA3423D
:104D6000D6D11146D4E70000DCCB0000000C1000C7
:104D7000200C1000002000400048E80100B5FFF7BB
:104D80005FFF03490968C904890FC84000BD0000DE
:104D9000002000400849074A8A60084A8A600A6879
:104DA00007231B0240079A43400D02430A6000207C
:104DB000704700005A5A000000200040A5A50000DE
:104DC0000849074A8A60084A8A600A680323DB02A6
:104DD00080079A43C00C02430A600020704700001D
:104DE0005A5A000000200040A5A500000A4610B550
:104DF00001460248FFF7D0FD002010BD20200040F2
:104E0000064940004018008841050548490DC26820
:104E1000D20AD2020A43C26000207047000C100080
:104E20000020004010B5FFF70BFF0149086010BDDE
:104E30000000002010B50F4840880F4C80056169C4
:104E4000800D890A8902014361610C480089E1688B
:104E50004005400DC90AC9020143E160FFF7F0FEB9
:104E600007490860206A216AE20311432162206237
:104E700010BD0000200C100000200040000C1000AD
:104E80000000002010B500F019F810BD10B500F0BA
:104E900021F810BD10B5C046C04610BD10B500F0D9
:104EA00043F810BD10B5C046C04610BD10B5C04691
:104EB000C04610BD10B5C046C04610BD10B500219B
:104EC0000846FDF765FC012803D100210846FDF7DF
:104ED00053FC10BD10B500210120FDF759FC01283D
:104EE0000CD10021FDF748FC0120FDF795FC044999
:104EF0000020087007F090F906F0C0FC10BD00001B
:104F00003C000020012200218240D043014A506130
:104F1000084670470058004002490969C140C80767
:104F2000C00F70470058004070B50020FFF7F4FF35
:104F3000012824D1134CA0880101081A81B2012054
:104F400000F024F8E0880101081A81B2002000F086
:104F50001DF80020FFF7D6FF6078237800229842E2
:104F60000ED8A67808494025B0428E6801D22E435B
:104F700000E0AE438E60984202D0401C607070BD6D
:104F8000627070BD1C010020400D0240002300280B
:104F90000DD0194A012811D0022815D0032819D0A4
:104FA00004281DD0052821D0012318467047134836
:104FB000C26B120C12040A43C263F6E71068000CBD
:104FC000000408431060F0E75068000C0004084338
:104FD0005060EAE79068000C000408439060E4E742
:104FE000D068000C00040843D060DEE71069000CB4
:104FF000000408431061D8E74058004000580040C2
:1050000016480168012211430160416891434160E3
:10501000416802221143416041681C2399431831C1
:10502000416001681143016001688907FCD441684F
:10503000914341604168994310314160416899430F
:105040001031416001681143016001688907FCD497
:105050000168490849000160C0687047004C004081
:105060001648026801210A43026042680A4342600E
:10507000416802221143416041681C239943183161
:10508000416001681143016001688907FCD44168EF
:105090004908490041604168914341604168994332
:1050A0001031416001681143016001688907FCD437
:1050B000016849084900016000207047004C004029
:1050C00010B500F005F810BD10B5C046C04610BDC3
:1050D00070B50124A4070021204600F0A5F800289F
:1050E00040D02546204600F0E5F83F4C0021E07016
:1050F000284600F07DF86078002500280BD0257048
:105100003A4804F06FFC0120FDF786FB00210120E6
:10511000FDF732FB70BD01202070344804F072FCB2
:10512000002808D0257007F077F806F0A7FB206963
:10513000012807D00AE0E1782C4804F085FC2069BA
:10514000002803D10121084602F050FA0120FDF7A2
:1051500063FBA08981B20120FDF732FB0120FDF73E
:105160004FFB70BD0121204600F05EF8002804D0FE
:105170000121204600F03CF870BD0221204600F0DD
:1051800053F8002804D00221204600F031F870BD09
:105190000321204600F048F8002804D003212046CF
:1051A00000F026F870BD0421204600F03DF80028EC
:1051B00004D00421204600F01BF870BD05212046D4
:1051C00000F032F8002804D00521204600F010F845
:1051D00070BD0621204600F027F80028F8D00621EF
:1051E000204600F005F870BD3C000020580000206B
:1051F00010B500221430FFF7CFFB002010BD10B512
:105200000022001DFFF7C8FB002010BD10B50122D1
:10521000001DFFF7C1FB002010BD10B50122001DCD
:10522000FFF7BAFB002010BD10B51030FDF766FD8A
:1052300010BD000070B50C001D490546086882B01D
:105240004968019100900FD0002068606168A068F3
:1052500022680843E16811430843686020684028D9
:1052600005D0C02803D01FE0042002B070BDE06864
:105270006946400A8000095C60698840FCF78DFA45
:1052800006462069FCF789FA3146FCF789F83F2188
:105290000906FBF7EFFFFCF7C2FA80B2A861042110
:1052A0000122281DFFF778FB002002B070BD00002E
:1052B000F4CB00000068C0B2704710B5C046C046CD
:1052C00010BD10B5C046C04610BD10B5C046C046A2
:1052D00010BD00007CB51C461546491E019100908A
:1052E000044B6A462146284600F054F9009A0021F2
:1052F00011707CBDCD5C00002021020C01D010217A
:105300001046020A01D010460839020901D01046A1
:10531000091F820801D01046891E420801D0881E4C
:105320007047081A7047F8B504464F1EC800083881
:10533000211815461E46086849683A4606239A43CE
:1053400010D02A463346FCF727F93A46D200083AED
:10535000A3181A687F1E5B68FCF76CF806223B46B0
:105360009343EED1022F23D0042F11D0062F2FD13B
:105370002A463346FCF710F9E36AA26AFCF75AF8AA
:105380002A463346FCF708F9636A226AFCF752F8AA
:105390002A463346FCF700F9E369A269FCF74AF8AC
:1053A0002A463346FCF7F8F863692269FCF742F8AD
:1053B0002A463346FCF7F0F8E368A268FCF73AF8AF
:1053C0002A463346FCF7E8F863682268FCF732F8AF
:1053D000F8BD0000002210B5134610460149FCF745
:1053E00043F910BD0000F03F10B50122FCF7B4F9FD
:1053F00010BD002210B5134610461146FCF734F9D3
:1054000010BD02E008C8121F08C1002AFAD1704777
:105410007047002001E001C1121F002AFBD1704734
:10542000014908607047000038040020F0B51FB43F
:1054300084B007980699020D014314D04A484B499D
:105440001018484305140F9801280E981CD0281AEC
:10545000401C0024464E47490094019102900028C8
:1054600014DA474227E00F98012443A3012808D00B
:10547000002104980F9A84600360C260416009B003
:10548000F0BD0E98C143F4E74042E2E7074612E060
:10549000F80707D02246334601990098FCF77CF8BC
:1054A000019100902246334610461946FCF774F8E5
:1054B00004460E467F10002FEAD10298019B002877
:1054C000009A0799069802DAFCF766F801E0FCF703
:1054D000CBF804460E460022284BFCF799FE03D871
:1054E0000020C043014607E00022254B20463146FC
:1054F000FBF7A0FFFCF76CFE102409E0002C0ADB90
:105500000A220023FCF7CFF9059B30321A55641E9E
:1055100002460A43F2D11122641C059B121B1C197E
:105520000F9B012B03D0012308430ED10AE008434F
:1055300004D011200E9000200F9084E70E98151AC9
:105540006D1E0BE00E98824202DD00236D1C03E00D
:10555000824201DA00236D1E002BEED004980F99D1
:105560008260C16030C08AE701FCFFFF104D00007F
:10557000000024400000F03F300000000000F04335
:105580000000E03F30380A2801D201207047002097
:1055900070470000FFB597B00646002518E22528A1
:1055A00077D100242746FD49049400E00443761C8B
:1055B00032780120203A90400842F7D130782A28EA
:1055C0000ED00222307801463039092916D80499C4
:1055D0000A235943303940181443761C0490F1E7EC
:1055E000189802C804911890002904DA0120400399
:1055F00004434842049002200443761C30782E284D
:1056000014D1042004437078761C2A2809D11898F4
:10561000761C80C8189009E00A214F43303FC71913
:10562000761C3078014630390929F5D930786C2854
:1056300010D006DC4C281AD068280ED06A2817D162
:1056400004E0742813D07A2812D110E0012040051C
:1056500004430CE00121090501E0032109050C4385
:105660007178814203D1012000052418761C761C34
:105670003078119066280BD013DC58287DD009DCD7
:1056800000287BD04528F6D04628F4D047281AD1E8
:10569000A5E118E0632835D0642870D0652812D1C0
:1056A0009DE170286CD008DC6728F1D069287BD098
:1056B0006E280DD06F2806D1BAE073282ED0752839
:1056C00071D0782859D01A9A199990476D1C7EE1AB
:1056D0006002400F022809D003280DD00428189832
:1056E00001680DD00D60001D189070E11898EA1740
:1056F00001680D604A60F6E7189801680D80F2E7CE
:105700000D70F0E718986A4601781172001D189024
:105710000020507202A80090012005E0189802C8ED
:10572000189000200091C04361070DD5002101E0D1
:105730000199491C0191B94212DA8142F8DB009AC1
:10574000515C0029F4D10BE0002101E00199491CD2
:1057500001918142FADB019A0099895C0029F5D117
:10576000019904981A9B471A21463846199A00F065
:1057700097FA0199401945180BE04FE02CE113E02E
:105780004EE0009800990078491C00911A9A1999E6
:1057900090470198401E0190401CF2D121463846A6
:1057A0001A9B199A10E137E00A200021009001911C
:1057B0006002410F022907D0189A01CA1892C21735
:1057C0009446032908D00AE01898C01DC108C900F2
:1057D00005C91891944607E000B2C21794460429FF
:1057E00002D140B2C1178C4600226146944506DAC8
:1057F0000A460021404291418C462D2102E02105BC
:1058000004D52B216A461173012103E0E10701D081
:105810002021F7E7029155E00A200AE0102008E075
:10582000102000900021042004430191082703E088
:1058300008200021019100906002410F022907D049
:10584000189A01CA189200229446032908D008E049
:105850001898C01DC108C90005C91891944603E0F5
:1058600080B2042900D1C0B200210291210729D5BC
:105870001199702906D0009A1021019B4A401A43C1
:1058800005D00EE040216A461173012108E061460F
:10589000014306D030216A461173119951730221D8
:1058A0000291009A0821019B4A401A430AD161469D
:1058B000014301D1610705D530216A4611730121E9
:1058C0007F1E02911199582904D035A10E910DA97E
:1058D0000D910DE037A1F9E76146019B009AFBF7B6
:1058E000E2FF0E9B8C469B5C0D9A521E0D9213702C
:1058F00061460143F0D10D9805A9081A20300190A6
:10590000600703D501200004844300E001270198CB
:10591000874201DD381A00E000200199009041180B
:10592000029809180498401A0490E00306D421460E
:105930001A9B199A049800F0B3F94519002706E05C
:1059400003A81A9AC05D199990476D1C7F1C029894
:105950008742F5DBE0030CD521461A9B199A04987F
:1059600000F09EF9451904E01A9A302019999047E1
:105970006D1C0099481E00900029F5DC08E00D9888
:105980000D990078491C0D911A9A199990476D1C30
:105990000199481E01900029F1DC63E1092801000A
:1059A0003031323334353637383961626364656695
:1059B0000000000030313233343536373839414257
:1059C000434445460000000000F05AF94519761C92
:1059D0003078002800D0E2E528461BB0F0BD600713
:1059E00000D406271898C01DC108C90048680A6875
:1059F0000831C30FDB071891190001D09CA108E002
:105A0000210501D59BA104E0E10701D09AA100E0A6
:105A10009AA1430011985B08109165280CD006DC10
:105A2000452809D046281DD0472841D141E06628A5
:105A300018D067283CD13CE00021112F01DB112058
:105A400000E0781C0191009008A911A8FFF7EEFC76
:105A5000139905910021119A15927F1C12980197B4
:105A6000009150E00120C00703900120019008A997
:105A7000009711A8FFF7DAFC139A149905920022F7
:105A8000119B009212981593059A0192002901D05A
:105A9000104602E0791C40180190381A01D501988F
:105AA00004E04042401E0090781C0190C01B029010
:105AB00043E0012F00DA01270021112F01DD112021
:105AC00000E038460191009008A911A8FFF7AEFC4C
:105AD00013990591119A002112981592009101973E
:105AE00021070CD40599B94201DB019900E001912D
:105AF000012904DD159A491E515C302906D0B842AF
:105B000001DA011D05DA0121029115E00199491E12
:105B1000EDE7002805DC0099411800910199091A68
:105B200003E0019A411C914200DD01910099401A65
:105B3000401C02900120C0070390200706D4029960
:105B40000198814202DB0020C04302900020694698
:105B5000C87707AF012103980337C907884224D0CB
:105B6000022011902B201290039800280CDA40425A
:105B700003902D20129007E00A210398FBF7CAFA40
:105B800030317F1E039039701199481E1190002901
:105B9000F2DC03980028EFD1791E12980870307853
:105BA000202108404530BF1E387006A8C01BC01D0C
:105BB000039010980078002800D001200199411826
:105BC0000298C0170918039809180498401A401E33
:105BD0000490E00306D421461A9B199A049800F019
:105BE0005FF8451910980078002803D01A9A19997F
:105BF00090476D1CE00324D521461A9B199A0498FE
:105C000000F04EF845191CE00098002807DB0099C9
:105C10000598884203DD1598405C199901E01999AF
:105C200030201A9A904700986D1C401C00900298F2
:105C3000401E0290002804D11A9A2E2019999047EC
:105C40006D1C0199481E01900029DDDC05E03878C3
:105C50001A9A7F1C199990476D1C0399481E03904E
:105C60000029F4DC21461A9B199A0498ACE600003E
:105C70002D0000002B0000002000000000000000AC
:105C8000F8B5044600251E461746880404D405E0EE
:105C900039462020B0476D1C641EF9D52846F8BD52
:105CA000FFB50446002581B01E46C80301D5302744
:105CB00000E02027880404D505E038460399B04762
:105CC0006D1C641EF9D5284605B0F0BD4A68002A4F
:105CD00006D00A68531C0B6010704868401E48606C
:105CE00070470000F0B58C46184900230C6882B05C
:105CF000002C29DD61006118019161000091A10073
:105D0000514362468E468D189A0066467146961932
:105D10008E5DC75C511C7E40C6546F5CE618815D89
:105D20004F408755009E911C6F5CF618815DD21C18
:105D30004F4087550199AE5CCA18875C5B1C7E405A
:105D4000DBB28654A342DFDB02B0F0BD900100203D
:105D50000378002B0CD0836909688B4208D98168CD
:105D6000012907D0022903D104494978002901D02B
:105D700000207047C0691060012070472C0000208F
:105D8000010704D00107090F1022511A08187047A3
:105D900000B58DB03421684602F07AFF01211D2044
:105DA000FFF724F800200122694600908A80032230
:105DB000CA80012109060491039049010891490014
:105DC0000290099107902921069005900C910A9064
:105DD0000B906946FCF7C0FD0020FCF7B1FD0020E8
:105DE000FCF7A2FD012203210420FCF70FFE0DB0F9
:105DF00000BD10B505F0E6FE002010BD10B505F0A1
:105E0000D9FD05F06BFE002010BD0020704700009A
:105E100010B50348C18903A000F00AFD002010BDA1
:105E2000FC0000202B41434B543D25640000000042
:105E300010B50348818A03A000F0FAFC002010BDD1
:105E40007C0000202B4149443D25640010B50348E7
:105E5000C18803A000F0ECFC002010BDFC00002075
:105E60002B4155584D3D25640000000010B50448F5
:105E70004289018903A000F0DBFC002010BD000076
:105E8000FC0000202B415558543D25642C2564000E
:105E900010B50348417903A000F0CAFC002010BDF2
:105EA0000C0100202B42573D2564000010B503482B
:105EB000C18A03A000F0BCFC002010BD7C000020C3
:105EC0002B43483D256400000A4810B5014648317F
:105ED0001EC986B00494039302920191416C009113
:105EE000036CC26B816B04A000F0A2FC002006B022
:105EF00010BD00007C0000202B4443483D25752C3C
:105F000025752C25752C25752C25752C25752C258E
:105F1000752C2575000000000A4810B5014628318F
:105F20001EC986B00494039302920191416A0091C4
:105F3000036AC269816904A000F07AFC002006B0FF
:105F400010BD00007C0000202B5543483D25752CDA
:105F500025752C25752C25752C25752C25752C253E
:105F6000752C25750000000010B5012106F050FDCC
:105F7000012800D0002010BD10B50348017903A00E
:105F800000F056FC002010BD0C0100202B43523DB8
:105F90002564000010B50348017A03A000F048FC16
:105FA000002010BD0C0100202B4352433D2564000E
:105FB00010B50348818903A000F03AFC002010BD11
:105FC000FC0000202B4441434B3D256400000000B1
:105FD00010B50348817B03A000F02AFC002010BD0F
:105FE0000C0100202B444344433D25640000000085
:105FF00010B50348817C03A000F01AFC002010BDFE
:10600000DC0000202B454E433D25640010B50348BD
:10601000016803A000F00CFC002010BD0C01002062
:106020002B465245513D25640000000010B5034841
:10603000C16D03A000F0FCFB002010BD7C0000201F
:106040002B52584741533D256400000010B50348CA
:10605000016903A000F0ECFB002010BD7C000020D3
:106060002B475749443D25640000000000B589B026
:10607000002008A90870102205496846FCF7E3FED5
:10608000694604A000F0D4FB002009B000BD000068
:10609000EF0000202B4B45593D25730010B50348F8
:1060A000417A03A000F0C4FB002010BD0C010020C9
:1060B0002B4C44523D25640010B50348817A03A05F
:1060C00000F0B6FB002010BD0C0100202B4D4F440A
:1060D000454D4D4F44453D256400000010B5034833
:1060E000816803A000F0A4FB002010BD7C0000200C
:1060F0002B4E4554433D25640000000010B5034875
:10610000C16803A000F094FB002010BD7C000020BB
:106110002B4E49443D25750010B503A105A000F0A4
:1061200087FB002010BD00006E616D655F78787898
:10613000000000002B4E414D453D2573000000003E
:1061400010B50348016803A000F072FB002010BDE9
:106150007C0000202B574D4F44453D256400000036
:10616000F0B53F4991B00A4644323CCA02AE3CC643
:106170000A4654323CCA3CC68A6E496E394C0B9270
:106180000A916179891F042903D30020C04311B00B
:10619000F0BD35A10FAA00F099F90421C9430128E7
:1061A00002D10F9EFF2E02DD084611B0F0BDA57989
:1061B0000120A840FBF7E6FA617902AA890051584C
:1061C000FBF7EEF8019000200090A089072D09D27E
:1061D000FBF7E3FA2549FBF74DF80199FBF7A3F824
:1061E000074608E0FBF7D9FA2149FBF743F8019984
:1061F000FBF799F80746002E25DD607A4000281A43
:106200008000FBF7BFFA0090F000A900401A2C3084
:10621000FBF7B8FA0099FBF7C3F8FBF714FB01F0A2
:1062200025FAFBF724FB05462079001DFBF7B5FA9C
:106230002946FBF778F841210906FBF71BF801997D
:10624000FBF771F8009038460099FBF713F8FBF75D
:10625000CDFA014607A000F0EBFA002011B0F0BD26
:1062600030D400000C0100203D2564000000C8402F
:10627000000088402B5054494D453D2564000000E6
:1062800010B50348C17903A000F0D2FA002010BD78
:106290000C0100202B5246504F5745523D256400BB
:1062A00010B50348818903A000F0C2FA002010BD98
:1062B0000C0100202B505245414D4C454E3D25646C
:1062C0000000000010B50348418B03A000F0B0FAB5
:1062D000002010BDBC0000202B505245414D424CC7
:1062E000453D25640000000010B50348416803A047
:1062F00000F09EFA002010BD7C0000202B5054437B
:106300003D25640010B50348018B03A000F090FA0E
:10631000002010BDBC0000202B524154453D256497
:106320000000000010B504480279C17803A000F015
:106330007FFA002010BD0000FC0000202B524641D7
:106340004444523D25642C256400000010B50C48DF
:1063500088B0847B8389827A417A0694059304927B
:106360000391037AC2798179029301920091437972
:106370000279016803A000F05BFA002008B010BDAC
:106380000C0100202B52465F504152413D25642CA8
:1063900025642C25642C25642C25642C25642C254F
:1063A000642C25642C25642C2564000010B503485A
:1063B000018C03A000F03CFA002010BDBC000020BE
:1063C0002B52544F3D25640010B50348418C03A067
:1063D00000F02EFA002010BDBC0000202B525857B0
:1063E000494E3D25640000000148406870470000A8
:1063F0001000002010B50348817903A000F018FABE
:10640000002010BD0C0100202B53463D25640000E8
:1064100010B50348C18D03A000F00AFA002010BD9A
:10642000BC0000202B55415254494E543D25640078
:1064300010B505230122002102A000F0F9F9002087
:1064400010BD00002B5645523D25642E25642E2597
:106450006400000008490748086008A000F0E8F957
:10646000BFF34F8F07490648C860BFF34F8F00BF87
:10647000FDE70000AA55AA55FC1F00204F4B000065
:106480000400FA0500ED00E0BFF34F8F0449034814
:10649000C860BFF34F8F00BFFDE700000400FA059E
:1064A00000ED00E005F026FB05A000F0C1F9BFF308
:1064B0004F8F05490348C860BFF34F8F00BFFDE70A
:1064C0004F4B00000400FA0500ED00E00FB410B5DA
:1064D00004AA0399FAF7B6FE10BC08BC04B018472A
:1064E00012480178002920D070B500210170FCF716
:1064F00087FE04460E4D000709D5FCF7D1FEFCF7D8
:1065000085FEA868FDF766F9E860FCF784FD600782
:1065100001D5FCF780FDA00701D5FCF77CFDE00765
:1065200001D0FCF778FD2C7070BD7047A0030020EF
:106530006C000020F1B5274EFF2124A70024244D34
:106540000131B068FAF729FE3946B2680098FFF7C2
:10655000BDFF012801D0601FF8BD06F0A3F8002799
:10656000FF43002830D11C4806F0F2FA06F060F82C
:10657000002827D1B068FAF73CFEC1B2B06806F037
:1065800021F8002803D006F037F83846F8BD00217E
:106590004020FCF7DBFB00280BD1012002F03AFD84
:1065A000641CAC420EDC00214020FCF7CFFB00282D
:1065B000F3D0FFF795FF3078C00703D006F01CF842
:1065C0000020F8BD06F018F83846F8BD3D257300E8
:1065D000881300006C0000200C010020F1B52F4E44
:1065E00082B07068012100242A4D2BA74902009037
:1065F000FAF7D3FD3946009A0298FFF767FF0128A2
:106600000AD10098FAF7F5FD47083A460099B068B4
:10661000FEF7EEF9002803D00420C04303B0F0BD1C
:1066200006F040F8002830D11D4806F091FA05F038
:10663000FFFF002827D1F9B2B06805F0C3FF00289A
:1066400005D005F0D9FF0020C04303B0F0BD002104
:106650004020FCF77BFB00280BD1012002F0DAFC84
:10666000641CAC420FDC00214020FCF76FFB0028CB
:10667000F3D0FFF735FF3078C00704D005F0BCFF3A
:10668000002003B0F0BD05F0B7FF0020C04303B009
:10669000F0BD0000881300003D2573006C00002051
:1066A0000C01002010B504A000F0C2F8FFF7ECFECA
:1066B0000120C04310BD00004F4B000038B50A4C0C
:1066C00000256068FF21056001311030FAF765FD93
:1066D000FF21606811310D5045606068816868462F
:1066E00088470028F9D138BD1000002070B5154C3E
:1066F0006668002E24D014481449A060081A54215A
:10670000FAF71EFDE0600025F560FF2130460131FB
:1067100010307560FAF741FD60680D4A0146FF30A0
:10672000013005618A600D2101750A214175857569
:1067300006F086F96168012008604860284670BD4F
:10674000012070BD1000002044DB000000EC0000C0
:10675000695F000038B50024E443401D06280CD2D0
:1067600001007944097949188F4420170E0708025F
:1067700013A001A9009000F0DBFE38BD11A001A913
:10678000009000F0D5FE38BD10A001A9009000F0E7
:10679000CFFE2046FFF7DEFF38BD12A001A9009012
:1067A00000F0C6FE2046FFF7D5FF38BD15A001A9B1
:1067B000009000F0BDFE2046FFF7CCFF38BD000082
:1067C0004F4B00004552524F52000000455252209C
:1067D000434D44204D41544348204641494C454493
:1067E0002100000045525220434845434B2041526E
:1067F000475320464F524D4154204641494C454451
:106800002100000045525220504152534520415230
:106810004753204641494C45442100000FB410B570
:1068200003A9029800F06AFE10BC08BC04B0184727
:106830000FB410B503A9029800F07AFE10BC08BC92
:1068400004B01847F0B5C54D8DB0686840680128A0
:1068500046D1FFF745FE6868816804A8884700288C
:106860003EDD684610266C688657E06800280BD02D
:106870000D2E20D00A2E1BD0082E22D07F2E20D005
:106880003146B7A0FFF7CAFFB448E51D0670F935D9
:106890002046296910304A1C06902A610E54297C32
:1068A000296101291ED0022925D003294AD059E0A7
:1068B00028780D28E8D00A220D21AAA0FFF7AEFF04
:1068C000E2E7E11DF9310869002809D0401E08619E
:1068D000002200190274A5A001A9009000F00EFE8C
:1068E0000DB0F0BD0021415661293BD0412939D07E
:1068F0002B2968D136E0027869460A7140784871E0
:1069000050B201466139192901D8203840B2694690
:1069100008710520085601466139192901D8203827
:1069200040B2694648710020887191A101A8FAF728
:106930003FFC002816D18FA101A8FAF739FC0028E6
:1069400041D00FE001782B290CD141782B2909D1B6
:1069500080782B2837D188A002A9019000F0E8FDAB
:10696000002028612146FF3115310698FAF720FCF6
:106970000028B5D02869002100280DD963181020FF
:1069800018560246613A192A01D8203840B21874C4
:106990002869491C8842F1D87848069F0390002650
:1069A0003846FAF726FC401C0DD0B8573F280BD0CC
:1069B0003D2809D00D2807D03846761CFAF719FC77
:1069C000401CB042F1D8BBE0402E73D2324639466B
:1069D0000398FAF7C9FB03980021815567485F4F78
:1069E0000290F8680E46002864D95420314641438D
:1069F000B86809180298FAF712FC002804D0F86861
:106A0000761C8642F1D39BE054204643B868301888
:106A10000A904FD05948FAF7ECFB011910310020C9
:106A2000039108563D280ED03F283BD03D2810D07A
:106A300001463039092903D8039949780D2908D02E
:106A40000D2879D080E048783F2802D188780D2839
:106A50001FD00A98C06C00281FD003980C900A9889
:106A6000006C0990002001900446089006460746F5
:106A700007900998FAF7BDFB002839D90998C05743
:106A80003C2820D03E2820D05B2814D05D281FD180
:106A900015E00A98406C002802D10220C04348E06B
:106AA000804746E049780D29C2D10A98806C0028B9
:106AB000F6D1F2E744E00198401C019008E0089804
:106AC000401C089004E0641C02E00798401C0790FA
:106AD0007F1C0998FAF78DFBB842CFD80899019826
:106AE000884224D10798844221D10198A0421ED81F
:106AF0000C98FAF77EFB00280CD00C98FAF779FB7B
:106B0000002807D00C990A78491C2C2A00D1761C41
:106B1000401EF8D10198761C201AB04207D8A64230
:106B200005D80A98C16C0398884702E004E0032066
:106B3000C043FFF70FFE07E00A98006D0028AFD1B1
:106B40000220C043FFF706FEFF2101310698FAF745
:106B500024FB002028610DB0F0BD000010000020D3
:106B6000256300002563256300000000082008005D
:106B7000415400002B2B00004F4B00003C04002030
:106B800008B50EA16A46FFF7A1FC012802D0042037
:106B9000C04308BD0098012802DD0320C04308BDA2
:106BA000002801DD012200E0002205490028CA81F9
:106BB00000D0012003490870002008BD3D25640075
:106BC000FC0000202000002008B509A16A46FFF75C
:106BD0007DFC0421C943012803D100980A0C90428E
:106BE00001DD084608BD03498882002008BD000079
:106BF0003D2564007C00002008B508A16A46FFF727
:106C000065FC0421C943012802D10098012801DD57
:106C1000084608BD0249C880002008BD3D25640023
:106C2000FC00002000B583B00CA101AB6A46FFF761
:106C30004DFC022803D00420C04303B000BD032054
:106C4000009AC043652AF8D201996529F5D2054812
:106C500002814181002003B000BD00003D25642C6D
:106C600025640000FC00002008B507A16A46FFF774
:106C70002DFC012802D00420C04308BD0349009820
:106C80004871002008BD00003D2564000C01002073
:106C900038B515A16A46FFF719FC012802D0042077
:106CA000C04338BD0098012802DD0320C04338BD31
:106CB0000025ED43012805D0FCF79EFE002810D0EA
:106CC000284638BDFCF7B8FE0028F9D1074CE0791A
:106CD000FDF765FB0028F3D12068FCF755FE00287E
:106CE000EED1002038BD00003D2564000C010020DD
:106CF00008B50CA16A46FFF7E9FB012802D0042081
:106D0000C04308BD0098FF2802DD0320C04308BD32
:106D10000549C882054980000858054908600020D7
:106D200008BD00003D2564007C00002008D0000064
:106D30000C01002030B58FB00DAA05920CAB049366
:106D400009AA08AB0BAC0AAD009301920CA1029505
:106D5000039407AB06AAFFF7B9FB082803D0042069
:106D6000C0430FB030BD06AD1ECD0C4805464835BA
:106D70001EC50AAD1ECD58301EC000200FB030BD5C
:106D80003D25752C25752C25752C25752C25752CE8
:106D900025752C25752C2575000000006C00002041
:106DA00030B58FB00DAA05920CAB049309AA08ABBD
:106DB0000BAC0AAD009301920CA10295039407ABB2
:106DC00006AAFFF783FB082803D00420C0430FB0B6
:106DD00030BD06AD1ECD0C48054628351EC50AAD92
:106DE0001ECD38301EC000200FB030BD3D25752CA3
:106DF00025752C25752C25752C25752C25752C2590
:106E0000752C2575000000006C00002008B507A156
:106E10006A46FFF75BFB012802D00420C04308BD8F
:106E2000034900980871002008BD00003D2564005A
:106E30000C01002008B50CA16A46FFF747FB0128AA
:106E400002D00420C04308BD0098012802DD0320C1
:106E5000C04308BD002801DD012000E000200349F7
:106E60000872002008BD00003D2564000C010020D0
:106E700008B50CA16A46FFF729FB012802D00420BF
:106E8000C04308BD0098012802DD0320C04308BDAF
:106E9000002801DD012100E000210348818100205C
:106EA00008BD00003D256400FC00002008B50CA1D1
:106EB0006A46FFF70BFB012802D00420C04308BD3F
:106EC0000098012802DD0320C04308BD002801DD31
:106ED000012000E0002003498873002008BD000065
:106EE0003D2564000C01002008B50AA16A46FFF7A1
:106EF000EDFA0422D243012802D10099012901DDD3
:106F0000104608BD0448002900D0012181740020EA
:106F100008BD00003D256400DC00002008B507A185
:106F20006A46FFF7D3FA012802D00420C04308BD07
:106F3000034900980860002008BD00003D2564005A
:106F40000C01002008B509A16A46FFF7BFFA042129
:106F5000C943012803D100980A0C904201DD08467C
:106F600008BD03490861002008BD00003D256400FC
:106F70007C00002070B58AB00646002008A9087081
:106F80000FA5701CFAF735F90424E44322280DD12B
:106F90006A4629463046FFF799FA012806D11022A1
:106FA00069460848FDF724FD002802D020460AB0B3
:106FB00070BD05A0FFF73CFC0120C0430AB070BDC6
:106FC0003D257300EF0000204F4B000008B50CA1D9
:106FD0006A46FFF77BFA012802D00420C04308BDAF
:106FE0000098012802DD0320C04308BD002801DD10
:106FF000012000E0002003494872002008BD000085
:107000003D2564000C01002008B509A16A46FFF780
:107010005DFA0421C943012804D10098012803D056
:10702000022801D0084608BD02498872002008BD28
:107030003D2564000C01002008B508A16A46FFF751
:1070400045FA0421C943012802D10098032801DB35
:10705000084608BD02498860002008BD3D2564003F
:107060007C00002008B507A16A46FFF72FFA012827
:1070700002D00420C04308BD03490098C860002026
:1070800008BD00003D2575007C00002008B50AA160
:107090006A46FFF71BFA0421C943012802D1009870
:1070A000022801DB084608BD0449086004A0FFF778
:1070B000BFFB0120C04308BD3D2564007C000020CB
:1070C0004F4B000008B507A16A46FFF7FFF90128FA
:1070D00002D00420C04308BD0349009888810020E5
:1070E00008BD00003D2564000C01002008B50AA180
:1070F0006A46FFF7EBF9012802D00420C04308BD1F
:1071000006490098884202D30320C04308BD0449C1
:107110004883002008BD00003D256400891300005D
:10712000BC00002008B50AA16A46FFF7CFF9042188
:10713000C943012802D10098022801DB084608BD96
:107140000449486004A0FFF773FB0120C04308BD59
:107150003D2564007C0000204F4B000008B50FA1C6
:107160006A46FFF7B3F90421C943012804D1009806
:10717000002801DD0A2801DD084608BD084908830A
:10718000062148430749411807484A7942710A795C
:107190008271C9780171002008BD00003D2564009E
:1071A000BC00002030D400000C01002000B583B0EA
:1071B00009A101AB6A46FFF789F9022803D0042030
:1071C000C04303B000BD06480099C1700199017128
:1071D000002003B000BD00003D25642C25640000A4
:1071E000FC00002030B593B00FAB10AC059311AD8F
:1071F0000EAA0694079504920BAB0AAA0DAD0CAC2F
:107200000193009213A10395029409AB08AAFFF71A
:107210005DF90A2803D00420C04313B030BD1548DF
:1072200008990160099901710A9941710B9981715D
:107230000C99C1710D9901720E9941720F99817269
:10724000109981811199817305F082FC002013B09F
:1072500030BD00003D25642C25642C25642C25645C
:107260002C25642C25642C25642C25642C25642C69
:10727000256400000C01002008B507A16A46FFF74D
:1072800025F9012802D00420C04308BD0349009815
:107290000884002008BD00003D256400BC000020DB
:1072A00008B507A16A46FFF711F9012802D00420AA
:1072B000C04308BD034900984884002008BD000071
:1072C0003D256400BC00002008B50AA16A46FFF70E
:1072D000FDF8012802D00420C04308BD0098C11F5A
:1072E000062902D30320C04308BD0349887100204A
:1072F00008BD00003D2564000C01002000B583B0EE
:107300000FA101AB6A46FFF7E1F8022803D0042081
:10731000C04303B000BD03F07DFD0198FAF732FAD7
:107320000146009802F01BFF0020FBF7C7FD06494D
:10733000002002F014FF03F07BFD002003B000BD2D
:107340003D25642C256400000000F84108B509A122
:107350006A46FFF7BBF8012802D00420C04308BDED
:1073600000981F2802D30320C04308BD0249C871FA
:10737000002008BD3D2564000C01002008B511A1C6
:107380006A46FFF7A3F8012802D00420C04308BDD5
:107390000099881E632802D30320C04308BD0A4811
:1073A000C1850A4801600A480068F9F7B3FE7D21EB
:1073B000C901F9F7AFFE012206491204101A08604C
:1073C000002008BD3D256400BC00002044000020D2
:1073D000000000204800002008B50BA16A46FFF716
:1073E00075F80421C943012807D1084A0098904242
:1073F00003DC642803DA002801D0084608BD0449EC
:10740000C865002008BD00003D2564008813000009
:107410007C00002010B505F0A7F9002010BD000089
:1074200008B50648818D0091438D028D0448416E58
:1074300004A0FFF7FDF9002008BD0000BC000020FB
:107440007C0000202B554152543D25642C25642C92
:1074500025642C256400000000B587B005AB04AAA4
:10746000019300921BA103AB02AAFFF72FF8042897
:1074700003D00420C04307B000BD4B210298C901CE
:1074800088420CD04900884209D04900884206D081
:10749000E1210902884202D04900884216D11149EF
:1074A000086011494866114803990185049941858E
:1074B000059981850EA0FFF7BBF9012001F0AAFD17
:1074C00002F06CFF0120C04307B000BD0320C043A1
:1074D00007B000BD3D25642C25642C25642C256453
:1074E00000000000400000207C000020BC000020C4
:1074F0004F4B000010B502F025FF10BD10B5FF2462
:107500000B460246013421460748FDF7E3FE0749D2
:10751000A042486004D801460348FFF7EBFF10BDC6
:10752000FF2001304860F6E794050020200000208D
:1075300010B50B460246FE211048FDF7CBFE104960
:10754000FE28486017D80A780C48002A02D1027831
:107550002B2A0AD049680D22401802700A22427074
:10756000891C0648FFF7C6FF10BD49682022401855
:107570000270491CF5E7FE204860E4E7940500200E
:107580002000002010B5FEF72FFFC16802A0FFF712
:107590004FF9002010BD00002B453A256400000083
:1075A00008B50BA16A46FEF791FF012802D004201E
:1075B000C04308BD0098002804D0012802D0002054
:1075C000C04308BDFEF710FF0099C160002008BD50
:1075D0003D25640010B504A0FFF72AF9FEF754FF1B
:1075E0000120C04310BD00004F4B000010B51E4AE3
:1075F000062812D203007B441B79DB189F44020843
:1076000004060A0C117008E0917006E0D17004E0E5
:10761000517002E0117100E05171002911D1107810
:1076200000280ED1907800280BD1D078002808D1FE
:107630005078002805D11079002802D1507900280F
:107640000CD0012205214020FBF7ECFB0521402056
:10765000FBF7D6FB002800D0012010BD0022052139
:107660004020FBF7DFFBF1E750000020F8B54A00AF
:107670002B4B520DD6182B4A0C460546142E2BDAEE
:10768000002E12DA284BF9F7D5FE00221346FAF73E
:10769000BFFD40D2002C03DA0124E40700253AE0C4
:1076A0002046284337D0214C14E0214F0B46F740A9
:1076B0003B402B4331D01C4BF9F7BCFE0022134654
:1076C000FAF7A6FD27D2002C03DD01200005F040CB
:1076D0000419BC4300251EE0332E1EDC3346002770
:1076E000143BFF43DF40384217D00F4BF9F74CFFF4
:1076F00000221346FAF78CFD0DD2002C0ADD142E61
:107700000CD03420811B012088404019A84200D2AF
:10771000641C0546BD4321462846F8BD641CF9E7B4
:1077200001FCFFFF9C7500883CE4377E0000F03FC1
:10773000FFFF0F0010B504460179006882B00029F0
:1077400001D0032802D001280ED016E0224661792C
:1077500014320B4801F0C6FE204603F069FC0028F5
:107760000BD0012002B010BD052306226946606BD4
:1077700005F015FA012002B010BD002002B010BDC6
:10778000B0D5000030B501788BB000291DD08068DD
:1077900003281AD10E4D0120687000240D480A9468
:1077A000009023460AAA0121019402A805F016F8C8
:1077B0000A98012808D80848002300901A4619465C
:1077C000019402A805F00AF86C7000200BB030BDDF
:1077D0002C0000201D9C00008190000070B510203E
:1077E00004F080FF04F008FF174E3068400001F0FD
:1077F0002BFC01214020FBF7A9FA0024134D01289E
:1078000011D1306801F020FC01214020FBF79EFAE5
:10781000012808D1306801F017FC01214020FBF756
:1078200095FA012807D00420FCF7CAFC2C70FBF75E
:10783000F2FB002070BD0420FCF7C2FC2C70FBF7AB
:10784000EAFB012070BD000098170020A003002073
:10785000F8B5234D04469121A868890009580029EC
:107860003AD02821A2780B5C9A4212D1016BE678BB
:107870000F0EBE420DD126790F023F0EBE4208D137
:1078800066790F043F0EBE4203D1A679C9B28E427B
:107890000DD09A4220D1E178FF291DD12179FF290D
:1078A0001AD16179FF2917D1A179FF2914D11126A5
:1078B00076018019007FE27901460A3991420BD1A5
:1078C000801EC1B2204600F031F8A968641E8919F3
:1078D000097F095D884201D00420F8BD0020F8BD71
:1078E0003001002070B50446007800280CD10D4608
:1078F0000648E16801F0F6FD28680021401C286078
:10790000C943E06802F028F9002070BD6CD5000082
:1079100010B5044805F050F803480122017A1143DC
:10792000017210BDF017002098170020F0B400225B
:107930004B1E0746002B16DD0125781ECC07ED07F0
:10794000EC4201D04278401C457800245B1008D0FE
:1079500086785219C578A419801CD2B2E4B25B1E95
:10796000F6D11019C2B2491E02D4785C8018C2B296
:10797000F0BC10467047000010B51248806841699D
:10798000012905D1C11DFF31FA314A6C012A01D00C
:10799000062010BD02220A640122CA64417E807E54
:1079A00002F044F908490860410040187D21C900EF
:1079B000F9F7B0FB04F054FE0448012101740020E3
:1079C00010BD00003001002098170020F81700209B
:1079D00003488068FF30FF300230406C7047000081
:1079E0003001002003488068FF30FF300230C06C57
:1079F000704700003001002003488068FF30FF30EE
:107A00000230806C7047000030010020034880681D
:107A1000FF30FF300230006C704700003001002062
:107A20005248017800297DD0F8B500260670FBF792
:107A3000E7FB4F4C4F4DA070E97A012934D0000785
:107A40007BD54D48FBF7C6FE4B49E07002460878EF
:107A50004A4D000654D50F2310071B07D8421FD1EB
:107A60004748491C521EF9F77FFBE0781023401E5F
:107A70000090A26842481146FF313D31121D01F0CD
:107A800023FAFF21A0683D31095C82292DD0852988
:107A90002FD086292DD087292BD04019067746E094
:107AA000A0684019067742E0C0070CD0FBF7B3FA94
:107AB000A1680120FF31FF3102310865EE723148C3
:107AC00004F07AFFF8BDFBF79BFBA178884209D050
:107AD000FBF7A1FAEE72A1680320FF31FF310231FA
:107AE0000865F8BDFBF797FAF8BD19214019017731
:107AF00013E0FF214431095C40190A31017707E0A6
:107B0000A06841190A77FF301B493D30F9F72CFB7B
:107B1000A0684019007F002809D0A1680220FF3129
:107B2000FF3101E020E008E00231086505E0A168CE
:107B30000320FF31FF3102310865A078400707D5E7
:107B4000FBF769FAA1680320FF31FF3102310865B4
:107B5000A0788007C8D5FBF75EFAA1680320FF3143
:107B6000FF3102310865F8BD70470000A003002016
:107B700030010020981700209814002020020000F7
:107B800098150020D817002070B53C4C002800D074
:107B90006061A0680022C11DFF31FA314A640122F0
:107BA0008A640A6401462031426315460A76627887
:107BB0004A760A7A8A76C26A0226130ECB76130CAC
:107BC0000B77130A4B778A774269002A1CD0012A67
:107BD0001CD00323CB772A494022C97811540821AD
:107BE0003830FFF7A3FEA16841225054FF310A202C
:107BF000213108760420FCF7E3FAA068407EFCF708
:107C000072FB002822D103E0CD77E4E7CE77E2E7EC
:107C1000A068807EFBF79FFE002817D1A068C07E79
:107C2000FBF760FF002811D1A068007FFBF773FF0E
:107C300000280BD1A068407FFCF7B1FB002805D1DC
:107C4000A068807FFCF785FA002801D0022070BD73
:107C5000A068417E807E01F0E9FF0A490860A268C1
:107C60000020D0776278521C627048728880CD7193
:107C70004D7305488D710674002070BD30010020E1
:107C80004C01002098170020F817002010B5074A73
:107C9000002900D09161906004F004FD002801D01B
:107CA000022010BD03F002F8002010BD30010020BA
:107CB000F8B5AF4E1125B4686D016019FF34017F2E
:107CC0003D34204603F0ACFF207801274006400EEB
:107CD000022808D005287DD006287CD007287BD034
:107CE00009287AD041E19121B06889000958012919
:107CF00074D02822A178125C91426FD1C06AE179D8
:107D0000020E91426AD1217A0202120E914265D18D
:107D1000617A0204120E914260D1A17AC0B281420E
:107D20005CD117212046FFF701FE0146207E8142EB
:107D300054D100202118C97A10294FD8401CC0B254
:107D40000628F7D3E17A207B0918607BC14245D031
:107D5000607C002802D0801F04283FD2A07C00282D
:107D600002D0C01F062839D2E07C002807D00109C4
:107D7000012933D80007000F401E04282ED2207D91
:107D8000002802D1607D002828D0A07D032825D8B6
:107D9000E01C014600260A78304610434A78120259
:107DA00010438A78C978120410430906084300BAC0
:107DB000010AA079090201436D48826811630670C7
:107DC000E17A002900D007706A4B1970237B002BE1
:107DD00008D004E062E080E0B2E0B7E0C5E00178FE
:107DE000491C017063494B70637B002B02D0017802
:107DF000491C01705F498B70A37B0B71E37B4B7156
:107E0000237C8B71617C002900D09176A17C0029B4
:107E100000D05176E17C002905D009099177E17CF9
:107E20000907090FD176617D237D0902194349BAFB
:107E30009184A17D0223012904D0022904D00329C1
:107E400004D004E0566102E0576100E05361D31DA5
:107E5000FF3300210446FA330120D9645864517E6F
:107E6000907E01F0E3FE4449086002F0E9FE00283C
:107E70000AD1A068424906764048305C8000085824
:107E8000FBF77AFE002801D00220F8BDA068401957
:107E90000677A069002866D0804764E02046FFF797
:107EA000D7FC002857D1B068E27941190A77002A37
:107EB00059D02146FF3008313D30F9F755F9B06807
:107EC0004119FF30097F3D3003F0AAFEB16802205E
:107ED000FF31FF310231C86445E02046FFF7B8FCAE
:107EE000002838D1B068E27941190A77002A0CD00D
:107EF0002146FF3008313D30F9F736F9B0684119B5
:107F0000FF30097F3D3003F08BFEB1680322084645
:107F100020300B46027661784176017A8176196BC2
:107F2000FF330A0EC2760A0C02770A0A427781777B
:107F30000021C1770A20213318760F48877212E09A
:107F40002046FFF785FC002805D106E02046FFF714
:107F50007FFC002801D00520F8BDB1680020FF316A
:107F6000FF310231C8640020F8BD0420F8BD0000D4
:107F7000300100204C010020981700205001002003
:107F800058140020F0B5FD4883B0806B8047FC4C4E
:107F9000FC4F217CFC4801260025019007297DD259
:107FA000080078440079001887447803A2FDFCFBA0
:107FB000FA00F6488068FF30FF300230016D012979
:107FC0002DD100210165042004F09CFBF0480069DC
:107FD0008047F048817A002938D08572EB48816863
:107FE0004869022871D0042004F08CFBE74825740E
:107FF0008068FF30FF300230022105648164E34E67
:10800000F068002800D080473069002807D011218F
:10801000B26849015118097F002900D08047DB4828
:108020008068FF30FF300230006D022801D0032845
:1080300034D1D848C07A002830D1042004F062FB43
:10804000D5480570FAF7E7FF06203DE2CF4988687A
:10805000426B002A04D0012AE1D105202074DEE71A
:10806000416902291DD0042004F04CFBC748257447
:108070008068FF30FF300230022105648164C34E06
:10808000F068002800D0804730690028C7D011214F
:10809000B26849015118097F002900E0AAE0BDD16A
:1080A000BDE7C11DFF310122FA31CA6402220A6410
:1080B00026748A640576E85D8100B8484058FBF76D
:1080C0005BFD04F099FADAE7FFE7C81DFF300122F3
:1080D000FA30C26402220264267482640D76E85D7E
:1080E0008100AE484058FBF747FD04F085FA86E76B
:1080F000A848407B01287DD1A44FB868FF30FF30ED
:108100000230406C002804D0A248807A00280AD0AF
:1081100010E0A348C0788100A0484058FBF72CFD30
:1081200000282AD12FE0FCF76BFF3978F8F7F2FF2F
:10813000B8680176B8689A49027E895CFF223932B4
:10814000125C36301154FF21B8683931095C38307F
:10815000891EC9B2FFF7EAFBFF22B9683932525CC7
:1081600037315054B868017E8D48405C81008B489F
:108170004058FBF701FD002805D0B9680320FF3106
:10818000FF310231086483488179012904D1B9683B
:108190002031097E01292ED031460646817103E047
:1081A0004DE111E1CEE02AE0202004F09BFA002806
:1081B00005D0B9680320FF31FF3102310864357200
:1081C00004F01AFA002805D0B9680320FF31FF3106
:1081D000023108643068410040187D21C900F8F779
:1081E00099FF411C6F4B00226F48009504F0D0FBB3
:1081F000032069E12AE081880A3181802AE0654F05
:10820000387A810728D5FD2108403872042004F00F
:1082100079FA6148057004F069FAF879052817D9E8
:10822000FE715A4EBD72B068FF30FF300230C56437
:108230000420FBF7C5FFB0680321FF30FF30023098
:10824000056425748164F06800287AD103B0F0BD1C
:10825000401CF871042037E1C107F7D04008400006
:108260003872042004F04EFA002806D04749032053
:108270008968FF31FF31023108644748057004F016
:1082800035FA4448C67104F0D3F9002817D13F4F9E
:10829000B868017801291CD0FF213931095C3830D8
:1082A00003F0BEFC3B48FF21C6723B4839310570E4
:1082B000B868095C383004F085F9002806D03349E5
:1082C00003208968FF31FF3102310864267403B04E
:1082D000F0BD3821095C80221143344AFF3011700F
:1082E0002130007EFDF74CFDC0B23871F028E6D891
:1082F0000090BA68102310462D493830121D01F045
:10830000DDFAFF21B8683931095C383003F088FCA8
:1083100039792648491C03F083FC1E48254BC67258
:108320001D480022057024492448009504F030FBC4
:108330003879401CC1B21D4804F044F90028BED170
:10834000C4E754E1114880682030007E012801D044
:1083500010488680FCF754FE6421F8F7DBFE0D4ED2
:10836000491CB088F279164B50434143002215480E
:10837000009504F00DFB7573A5E00000540100208A
:10838000F817002050010020A8170020300100201D
:108390000404002098170020A00300205814002097
:1083A0004C01002011790000F017002098160020E1
:1083B000991600201989000010270000D817002006
:1083C000FD880000C0170020042004F09BF9D74866
:1083D0009121806889000958002926D0007EC05D5F
:1083E0008100D3484058FBF7C7FB002806D0CF498F
:1083F00003208968FF31FF3102310864CB48022134
:108400008268CC4BD01DFF30FA3001640121C16479
:108410000095518C0022019804F0BAFAC648067300
:1084200004F0EAF8267403B0F0BDC448C0798100B6
:10843000BF484058FBF7A0FB0028D8D1DEE7BB4976
:1084400088684269002A1AD0012A7DD0022AEAD11E
:10845000FF30FF300230026D032A76D0022AE2D1CB
:1084600000220265FFF724FCC0B2B049052848711C
:108470004AD000286AD001F039FD03B0F0BDFF30CA
:10848000FF300230026D032A21D0022AF5D10022EA
:108490000265FFF70DFCC0B2A4490528487133D02E
:1084A0000028A54835D0417A491CC9B24172032938
:1084B00078D29E4903228968FF31FF310231CA64B4
:1084C00001220A6446730220207403B0F0BD00222A
:1084D0000265994A537A5B1CDBB25372032B08D2B4
:1084E0000321C1640121016456730220207403B08A
:1084F000F0BD0022C2640264257403228264C8684D
:10850000002874D103B0F0BD04F076F8267403B0EF
:10851000F0BD817A002937D18748007B012804D13A
:10852000019804F049FA84480573804825748168ED
:108530000222C81DFF30FA30056482644A69022AAB
:1085400011D10122C26402E03CE099E09EE00222E7
:10855000026426740D76E85D810075484058FBF78B
:108560000BFB04F049F8714CE068002800D080470C
:1085700020690028CBD01121A26849015118097F38
:10858000002934D103B0F0BD684A457292680121D8
:10859000FF32FF320232116446730220207403B0AE
:1085A000F0BDFFE7614900228868FF30FF300230EC
:1085B000C2640264257403228264C868002816D14C
:1085C00003B0F0BDFF30FF300230026D032A0FD040
:1085D000022AF5D100220265FFF76AFB0006534923
:1085E000000E48710AD001F047FC03B0F0BD9AE0DC
:1085F0000021016501F040FC03B0F0BD4E48817AD6
:108600000029C1D1494925748968FF31FF31023100
:108610000D64007B01280FD1019804F0CDF9464884
:108620000221057341488268FF32FF3202329164B1
:10863000C068002800D080473C488168486902280B
:1086400010D1C81DFF300122FA30C2640222026438
:1086500026740D76E85D810035484058FBF78CFAAA
:1086600003F0CAFF314801690029C5D08268112092
:1086700040011018007F0028BED0884703B0F0BD2D
:108680000021016501F032FC03B0F0BD2A48817A77
:108690000029B6D1007B012822D1019804F08CF981
:1086A00025480221057321488268FF32FF320232D9
:1086B0009164C068002800D080471C4800690028E9
:1086C00008D01A498A68112149015118097F0029E7
:1086D00000D08047154881681120400108180577AF
:1086E000124825748068C11DFF31FA310D6442695A
:1086F000022A0DD10122CA6402220A642674057678
:10870000E85D81000A484058FBF736FA03F074FF31
:1087100006481121826849015118097F0029B3D008
:1087200000690028B0D0804703B0F0BD30010020C0
:1087300058140020C1870000981700204C01002029
:10874000002801D001490861002070473001002055
:1087500010B503F03FFF002801D0022010BD02F049
:10876000A5FA002010BD00001D2803D8012901D85A
:10877000012A01D90620704770B4064C039EA468F4
:10878000049D6077A177227723846684A58470BCDA
:1087900000207047300100208B1F042B05D2C31F1F
:1087A000062B02D2531E042B01D306207047034B25
:1087B0009B689976DA765876002070473001002061
:1087C00010B5074804F0F8F8064900200873064978
:1087D00003208968FF31FF310231086510BD0000B8
:1087E000A81700209817002030010020F8B53C4C55
:1087F0000F460646002A01D0E26001E00020E0605A
:10880000A068C11DFF31FA314A6C002A2ED0896C54
:1088100001292BD0002E29D00178F51DF935012929
:10882000297805D0F52921D84069022803D00DE028
:10883000E6291BD8F8E70420FBF7C2FC02F036FA61
:10884000A1680120FF31FF3102314864A068012195
:10885000C21DFF32FA32916411644763C17F491C23
:10886000C9B2C177002F03D0012F06D00620F8BD72
:10887000032302462032137603E00423024620320B
:1088800013765176117A9176016B40300B0ED376C8
:108890000B0C13770B0A537791772978D1772A78C5
:1088A0003146F8F761FCA1682878FF310A302131A0
:1088B000087602F0C5F9002801D00220F8BDA068B2
:1088C000417E807E01F0B2F90649086000204872BE
:1088D0000120C87148730448022101740020F8BDCA
:1088E0003001002098170020F817002010B503F081
:1088F00071FE002800D0022010BD000010B5044811
:1089000004F05AF80348012141730021817110BD20
:10891000C01700209817002010B50D4804F04CF83F
:1089200003F0C0FE0B4C002805D0A1680320FF31E6
:10893000FF310231086402F0B9F9A1680320FF3168
:10894000FF3102318864E068002800D0804710BD04
:10895000D817002030010020F8B503F0A3FE00284E
:108960001ED11C4D0024A8681B4E41691B4F0129D4
:1089700018D1FF30FF300230406C012828D102F0BE
:108980005FF900280CD1A86811210476490140182C
:108990000477A05D80003858FBF7EEF8002801D07E
:1089A0000220F8BDA9684869022811D1C81DFF300E
:1089B0000122FA30C26402220264094801220274D0
:1089C0000C76A05D80003858FBF7D6F803F014FE53
:1089D0000020F8BD30010020500100205814002074
:1089E000F8170020F0B50C460546164609780078C1
:1089F00001F02EFA07466178E87801F029FA47403D
:108A0000A178A87801F024FA4740E178687801F06D
:108A10001FFA474037702178687801F019FA074645
:108A20006178287801F014FA4740A178E87801F0DD
:108A30000FFA4740E178A87801F00AFA47407770CA
:108A40002178A87801F004FA07466178687801F087
:108A5000FFF94740A178287801F0FAF94740E1781A
:108A6000E87801F0F5F94740B7702178E87801F02F
:108A7000EFF907466178A87801F0EAF94740A17854
:108A8000687801F0E5F94740E178287801F0E0F9ED
:108A90004740F770F0BD0000FFB58DB00746C569CF
:108AA0001C4600260E98F8F7A4FB202806D92021A2
:108AB00062A000F017FD042011B0F0BDFF221C21C0
:108AC0006846F8F763FB684802900E98F8F791FB48
:108AD000C0B26946087500191C30FF21ED310694BB
:108AE0000390884205D961A000F0FCFC062011B07B
:108AF000F0BD681C06D13846039902F0D9FE054640
:108B0000401C7CD078680399012802D0022808D044
:108B10001DE00223042207A9F86804F040F8044687
:108B200013E0B8693C2802D3401A3C280FD2032333
:108B3000042207A9F86804F032F80446F868C11D59
:108B4000FF31FA3103F0D4FF0126002C73D1082243
:108B5000002005A900F022FB04906846027D0E99D2
:108B6000049800F01BFB0490069A0F9900F016FB86
:108B70006C460490012306222146284604F00FF893
:108B8000002806D12146284614220831083000F07A
:108B9000F2FC04004FD128461C30079008900E9834
:108BA00009906846027D0A920121FF220BA8F8F77E
:108BB000EDFA0A9A002A04D00999089800F0DBFC23
:108BC0000446002E08D16846007D06994118079892
:108BD0000918F86803F08CFF6846017D2A460E9854
:108BE00003F036FF002C26D16846017D0798069FCA
:108BF000081807900121FF2208A80F9C00E019E047
:108C0000F8F7C4FA3A0007D02146079800F0B3FC01
:108C1000002801D004460EE00223062269462846B9
:108C200003F0BDFF040006D1002E04D01749012037
:108C3000487000E00624204611B0F0BD4572726F06
:108C4000723A2054686520454E56206E616D65204D
:108C50006C656E677468206973206D6F726520742F
:108C600068616E2025640A004B5634304572726F7D
:108C7000723A2054686520454E562073697A652003
:108C8000697320746F6F206269670A002C000020EE
:108C900000280FD000290DDDCB070022401E002B3D
:108CA00001D04270401C491004D042708270801C78
:108CB000491EFAD170470000F7B5804C0546206880
:108CC0008CB0800002F070F80023461E03902068EC
:108CD000002819DD02465A43E9189219091FC007F6
:108CE00003D008795070091D521C208840100006DE
:108CF000000E09D00F7957700F7A401E9770083117
:108D0000921C0006000EF5D15B1CDBB2042BDED3F7
:108D10006A4C0E99227B0398FCF7E4FF207B401EEF
:108D20000006000E0A907DD064480126006800907D
:108D3000401E03993746844604E0002E18D00127D0
:108D4000012E15DB009A724354186046205C86465B
:108D500060460006000E06D0431EE55C0818155458
:108D60001806000EF8D170467F1C8854B742ECDD1F
:108D7000761CF6B2042EE0D35048039B016800270E
:108D8000002000290FDD0A467A431E18955D401C1D
:108D90002C092D072D0F24016519494CC0B2645DC3
:108DA00094558842F1DB7F1CFFB2042FE8D30A9A66
:108DB0000E990398FCF796FF4248404E00680690D3
:108DC0003068039D0024002832DD285D6946087460
:108DD000306801196A5C69464A74410009196A5C85
:108DE00069468A74410040180019285C6946C874B5
:108DF00002AA04A906A8FFF7F5FD6946087A2855D6
:108E0000487A3168091968546946887A3168490096
:108E1000091968546946C87A31684A0089180919DD
:108E2000685400E00BE0641C3068E4B28442CCDBA0
:108E30000A98401E0006000E0A9000D074E70398BE
:108E400001F04EFB1D48039B01680027002000290C
:108E50000FDD0A467A431E18955D401C2C092D072C
:108E60002D0F24016419164DC0B22C5D9455884213
:108E7000F1DB7F1CFFB2042FE8D300220E99039888
:108E8000FCF730FF0D48002102680020002A0CDDAD
:108E900013464B43039C24181D5D840066180D9CEB
:108EA000401CC0B2A5559042F4DB491CC9B204294C
:108EB000EBD3039800F088FE0FB0F0BD90010020C6
:108EC000A0020020D8A40000F8B5069F14460D4665
:108ED000060005D0002D03D0002C01D0380702D0A9
:108EE0000020C043F8BD1A48102B04D0182B06D020
:108EF000202B0DD108E0042181600A2102E0062127
:108F000081600C21C16003E0082181600E21C160F5
:108F10008168C068401C4143880001F045FF01465C
:108F20000090204601F006FBF817000F0024C0193E
:108F3000071106E0200141198019009AFFF7BCFED5
:108F4000641CA742F6DC009800F03EFE0020F8BD4D
:108F500090010020F0B591B015460C00074605D1F0
:108F6000694600F081FD00280ED06C46284E606BEB
:108F7000002D0CD0042306220FA903F010FE054695
:108F8000F07828430BD01DE0042011B0F0BD03237E
:108F900006220FA903F003FE0546012013E0002F6F
:108FA00007D03846F8F725F900220146D243384663
:108FB00006E0002C06D0002220466179D24314300E
:108FC00003F046FD0020F070606B460A7602F61C46
:108FD000002D1AD10FAC30460322214600F0B0FA22
:108FE000002103220220C300DB08E35C002B02D037
:108FF000491C401EF7D2501A012806D10223042230
:109000000FA9304603F0CBFD0546284611B0F0BD50
:109010002C000020002816D070B505460020F9F776
:10902000EFFB7D24E4006D1E00210846F9F7DEFB0E
:109030000020F9F7D3FBA042FAD36D1EF4D2002032
:10904000F9F7EAFB70BD7047002818D010B5044648
:109050000020F9F7D5FB00210846F9F7C7FB641E8D
:1090600000210846F9F7C2FB0020F9F7B7FB0028FA
:10907000FAD0641EF4D20020F9F7CEFB10BD704781
:1090800030B50446007891B000282FD0A06802289F
:1090900001D003282AD1E068032304220FA9C01CB1
:1090A00003F07DFD0025ED43694620460D9500F057
:1090B000EBFD0D90401C15D0684603F0D1F86846D2
:1090C0000079002807D00098022801D0032802D197
:1090D000684601F0ADFF6946204600F0D5FD0D90D1
:1090E000401CE9D12946E06800F036FD002011B0AF
:1090F00030BD000030B583B00020114D00902878BD
:10910000002802D0002003B030BD694601A800F05D
:1091100005FA040005D10099019800F081F80400D7
:1091200009D008A109A000F0DDF9114800F0DAF932
:10913000204603B030BD0120287002A10DA0F2E747
:1091400028000020342E312E393900004561737912
:10915000466C6173682056257320697320696E69B7
:109160007469616C697A65206661696C2E0A000019
:1091700020D5000045617379466C617368205625DF
:109180007320697320696E697469616C697A6520FE
:10919000737563636573732E0A00000010B4C043D7
:1091A000002A0BDD074B0C78491C44402406A40D13
:1091B0001C59000A6040521E002AF4DC10BCC04357
:1091C00070470000FCCB000010B50B49044609783D
:1091D00000290BD000F087F9012200212046FFF77B
:1091E000B9FE044600F081F9204610BD03A000F04E
:1091F00079F9072010BD00002C0000204572726F25
:10920000723A20454E562069736E277420696E6944
:109210007469616C697A65204F4B2E0A000000006A
:1092200070B5002805D0114C2278002A02D0002009
:1092300070BDFEE70E4B0225EA1E9A601A611033DC
:109240006D1EFAD10B4B08259A601A6110336D1E02
:10925000FAD17D2252026260A160E06000F0CAF89B
:109260000028E5D10121217070BD00002C000020F4
:109270000C07002090060020F0B53A4C0025E0686D
:109280008FB0002810D0A06800280ED000F02BF975
:10929000204644680120800221188C423DD20027DC
:1092A0006E1EE00502D0FEE7FEE7FEE7012149025F
:1092B000204600F01CF9050023D1FF221421684646
:1092C000F7F764FF684635460321FF22F7F75EFF94
:1092D000684607700321FF22C01CF7F757FF684656
:1092E000C7702148029014226946039604952046CF
:1092F00000F041F9E11D0546FF31FA31204603F047
:10930000F7FB002D28D11748FF3441680120800267
:10931000FF34081802348442C3D3124C0026A068DC
:10932000002819D90C2037464743E068381883686D
:10933000002B03D14068F7F75CFF03460020C043D1
:109340000D90E06839184A68C15906A8FFF7A4FBD8
:10935000A068761C8642E5D300F0C7F828460FB017
:10936000F0BD00002C00002045463430F0B5044626
:1093700018488FB000781D4616460F46002811D0B9
:1093800000F0B1F820460024694600F06DFB00288B
:1093900017D0002D01D0049828600498B04207D25D
:1093A000044606E00CA000F09DF800200FB0F0BDD0
:1093B0003446002F09D0224639460E9800F0C0F8F6
:1093C00003E0002D01D00020286000F08EF8204638
:1093D0000FB0F0BD2C000020454E562069736E275B
:1093E0007420696E697469616C697A65204F4B2ECF
:1093F0000A000000F0B5A7B00020044604900290D7
:10940000224D0120A87022480023009002AA19468C
:10941000019406A803F0E2F90298022804D11DA0E5
:1094200000F060F8FFF728FF00F05DF829480023FE
:1094300000901A461946019406A803F0CFF9264E6B
:10944000264F0022264B11460EA800F07DFA6878C0
:10945000002815D00394002303AA01211EA800961A
:10946000019403F0BBF90398012807D800231A469A
:1094700019461EA80097019403F0B0F96C70E0E75C
:10948000AC7000F032F8049827B0F0BD2C0000203A
:10949000E57800005761726E696E673A20416C6C26
:1094A00020736563746F7220686561646572206300
:1094B0006865636B206661696C65642E2053657412
:1094C00020697420746F2064656661756C742E0A5F
:1094D00000000000857700001D9C000081900000C6
:1094E00035770000704772B6704762B6704770B546
:1094F000054600260C46C00500D0FEE7002C0AD029
:109500002846F9F731FBFF3CFF35FF3CFF35023CB5
:109510000235002CF4D1304670BD000010B5074A6A
:10952000002402600120086001210C20F9F7AAFA4A
:109530000028F9D1F9F768FB204610BDFCCF0000E8
:1095400030B40024002A13D00023491ED50703D0CD
:1095500003784B700123491C520809D0C55C4D703B
:10956000C5186D788D70891C521E9B1C002AF5D180
:10957000204630BC7047F8B50746002016460D4619
:1095800004460090002A0BD9295D3819F9F764FBCD
:10959000002802D00320009002E0641CB442F3D300
:1095A0000098F8BDF0B5044632488DB000781546F5
:1095B0000F4600281DD0FFF796FF0094002F1ED005
:1095C0002D4C0098F7F715FE411920461C3102F08A
:1095D0006FF9401C1AD02949009800F045FA06009E
:1095E00016D0002225490098FFF7B4FC04000FD0E4
:1095F0001FE023A0FFF776FF07200DB0F0BD01228A
:1096000000212046FFF7A6FC04462EE006242CE0AD
:109610002B463A4618480099FFF73EFA0446002EBA
:1096200007D0002C05D1012214490098FFF792FCC5
:109630000446104E7078002817D000251748009077
:1096400002952B4602AA0121019504A803F0C6F851
:109650000298012808D81248002300901A4619469B
:10966000019504A803F0BAF87570FFF73EFF204695
:109670000DB0F0BD2C000020F4070020B80700203A
:10968000454E562069736E277420696E697469614E
:109690006C697A65204F4B2E0A0000001D9C00006B
:1096A00081900000F7B5824C0546206886B08000A6
:1096B00001F07AFB0090009E0020761E2368002BAC
:1096C00019DD1A46424329189219091FDB0703D0F6
:1096D0000B795370091D521C23885B101B061B0E4F
:1096E00009D00F7957700F7A97700831921C5B1E62
:1096F0001B061B0EF5D1401CC0B20428DED300228D
:1097000008990098FCF7EEFA012003906848C068B9
:1097100001287DDD6648009B0168002700200029A4
:109720000FDD0A467A431E18955D401C2C092D0753
:109730002D0F240165195F4CC0B2645D94558842B9
:10974000F1DB7F1CFFB2042FE8D3594801220168E6
:10975000009B481E9446019005E0002A1BD0012082
:109760008446012A17DB0C465443E518185D8646EB
:109770000120012907DD1E18A75D461E401CC0B24E
:10978000AF558842F7DB019876462E546046401C60
:1097900084469042EADD521CD2B2042ADDD3464808
:1097A000434E006804903068009D0024002832DD9C
:1097B000285D69460871306801196A5C69464A711A
:1097C000410009196A5C69468A7141004018001914
:1097D000285C6946C87102AA01A904A8FFF702F92A
:1097E0006946087A2855487A3168091968546946E3
:1097F000887A31684900091968546946C87A31681D
:109800004A00891809196854641CE4B2306800E001
:109810000EE08442CCDB039A08990098FCF762FAC8
:109820000398401CC0B20390F168884200DA71E7E7
:109830001F48009B01680027002000290FDD0A4611
:109840007A431E18955D401C2C092D072D0F24010D
:109850006419184DC0B22C5D94558842F1DB7F1C11
:10986000FFB2042FE8D3009803F00EF8104C0899CB
:10987000227B0098FCF736FA226800210020002A9B
:109880000CDD13464B43009C24181D5D84006618B4
:10989000079C401CC0B2A5559042F4DB491CC9B2DC
:1098A0000429EBD3009800F08FF909B0F0BD000057
:1098B00090010020A001002028B00000F8B5069F0C
:1098C00014460D46060005D0002D03D0002C01D013
:1098D000380702D00020C043F8BD1A48102B04D02E
:1098E000182B06D0202B0DD108E0042181600A211D
:1098F00002E0062181600C21C16003E00821816043
:109900000E21C1608168C068401C4143880001F09D
:109910004BFA01460090204600F00CFEF817000FAD
:109920000024C019071106E0200141198019009A8E
:10993000FFF7B8FE641CA742F6DC009800F044F97B
:109940000020F8BD90010020FFB5002189B0C94377
:10995000234E0446039170681D46421C38D00127EF
:10996000BF020022694602F0F3FC002820D1002D3E
:109970001ED00198022801D0032819D10020C0432D
:1099800060632146684600F07FF96063401C0FD099
:10999000204602F065FC20460B9A0A99A847002849
:1099A00016D12146684600F06FF96063401CEFD184
:1099B0000398401C0ED00598401C03980CD00599C4
:1099C000490240187168C919884201D2411CC8D1A6
:1099D0000DB0F0BD7068F9E7FF30FF300230F1E7FD
:1099E0002C00002072B600210160416062B6704711
:1099F00072B601684068814201D1012000E0002078
:109A000062B6704710B5044672B68088A16880B20D
:109A1000401CF7F795FB88B22168884201D10120EC
:109A200000E0002062B610BD10B5044672B6008892
:109A3000A16880B2401CF7F783FB88B22169095CFA
:109A4000206062B6084610BD70B50D46044672B679
:109A50008088A16880B2401CF7F772FB88B2606012
:109A600021690D5462B670BDF3B58FB00F98F7F74A
:109A7000C0FB01900F9802900198009002460020D0
:109A80000299FFF78BFB070C214D0024E1004E19D2
:109A90007068421C0ED0695AB9420BD1202204A929
:109AA0001C30FFF74DFD04A9009A0298F7F7A8FBB8
:109AB000002818D0641C102CE8D300226B460F99A4
:109AC00010981A73134B03AAFFF73EFF6B461C7BDB
:109AD000002C05D010980199426B0F9802F0B8FF46
:109AE000204611B0F0BDE000401941681098416374
:109AF00070880949884202D30020C04300E010303A
:109B00007080109802F0ACFB012011B0F0BD000095
:109B1000940600201D9B0000EFFF000070B5044676
:109B20000D4616460846F7F764FB617902469142F6
:109B30000CD12079002809D02068022806D12046BF
:109B400029461430F7F75CFB002801D0002070BDD7
:109B50000120307070BD0000F0B5044685B00E469F
:109B6000C00500D0FEE7012149022046FFF7BFFCF7
:109B7000050023D1FF2214216846F7F707FB68464A
:109B80006F1E0321FF22F7F701FB684605700321D2
:109B9000FF22C01CF7F7FAFA6846C5700948029020
:109BA00014226946049703962046FFF7E4FCE11D62
:109BB0000546FF31FA31204602F09AFF284605B0EB
:109BC000F0BD00004546343010B5002823D0124BBC
:109BD0000022001F196803E0814203D80A46496841
:109BE0000029F9D1002A0AD01368841A9C4204D1B2
:109BF000006818181060104602E0506000E018601D
:109C0000002907D002680B1A934203D10B68D218BF
:109C100002604968416010BD3004002000780028CF
:109C200002D00868401C08600020704770B5062804
:109C300007D0072807D0082807D0092807D0012017
:109C400070BD0C4C04E00C4C02E00C4C00E00C4CE1
:109C500001208840F7F796FD05462046F7F79DFD61
:109C600001460848F7F79CFB2946F7F75CFBF7F736
:109C7000D6FD70BD24F4000048E8010090D0030038
:109C800020A1070000247449F3B58FB00F984068F5
:109C9000012867D01098446B601C0F980DD0C568E0
:109CA000E81DFF30FA3084425CD810980079002813
:109CB00007D01098C068241804E0C068143011B0B0
:109CC000F0BD641C29480394610AFF35026849020B
:109CD000ED358A4201D140680DE082688A4201D1A7
:109CE000C06808E002698A4201D1406903E08269E4
:109CF0008A4202D1C069844227D0AC4225D204AE48
:109D0000202204A92046FFF71BFC002017E0311891
:109D10004F78335C3F02DB198F78C9783F0409061E
:109D200079185918124B994206D10399083A8A4278
:109D300002D3201808380AE0401C1C2802D222183E
:109D4000AA42E4D31C34AC42DAD30020C0430F99BA
:109D5000C968FF31FF310231814203D31099C968CC
:109D60000029ACD10020C04311B0F0BD1407002081
:109D70004B563430F0B5044632480E462EC88FB0EC
:109D800004AF2EC72EC82EC7416800680D910C90F5
:109D90006779B81F042802D300200FB0F0BDA57961
:109DA0000120A840F7F7EEFCB90004AA5158F7F7D4
:109DB000F7FA019000200090A089072D09D2F7F74B
:109DC000ECFC2149F7F756FA0199F7F7ACFA074688
:109DD00008E0F7F7E2FC1D49F7F74CFA0199F7F7AD
:109DE000A2FA0746002E25DD607A4000281A80007E
:109DF000F7F7C8FC0090F000A900401A2C30F7F7E4
:109E0000C1FC0099F7F7CCFAF7F71DFDFDF72EFC22
:109E1000F7F72DFD05462079001DF7F7BEFC294612
:109E2000F7F781FA41210906F7F724FA0199F7F7C4
:109E30007AFA009038460099F7F71CFAF7F7D6FC43
:109E40000FB0F0BD08D400000000C84000008840FA
:109E500030B4002208231B25CC0700D04240C4099F
:109E60004006E401000E002C00D0684049085B1E4B
:109E7000F2D130BC1046704730B4194900238868CD
:109E8000184A0446FF30FF300230856C012D0CD09B
:109E90000325C56411256D016419237703641374C8
:109EA000086900280FD030BC00470F4C657A6D1C44
:109EB000EDB26572032D08D20321C1640121016452
:109EC00061730220107430BC70470024C4640464C1
:109ED000137403228264C8680028E4D130BC704740
:109EE00030010020F817002098170020F8B5294FFE
:109EF0000024B86801230246FF30FF300230866C30
:109F0000254D2649012E11D00126C664022606647D
:109F10000B74107E002806D01476605D8100204806
:109F20004058F9F729FE02F067FBF8BD1D4A567A42
:109F3000761CF6B25672032E07D20324C4640124A1
:109F40000464537302200874F8BD124A466CD26848
:109F5000012E09D00023C36403640C7403218164BF
:109F6000002AF1D09047F8BD0126C6640226066497
:109F70000B7403218164002A00D09047B8680476EE
:109F8000605D810006484058F9F7F6FD02F034FBA9
:109F9000F8BD00003001002050010020F81700201B
:109FA000581400209817002030B587B001211C20DC
:109FB000FAF71CFF002400940125019402940394F5
:109FC0006A460521402005950494F8F7CFFE01214B
:109FD0000020FDF70BFB00950195039402956A465E
:109FE0000321402005950494F8F7C0FE6A46042139
:109FF0004020F8F7BBFE00950195029403956A4650
:10A000000021402005950494F8F7B0FE6A4601212E
:10A010004020F8F7ABFE022200214020F8F78AFE2C
:10A02000022201214020F8F785FE02220321402070
:10A03000F8F780FE022204214020F8F77BFE01227F
:10A0400003210020F8F7E2FC012203211046F8F773
:10A05000DDFC07B030BD10B586B0022200214020E3
:10A06000F8F75CFE022201214020F8F757FE032199
:10A070004020F8F76BFE002805D00322114640204F
:10A08000F8F758FE04E0022203214020F8F752FEC0
:10A0900004214020F8F75AFE002805D003220421AD
:10A0A0004020F8F747FE04E0022204214020F8F7A0
:10A0B00041FE012000240090019002946A4605218F
:10A0C00003942046F8F752FE6A4606210020F8F76E
:10A0D0004DFE6A4607210020F8F748FE02946A46C2
:10A0E000002140200394F8F741FE6A4601214020F8
:10A0F000F8F73CFE6A4603214020F8F737FE6A462F
:10A1000004214020F8F732FE6A4605214020F8F786
:10A110002DFE06B010BD00B583B001211F20FAF757
:10A1200065FE0020F8F780FD0020FAF769FE0020A8
:10A130000090019002906846FAF798FC0020FAF728
:10A1400029FE0020FAF73CFE012003B000BD10B547
:10A1500001211220FAF74AFEFAF782FF10BD10B56E
:10A160008AB00C4600282CD001210220FAF7EAFC24
:10A1700001211420FAF73AFE24216846FEF788FDF3
:10A18000022004900120014601902046F7F746F98D
:10A19000F7F745FB6946401E08726846FAF762FB0E
:10A1A000FAF734FB0120FAF71BFB0120FAF738FB22
:10A1B000FAF7D8FB012203211720F8F727FC0AB091
:10A1C00010BDFAF737FB002203211720F8F71EFC19
:10A1D000FAF71CFB0AB010BD10B584B001210620AF
:10A1E000FAF704FE10200090032001900020074C95
:10A1F0000390029069462046FAF7E1FB2046FAF701
:10A20000D5FB00F005F804B010BD000000080040C8
:10A2100030B587B00020009001241C4D01900290C1
:10A2200003900490214605942846FAF7DFFB6A461E
:10A2300004210020F8F79AFD012204210020F8F7FC
:10A24000E7FD01212846FAF7D1FB6A4607210020E5
:10A25000F8F78CFD012207210020F8F7D9FD6A46A6
:10A2600005210020F8F782FD012205210020F8F7E2
:10A27000CFFD6A46062100200094F8F777FD012201
:10A2800006210020F8F7C4FD07B030BD00080040EB
:10A2900000B58BB028216846FEF7FAFC01210820A2
:10A2A000FAF7A4FD00200521009003910590069087
:10A2B0006946087408720190F8F7C8FA0BB000BD3F
:10A2C00010B51E487D218AB0C9010068F6F722FF4B
:10A2D0001B4CA168484301210904081AE0602821A9
:10A2E0006846FEF7D5FC01210820FAF77FFD04211E
:10A2F00003910020012100900691059069460874A1
:10A30000087201900120F8F7A1FAA08981B201201A
:10A31000F8F748FAA08981B20120F8F751FA002134
:10A320000120F8F729FA0120F8F782FA0122032127
:10A330000F20F8F76BFB0AB010BD000000000020F2
:10A340003C000020F8B507460120134C0026607041
:10A350000D46A6703046F8F7C7FAA9B20020F8F704
:10A360003FFB39460020F8F733FBF8F7C9FA002025
:10A37000F8F7CEFA11218F073846FAF747FFA07891
:10A380000028FCD0384601698907FCD51121FAF76D
:10A3900036FF66702846F8BD3C00002010B586B038
:10A3A00018216846FEF774FC01210020FAF71EFD13
:10A3B00040200090002002900190114840680590D4
:10A3C000012040020390FAF7D9FC0124A40704906D
:10A3D00069462046FAF72EFF00212046FAF708FFCB
:10A3E00001212046FAF704FF00212046FAF715FF65
:10A3F000012200210620F8F709FB06B010BD00007D
:10A400003C00002010B586B018216846FEF740FCDD
:10A4100001211C20FAF7EAFC002001240594049095
:10A42000039000906A46092101940290F8F79EFC7F
:10A43000012209210020F8F7EBFC00946A460A216A
:10A4400000200294F8F792FC01220A210020F8F77C
:10A45000DFFC06B010BD000070B505461EA083B03D
:10A4600000681E4E029030680024002831DD295D0E
:10A4700068460170316808192A5C684642704800D5
:10A4800000192A5C68468270480008180019295C87
:10A490006846C17001AA694602A8FEF7A3FA684699
:10A4A000007928553168684640790919685431683F
:10A4B00068464900807909196854316868464A003D
:10A4C00089180919C0796854641C3068E4B2844260
:10A4D000CDDB03B070BD00000E090D0B9001002014
:10A4E000F8B501218E4612490F6800977F1E71460C
:10A4F000002917D00126012914DB009A4A431418B9
:10A50000E15D8C463906090E06D04B1EE55C41180C
:10A5100055541906090EF8D161468154761C7146CE
:10A520007645EDDD491CC9B28E460429DFD3F8BD5E
:10A5300090010020F0B58F4B0D461A7B1978521C04
:10A5400051438DB0C9B2029199688A00002A0DDD8D
:10A55000D205691E120E401E46784E7086788E70A7
:10A56000801C891C521E1206120EF5D11E7A02980A
:10A5700086427DD2B0000A9040190990210A203805
:10A58000027F090211430592FF23427F1B02994378
:10A59000FF2413022402234004921943837F2202E2
:10A5A0001C049143144003932143C77F0C02240AE7
:10A5B000380604436F48816830460B91F6F7C0FDBA
:10A5C0008446002905D00B98062870DD042974D034
:10A5D000A2E0049A240A130912071B01120F9A1809
:10A5E000654B24029A5C039914430A090907120176
:10A5F000090F51182246595CFF2424020902A24384
:10A6000021400A4339093C070901240F0919595C03
:10A61000FF2424040904A243214005980A430109A8
:10A6200000070901000F0818195C1002000A09064A
:10A63000084300906046C0B201283AD011D9401EAC
:10A6400002214E4FC4B2601E3970002809DD3878EF
:10A650000221FFF7FDFB641E3870E4B2601E002883
:10A66000F5DC00984549C2B208784240009800E005
:10A670007DE0000A0002104302044B78120E5A409B
:10A68000FF231B02120298431A40104302028B78E8
:10A69000120E5A40FF231B04120498431A40104321
:10A6A000C978020E04024A40240A100633E033E05F
:10A6B00003E0324901200870D3E70598010900073B
:10A6C0000901000F08182C490A5C200A00021043F7
:10A6D000049A130912071B01120F9A188A5CFF23B0
:10A6E0001B02120298431A401043039A13091207DF
:10A6F0001B01120F9A188A5CFF231B041204984353
:10A700001A4010433A093B0712011B0FD218895C0B
:10A710000402240A0806044316480A9A8168711A3A
:10A720008900695C6140A9548168711A89004919DE
:10A730004A782104090E4A4009994A708168220228
:10A74000711A890049198978120E5140099A91703D
:10A750008068301A80004019C178200E4140099865
:10A76000761CC1700298F6B2864200D202E70DB0A4
:10A77000F0BD000090010020A00100209401002005
:10A7800030B402680024002A0FD000238A4208D186
:10A79000002B03D015681D60146006E01368036089
:10A7A000FAE713461268002AF0D10C600268002A0A
:10A7B00009D000E01A461368002BFBD1002A02D012
:10A7C000116030BC7047016030BC70470068704752
:10A7D0000021016070470268002A08D000238A42E5
:10A7E00009D1002B04D01068186000201060704759
:10A7F00011680160F9E713461268002AEFD170472B
:10A80000F0B5C54A00248FB091420ADA4B005B08CC
:10A81000934206D801254A006D05EA4205D1002879
:10A8200003D0FAF7E1FD0FB0F0BD01252D05A942D7
:10A8300019DA034308D0002910DA0120FAF7F0FDF5
:10A84000FAF7D7FD0FB0F0BD0220FAF7E9FDFAF7ED
:10A85000C1FD0122D20751400FB0F0BD3524E443C1
:10A860003622F6F779FF0A15AC4B1219D4180A03F1
:10A87000120BAB49AB4B56182E4031465940114391
:10A880000192321512190B920022F6F777FE019A07
:10A890000446921C1003A44E000B0D467E44032870
:10A8A00060D2204673683268F7F7E6FE1CD10B9839
:10A8B000002815D0F6F778FF04460E469B4A9C4BBD
:10A8C000F6F76AFE0D4607469A4A9B4B20463146EC
:10A8D000F6F762FE3A462B46F6F7ACFD0FB0F0BD38
:10A8E000716830680FB0F0BD944A954B20462946F8
:10A8F000F6F752FE0022934BF6F746FE06460F4649
:10A9000022462B4610461946F6F746FE32463B468F
:10A91000F6F742FE06460B980F4600281DD0F6F7C4
:10A9200043FF824A824B05910490F6F735FE32468A
:10A930003B46F6F729FE22462B46F6F71FFE044655
:10A940000D467C4A7C4B05990498F6F725FE224675
:10A950002B46F6F713FE0FB0F0BD0B4632462046ED
:10A960002946C4E0012300229B072046F6F762FD3A
:10A9700002460B4620462946F6F776FE06460F4667
:10A980000B98F6F711FF32463B46059104901046AE
:10A990001946F6F701FE09910C906B490198099B45
:10A9A000421800920C9A19461046F6F7F5FD024639
:10A9B00007910A90654901980B1A65480193032194
:10A9C0007844079BFAF7AFFC079B0A9AF6F7E4FD79
:10A9D0000E905F480D9104217844079B0A9AFAF77C
:10A9E000A2FC099B0C9AF6F7D7FD019B009A1A432B
:10A9F00000920D9B0E9AF6F71DFD009A01910C90A6
:10AA0000002A4DDD0022D24320462946F6F7A4FE57
:10AA100022462B46F6F7C0FD00910A900B980028BD
:10AA20002BD0424A424B05990498F6F7B5FD0791A1
:10AA30000E90019B0C9A00990A98F6F7FBFC32469F
:10AA40003B46F6F7A9FD079B0E9AF6F7F3FC009B31
:10AA50000A9AF6F799FD22462B46F6F78FFD044633
:10AA60000D46344A344B05990498F6F795FD224675
:10AA70002B46F6F783FD0FB0F0BD019B0C9A0A98A8
:10AA8000F6F7D8FC32463B46F6F786FD009B0A9A5D
:10AA9000F6F77AFD22462B46F6F776FD0FB0F0BDAD
:10AAA0000B98002827D0214A214B05990498F6F7E6
:10AAB00073FD0791009020462946019B0C9AF6F7FA
:10AAC0005DFD32463B46F6F767FD079B009AF6F7B9
:10AAD00055FD22462B46F6F751FD04460D46154A14
:10AAE000154B05990498F6F757FD22462B46F6F7C5
:10AAF00045FD0FB0F0BD0B46204629460C9AF6F7EF
:10AB00003DFD32463B46F6F747FD22462B46F6F71B
:10AB10003BFD0FB0F0BD00000000F07F01FCFFFF27
:10AB2000645F09000000F03F382C0000763C793566
:10AB3000EF39EA3D0000E0FE422EE63F55555555FF
:10AB40005555D53F0000E03F86EBF9FF51B80600B0
:10AB5000DC2A0000F8B504463048002581420ADAB4
:10AB60004A005208824206D8012348005B05D842B9
:10AB700005D1002C03D02046FAF736FCF8BD01239E
:10AB80001B05994219DA224307D000290EDA012069
:10AB9000FAF746FCFAF72DFCF8BD0220FAF740FC64
:10ABA000FAF718FC0122D2075140F8BD3525ED43D4
:10ABB00036222046F6F7D0FD044608154019184AFB
:10ABC0000D038018C20F17492D0B891A09050D4373
:10ABD0008018F6F7E9FD06460F4620462946FFF79E
:10ABE0000FFE114A114BF6F7D7FC04460D46104AEA
:10ABF000104B30463946F6F7CFFC22462B46F6F787
:10AC000019FC0D4604460C4A0C4B30463946F6F703
:10AC1000C3FC22462B46F6F70DFCF8BD0000F07F82
:10AC200001FCFFFFFF0300000EE526157BCBDB3F99
:10AC3000362BF111F3FE593D00609F501344D33F72
:10AC400010B50420F9F7BCFA00282AD1164CA068E8
:10AC5000407EF9F748FB002823D1A068807EF8F7F2
:10AC60007AFE00281DD1A068C07EF8F73BFF0028BF
:10AC700017D1A068007FF8F74EFF002811D1A06817
:10AC8000407FF9F78CFB00280BD1A068807FF9F793
:10AC900060FA002805D1A068008CF9F7B8FA0028FE
:10ACA00000D0022010BD0000300100200E4A00201C
:10ACB00090720121D1710D495072896811235B0195
:10ACC000CB181877FF2339335854094BFF311870CC
:10ACD000D072FF310231074A4864107408648864F6
:10ACE000C8640865704700009817002030010020F4
:10ACF000A0030020F817002072B6F9F763FDF9F7FA
:10AD000067FDFFF751F9FFF706FAFEF7F3F90028A0
:10AD100001D100F005FF00211E48F7F79DFFFBF76A
:10AD200037F8FFF76FFBFFF739FBFFF755FAFFF72F
:10AD30000EFAFFF7ADFAFFF7C3FAFAF773F8164801
:10AD40007D21C9000068F6F7E5F91449401E8842E4
:10AD50000CD81349486113480722C3691B021B0A18
:10AD60004C042343C361002088610A6101F0E2FDC5
:10AD700000F038FE00210846FCF738FC62B6FBF70D
:10AD800061FD00F0FFFF00F0D9FB00F053FE01F081
:10AD9000D9FDF4E7FCFF000000000020FFFFFF00EA
:10ADA00000E000E004ED00E0F0B50B30C108C900A0
:10ADB000144F0026144A0FE003688B420BD38B42DA
:10ADC00005D95C1A4318456830C3083B00E0436866
:10ADD000136002C004E0021D10680028ECD1304668
:10ADE000002803D13868002801D00020F0BD064AB1
:10ADF00006481060064A121AD208D20044C0012048
:10AE00003860D7E7340400203004002014180020F4
:10AE10001018002010B5002203210620F7F7F6FDD8
:10AE200072B6FFF718F962B60020F8F747F810BDC0
:10AE3000F0B58DB001211F20F9F7D8FF0020F7F7FA
:10AE4000F3FE0020F9F7DCFF00240094019468462B
:10AE50000294F9F70BFE0020F9F79CFF0020F9F7A8
:10AE6000AFFF72B634216846FDF712FF01211D20A5
:10AE7000F9F7BCFF01256846009485800326C6804B
:10AE80002806049040010394470002940890079418
:10AE90002920069405940C9009970A9469460B940E
:10AEA0000020F7F759FD0020F7F74AFD0020F7F7DB
:10AEB0003BFD012203210420F7F7A8FD0095019531
:10AEC000029403956A460021402005950494F7F703
:10AED0004DFF022200214020F7F72CFF6A46012196
:10AEE0004020F7F743FF022201214020F7F722FF1D
:10AEF000012203210020F7F789FD012203211046DA
:10AF0000F7F784FD6A460321402002950394F7F782
:10AF10002DFF6A4604214020F7F728FFFFF778F954
:10AF200018216846FDF7B4FE01210020F9F75EFF05
:10AF3000402000901A4802940194406805906802ED
:10AF40000390F9F71BFF049069463846FAF772F947
:10AF500000213846FAF74CF901213846FAF748F94A
:10AF600000213846FAF759F9012200210620F7F7A7
:10AF70004DFD01210620F9F739FF039402941020BA
:10AF8000084C0090694601962046F9F718FD2046C6
:10AF9000F9F70CFDFFF73CF962B60DB0F0BD00000B
:10AFA0003C0000200008004070B505461EA083B09C
:10AFB00000681E4E029030680024002831DD295DB3
:10AFC00068460170316808192A5C6846427048007A
:10AFD00000192A5C68468270480008180019295C2C
:10AFE0006846C17001AA694602A8FDF7FBFC6846E5
:10AFF00000792855316868464079091968543168E4
:10B0000068464900807909196854316868464A00E1
:10B0100089180919C0796854641C3068E4B2844204
:10B02000CDDB03B070BD00000201010390010020E0
:10B03000F0B50446A9B0002014902068022804D17D
:10B04000002221461046FDF785FF02A80B90E0681C
:10B050000C9000200025C0430A905C4801950090A8
:10B060000D950E950EAB0DAA29460B9801F0B6FB77
:10B070000E980127002808D05548019700900AAB88
:10B080000CAA02210B9801F0A9FB0D98514E002843
:10B0900012D00A99491C0FD1012802D870780028D3
:10B0A00009D04B48019700900AAB0CAA01210B98DC
:10B0B00001F094FB00E077700A980090401C20D0CB
:10B0C0002046B17814300A9000291DD00B950C95BC
:10B0D0000D950E950F9510951195129513950146A6
:10B0E00062790BA8F6F778F86A4615710BA919A8CA
:10B0F000394B01AAFEF728FC6A46107900285DD179
:10B1000002E0062029B0F0BD0398E568012802D0CE
:10B11000022807D019E0022304220CA9059801F0A7
:10B120003EFD12E008983C2802D3401B3C280CD27C
:10B13000032304220CA9059801F031FD0599084666
:10B14000FF31FF31023101F0D3FC0123062217A9A0
:10B15000009801F024FD0026083D19D0304620302B
:10B16000A84201D2202700E0AF1B3046616B0830B7
:10B1700008183A461AA9FEF7E3F900983A468019EA
:10B180001AA90830FEF7F7F9F6191490AE42E5D384
:10B190000223062217A9009801F001FD60792169B8
:10B1A000411800981C3009180098400A400201F02C
:10B1B0009FFC6179009A0A9801F04AFC012221461D
:10B1C0000020FDF7C7FE149829B0F0BD65C8000047
:10B1D000515D00002C0000201D9B0000F0B583B0E5
:10B1E00004214020F7F7B2FD01253F4C3F4E0128D6
:10B1F00007D1B068002801D0022802D1207A800649
:10B2000067D404214020F7F7A1FD002805D1B068DC
:10B21000012802D1207A80075BD400210120FCF7AD
:10B22000E5F9B1680026324F00290AD0012917D06C
:10B23000022913D104214020F7F788FD01284BD0C3
:10B2400009E004210807F9F7E1FF04214020F7F79E
:10B250007DFD01283DD03E710520E06003B0F0BDCA
:10B26000FCF7BCFA20490A461032283100920191BD
:10B2700001280CD001F03AFA04214020F7F766FDCE
:10B28000012815D00520E0603D7103B0F0BD01F04C
:10B290002DFA009801F090FB16480096018C164B91
:10B2A0000022019801F074FB1448406B804710E0C5
:10B2B0001248C06A8047009801F07EFB019801F0B7
:10B2C0007BFB0A480096C16D0D4B00220D4801F032
:10B2D0005FFBE56003B0F0BD04210807F9F796FFB6
:10B2E000E56003B0F0BD0000140900207C000020E0
:10B2F000940B0020BC000020A1B3000054010020EA
:10B3000009B300006C090020044801228168920200
:10B310001143816002484068004700001409002082
:10B32000540100200348044942698A60808CC86542
:10B3300070470000A40D00207C00002070B511486B
:10B34000114D4069114C012809D1207F002809D1F5
:10B350000F4801F031FBA86804210843A860207F52
:10B3600000280DD0A86802210843A860227F09495F
:10B370000948F5F7F9FE0948217FC16700202077C9
:10B3800070BD0000A40D002014090020C40F00208F
:10B390003C090020E00E0020940A0020140A00203E
:10B3A000024804228168114381607047140900201B
:10B3B0000748016801290AD106490968012906D10F
:10B3C0008168012211438160034800218164704734
:10B3D000140900207C000020A40F0020024808224D
:10B3E00081681143816070471409002010B50B4932
:10B3F000002008604860C8608860094801F0DCFAF5
:10B40000084801F0D9FA084801F0D6FA074801F0D7
:10B41000D3FA0748006B804710BD000014090020D4
:10B42000240900203C090020540900206C09002058
:10B4300054010020F8B501210220FCF7D7F8264D71
:10B4400000206860E86001262E60A8602448234C34
:10B45000807C207010222349201DF5F785FE2249AB
:10B46000282288686061087D1055C868E062086914
:10B470002063032020761D484279A2768279627685
:10B480000279E276027A2277427AA277828922844E
:10B49000C079607716484022408C6084C86DA084D3
:10B4A00014491548F5F760FE144C154922680B48FD
:10B4B00090470746A16A134888470848236A416BAA
:10B4C000114A00209847002F04D001210520FCF7E5
:10B4D0008DF8F8BD2E60F8BD14090020A40D0020E1
:10B4E000DC000020EF0000207C0000200C01002088
:10B4F000BC000020940000205814002054010020BB
:10B5000025B300003DB30000B1B3000010B50A4CF4
:10B51000206801280AD104214020F7F717FC0128F0
:10B52000A06804D0012149020843A06010BDFF219A
:10B5300001310843A06010BD14090020F0B5784C1B
:10B5400085B0206801281BD1FCF71CFD204602466F
:10B55000E36858320092183A0392183A10300221E8
:10B560002027704E704D02920190062B73D2180066
:10B5700078440079001887440220057C2098E16017
:10B5800005B0F0BD68698047012806D0A8688047EB
:10B59000002808D1696A884705E000210220FCF7ED
:10B5A00025F8FFF71BFEA0688106E9D5B843A06027
:10B5B0005B4800F0C5F805B0F0BDA068C20505D530
:10B5C000FF2101318843A06005B0F0BD820504D59C
:10B5D000012149028843A06063E0820612D5B84386
:10B5E000A060B068012804D168688047009801F025
:10B5F000E3F94B4800F0A4F80028E5D10320E0600F
:10B6000005B0F0BD820716D58843A0600121032054
:10B61000FBF7ECFF454C2089FDF7FCFC4448C16F6B
:10B620004448FEF78FFE6089FDF7F4FC00210320FB
:10B63000FBF7DCFF35E0010604D580218843A060DC
:10B64000039805E0410707D504218843A0600298CC
:10B6500001F0B2F925E061E04105D1D5012189026F
:10B660008843A060009801F0A7F9FFF7B7FD05B087
:10B67000F0BDA068C10709D040084000A060019853
:10B6800001F09AF9FFF7AAFD05B0F0BD010703D557
:10B6900008218843A06004E0C106F5D51021884345
:10B6A000A060FFF79BFD05B0F0BD2348012107799D
:10B6B0000420FBF79BFF0020A060E86A8047019808
:10B6C00001F07AF9029801F077F9039801F074F922
:10B6D000009801F071F9F06DF6F75FF8174C21460C
:10B6E000F5F75EFE01463846FEF739FDFFF792FB9F
:10B6F000F06DF6F752F82146F5F752FE01460020AC
:10B70000FEF72DFDFFF794FB68688047FFF766FDA5
:10B7100000210420FBF76AFF05B0F0BD00206EE7B2
:10B72000140900207C00002054010020FC000020AF
:10B73000140A0020940A0020940B002000007A4490
:10B74000F8B504460546FF21783070340131009089
:10B7500001F05EF9606000284DD03B480068002889
:10B7600004D13A48FEF744F9002804D00021012012
:10B77000FBF73CFF03E001210846FBF737FF0520FC
:10B78000C0012F1838680026002802D0012812D0E6
:10B7900017E06068032814D1E6722DA10098F5F730
:10B7A00007FD00280DD001212AA0FEF7CBFD0120C6
:10B7B0003860801EF8BD6068012802D1207A6128B7
:10B7C0001CD03E60E868022815D023492079087013
:10B7D000626822480099F5F7C7FC2148224A81890E
:10B7E00020480129036A13D000211C4898470028EB
:10B7F00013D001F025F90020C043F8BD04211BA09F
:10B80000FEF7A0FD00F0BEF800F068F93E60F2E738
:10B810000121124898470028EBD16168009800F098
:10B82000FFF9A86840084000A8602846283001F0C9
:10B83000C3F828460F4B00220F491030009601F044
:10B84000A7F80020F8BD00004C00002058000020A0
:10B850002B2B2B00610000009C0C00209C0B002077
:10B86000FC00002054010020B1B300004F4B0D0A32
:10B8700000000000DDB30000983A000010B5094C4C
:10B88000206801280CD108480068012808D1074821
:10B89000FEF7AEF8002803D1A06820210843A0607D
:10B8A00010BD0000140900207C000020580000207A
:10B8B000F0B5064600208BB02D4D0F46044607908C
:10B8C0000020C043029005942A48069400900497F3
:10B8D00006AB05AA00210194304600F07FFF0698D0
:10B8E000002809D0012124480191009002AB04AA4C
:10B8F0000221304600F072FF0598002813D002990B
:10B90000491C10D1012802D86878002809D01A48AB
:10B910000121009002AB04AA0191304600F05EFFC5
:10B9200001E0012068700298411C1FD1697800294C
:10B930001CD00799002919D110480A9400900023BF
:10B940000AAA0121019402A800F048FF0A980128E0
:10B9500008D80B48002300901A461946019402A803
:10B9600000F03CFF6C7001200790A9E70BB0F0BD20
:10B970002C00002065C80000515D00001D9C0000E7
:10B980008190000010B509480068002802D0012805
:10B9900003D004E000F0B8F901E0FFF727FDFAF763
:10B9A000A5FE03490020086010BD00007C000020B7
:10B9B0002801002010B5FAF781FE08480068002829
:10B9C00002D0012803D004E000F0B4F901E0FFF751
:10B9D00031FD03490120086010BD00007C000020FB
:10B9E0002801002010B503214020F7F7AFF90E4CD5
:10B9F000012806D00D480068002806D0012807D08D
:10BA000008E0FAF773FE002005E000F093F901E08A
:10BA1000FFF710FD0120206004214020F7F796F980
:10BA20000349087010BD0000280100207C000020A0
:10BA30002401002070B5264CA08801280ED1206872
:10BA4000244D00281CD0002601282FD0286800286B
:10BA50003AD0012835D0FAF749FE2660042140206B
:10BA6000F7F774F91C4C2178884208D00421402053
:10BA7000F7F76CF9207000F06DF9FFF747FD70BD26
:10BA800003214020F7F762F90028E7D1FAF716FE04
:10BA90002868002802D0012803D004E000F04AF909
:10BAA00001E0FFF7C7FC01202060D7E70321402019
:10BAB000F7F74CF90128D1D12868002804D00128D3
:10BAC000C9D1FFF793FCC6E700F01EF9C3E70000F9
:10BAD000280100207C0000202401002001490220D0
:10BAE0008880704728010020014901208880704724
:10BAF0002801002010B504A0FDF766FB05A0FDF7A6
:10BB000063FB002010BD000072665F636F6E6669A4
:10BB1000670000006E6F64655F636F6E6669670043
:10BB200008B56B4610221A491AA0FDF71FFC6B4698
:10BB300090221B491BA0FDF719FC19484B22416EAE
:10BB4000D20191420DD0520091420AD0520091424E
:10BB500007D0E1221202914203D05200914200D05C
:10BB600042661349CA8D921E312A01D30522CA8525
:10BB7000104A406E1060C88D0F4908600F48C08998
:10BB8000002800D001200E490870002008BD0000E8
:10BB90000C01002072665F636F6E666967000000CB
:10BBA0007C0000206E6F64655F636F6E666967007E
:10BBB000BC0000204000002044000020FC000020C9
:10BBC0002000002010B51022054906A0FDF7EAFC70
:10BBD0009022074907A0FDF7E5FC002010BD0000FA
:10BBE0000C01002072665F636F6E6669670000007B
:10BBF0007C0000206E6F64655F636F6E666967002E
:10BC000010B500F04FFD002802D00020C04310BD49
:10BC1000024800F09DFF002010BD00000C01002034
:10BC200070470000F8B504214020F7F78FF8012491
:10BC30002E4D012802D1287A00070CD4042140207F
:10BC4000F7F784F82A4E002807D1F06D002804D0B9
:10BC5000287A800701D5EC60F8BD00272548AF6041
:10BC6000876000F0EDFE00210120FBF7BFFC0421FE
:10BC70004020F7F76BF801460120800701290DD01D
:10BC80000421F9F7BCFAF16D1B48052600292AD0DA
:10BC9000047700F0B1FC00280DD022E00421F9F770
:10BCA000B5FA164800F088FE154800F085FE00F051
:10BCB000A3FCEC60F8BD134881794079FDF7B6FF2D
:10BCC00007464000FDF7C0F900240F210020F7F7D8
:10BCD0003DF8012805D13846FDF7B6F9641C032C60
:10BCE000F3DBEE60F8BD0777EE60F8BDF8100020DA
:10BCF0007C00002038120020381400200811002099
:10BD0000201100200C01002010B50748002101601F
:10BD10004160C1608160054800F04EFE044800F0BB
:10BD20004BFE00F057FC10BDF81000200811002059
:10BD30002011002010B5064800214160C1608160DB
:10BD40000121016000F07CFE00F0ACFC10BD0000A1
:10BD5000F810002010B50A4C206801280AD10421EF
:10BD60004020F6F7F3FF0128A06804D0FF2101313D
:10BD70000843A06010BD80210843A06010BD0000F2
:10BD8000F8100020F8B57E4C2068012842D17D488B
:10BD90000026017800291FD00670F7F731FA054612
:10BDA000000704D5022000F0F9F8F7F734F9680726
:10BDB00004D5F7F730F9402000F0F0F8A80704D5D3
:10BDC000F7F729F9202000F0E9F8E80704D0F7F7A1
:10BDD00022F9012000F0E2F8694DE1682846283098
:10BDE00010350090062977D20800784400790018B1
:10BDF0008744020A7F0AC49600F054FC002809D147
:10BE0000614800F0A5FE7DE0A068010603D5802111
:10BE10008843A060F8BDC10504D5FF2101318843E6
:10BE2000A0606FE001070225002915DA0821884388
:10BE3000A06004214020F6F789FF012806D000F019
:10BE4000FFFD00210120FBF7D1FB5BE000F030F9A2
:10BE50000028DFD1E560F8BD81073ED504214020F0
:10BE6000F6F774FF014646480646FF364136374628
:10BE70001037012919D0A0680121A843A060032030
:10BE8000FBF7B4FB414C2089FDF7C4F8B189384673
:10BE900000F09EFD6089FDF7BDF800210320FBF74F
:10BEA000A5FB009800F088FD2CE005214020F6F766
:10BEB000A7FF0028CFD1A0680121A843A0600320DC
:10BEC000FBF794FBB1893846FEF73CFA00210320CA
:10BED000FBF78CFB009813E050E0810603D520218E
:10BEE0008843A0600EE04106B5D540218843A0609C
:10BEF00008E0A068C10708D040084000A0602846BC
:10BF000000F05AFDFFF78EFEF8BDC106FCD51021EA
:10BF10008843A060284600F04FFDFFF783FEF8BD80
:10BF20001B480121077F0420FBF760FBA66000F09F
:10BF300051FB284600F040FD009800F03DFD154DF6
:10BF4000E86DF5F72AFC1449F5F72AFA0146384658
:10BF5000FEF705F9FEF75EFFE86DF5F71EFC0E49EA
:10BF6000F5F71EFA01460020FEF7F9F8FEF760FF2C
:10BF700000210420FBF73AFBE660F8BDE660F8BD5F
:10BF8000F8100020A00300200C010020FC0000207D
:10BF9000381400207C00002000007A44F0B50646EA
:10BFA000344887B0006801284BD133480168002924
:10BFB00047D1B10741D54068304D314C00282CD0D5
:10BFC00001283ED12F4805902F48807C002826D09C
:10BFD000E01CF7F7FFFB07461138EF2831D20F219D
:10BFE00038070907C8422CD1E078002829D0102250
:10BFF000264901A8F5F7B8F87F1E102301AA2449A5
:10C00000201D0097FCF760FF00281AD1E278204934
:10C010000598F5F7A9F8E07808E01E48D3E70598F9
:10C02000F7F7D8FB00280CDDFF280ADC12490124B1
:10C030004968012907D0A8802C600E4881683143E7
:10C04000816007B0F0BD0228FBDD134B1349DA789D
:10C05000FF2A0AD08F7BBA42F3D11A79C97B8A4270
:10C06000EFD1801EA8802C60E7E7897BFF29F8D0FC
:10C0700007B0F0BDF81000207C0000204012002026
:10C080004813002046120020DC000020EF000020B2
:10C09000F80F002048120020FC0000203812002079
:10C0A000024810228168114381607047F810002017
:10C0B000F0B54A4C89B02046FF2148300131403468
:10C0C000019000F0A5FCA08045480068002804D13C
:10C0D0004448FDF78DFC002804D000210120FBF727
:10C0E00085FA03E001210846FBF780FA3E4D002760
:10C0F0006869002802D0012813D018E0A08803281E
:10C1000015D1E77239A10198F5F752F800280ED041
:10C11000012137A0FEF716F901206861801E09B0E1
:10C12000F0BDA088012802D1207A61281DD02B48BB
:10C130006F6181684908490081602E48807C002831
:10C1400022D02D4DA088F9F71BFE064610222B4960
:10C1500004A8F5F709F8102304AA291D00960198F0
:10C16000FDF7ACFB00281DD109E0042124A0FEF757
:10C17000E9F8FFF707FCFFF7B1FC6F6112E02079E7
:10C18000E870ED1C761C01E0A688019D00F050FAD5
:10C19000002807D1F1B2284600F014FA002805D093
:10C1A00000F02AFA0020C04309B0F0BDA188019830
:10C1B000FFF736FD31461448FDF7DCFD7D21C9004F
:10C1C0004418124800F0F8FB114B00222146114898
:10C1D000009700F0DDFB002009B0F0BDF810002052
:10C1E0004C00002058000020381400202B2B2B007E
:10C1F00061000000DC00002048130020EF00002058
:10C200004F4B0D0A000000000C01002020110020FF
:10C21000A1C000000811002010B50E4C20680128B4
:10C2200012D10D48006800280ED10C48FDF7E0FB44
:10C23000002809D104214020F6F788FD002804D009
:10C24000A06808210843A06010BD0448FDF7CAFBA0
:10C2500010BD0000F81000207C00002058000020D5
:10C26000F0B593B004460020079008901C22694660
:10C27000606BFDF765F9002105236A460420C500BF
:10C28000ED08555D002D02D0491C401EF7D2581A0A
:10C290002060039EE660711C05D0012189028E4258
:10C2A00001D8142E0FD21C21E160052806D023608E
:10C2B000052306226946606B00F071FC00202071A6
:10C2C000022013B0F0BD3046FF382049EE388842D6
:10C2D00000D2FEE70025143E17D028462030B04299
:10C2E00001D2202700E0771B2846616B1430081824
:10C2F0003A460AA9FDF724F93A460AA90798FCF735
:10C300004DFFED190790B542E7D304990798814294
:10C3100005D0002020710220089013B0F0BD01204C
:10C320002071656B6846027D21461C351431284614
:10C33000FDF706F96846007D4019A0630698206164
:10C340006846007D6071089813B0F0BD13020000CC
:10C35000F7B50546A6B0002016900C46E80500D0BB
:10C36000FEE7002C11D014220FA92846FDF7E8F8AB
:10C37000E56011986E492061884207D00020207046
:10C38000401E6061072029B0F0BDFEE7012020704B
:10C3900012980021032660610FAB0220C200D20870
:10C3A0009A5C002A02D0491C401EF7D2721A002162
:10C3B00003270220DB1C6260C600F6089E5D002E8B
:10C3C00002D0491C401EF7D2781AA0602898002895
:10C3D0007CD0002628461430FF23ED33A661E061AF
:10C3E000012A02D0022A02D09EE0A3619CE05149BA
:10C3F00020460A681C30AA4203D1002823D049688D
:10C4000005E08A68AA4204D100281CD0C9680160EE
:10C4100019E00A69AA4203D1002814D04969F6E755
:10C420008A69AA4203D100280DD0C969EFE700202C
:10C43000C043A3610D9069462046FDF725FC0D9091
:10C44000401C0AD12CE0E168E069411A0120400259
:10C45000401AA061169829B0F0BD6846FFF700FFAA
:10C460006846007900280CD10098012809D00528D9
:10C4700007D031A00D99FDF735F80220A66116907E
:10C480000EE0E06903994018E061A0690399401A41
:10C49000A06169462046FDF7F7FB0D90401CDCD1FA
:10C4A000E768E569FF37FF37002602371995BD4277
:10C4B0002CD2284620301A90B84208D220200246BA
:10C4C0001B901EA92846FDF73BF80AE02CE0781BDC
:10C4D00002461B901EA92846FDF732F81B9800283B
:10C4E0000ED01B9A1EA80021FF2E04D00378FF2B2C
:10C4F00001D16B1819930678401C491C521EF3D1C8
:10C500001A9DBD42D5D3FF2E00D1199FE069B842D4
:10C5100006D0E761E068391A01204002401AA061A4
:10C52000E169E06800F0E4FA169829B0F0BD000077
:10C5300045463430140700204572726F723A205419
:10C54000686520454E5620284030782530385829D7
:10C5500020435243333220636865636B2066616910
:10C560006C6564210A00000010B500210120F7F776
:10C57000B3FD00210320F7F7AFFD10BD10B5032078
:10C58000F7F77BFD0120F7F778FD00210320F7F78F
:10C59000A3FD00210120F7F79FFD10BD10B500217C
:10C5A0000120F7F799FD01210320F7F795FD10BD54
:10C5B00010B500210320F7F78FFD01210846F7F79A
:10C5C0008BFD10BD10B5F7F74DF9002800D0012004
:10C5D00010BD000010B5034800698047F6F740FD24
:10C5E00010BD00000404002010B5FCF713FD10BDC1
:10C5F00010B5FCF729FD10BD10B50420F7F7E0FDDC
:10C60000002811D10948C06880470620F7F7E5FFE8
:10C61000002809D10220F7F74FFE002804D1062098
:10C62000F7F7CEFD002800D0012010BD0404002043
:10C6300010B50420F7F7C4FD00280CD10748806826
:10C6400080470520F7F7C9FF002804D10120F7F73C
:10C650008DFE002800D0012010BD00000404002041
:10C6600010B504460420F7F7ABFD002816D10C489E
:10C67000C16888470620F7F7B0FF00280ED10120D7
:10C68000F7F71AFE002809D12046F7F749FE0028DF
:10C6900004D10620F7F794FD002800D0012010BD3A
:10C6A0000404002010B5F6F719FD00280CD1F6F7A8
:10C6B0003FFE002808D10120F6F756FC002803D1E0
:10C6C000F6F710FC002801D0012010BD02480068D8
:10C6D0008047002010BD00000404002010B5F7F7CB
:10C6E00059F810BD10B5F6F752FC10BD10B5F6F7AD
:10C6F0006EFC10BD10B5F7F727FA10BD10B5F7F7AF
:10C7000028FD10BD10B5F7F75BFD10BD70B50546EF
:10C710000C460420F7F754FD062D20D2280078445B
:10C7200000790018874402060A0E12162046F7F711
:10C7300023FA12E0E0B2F7F7D5F90EE02046F7F75A
:10C740000AF90AE02046F7F7CEFD06E0E0B2F7F777
:10C7500026FE02E02046F7F7DEF9F7F75BF8002047
:10C7600070BD704770470000F8B513A0002501A9FF
:10C770000090FAF7DDFE154CE06800281AD928462B
:10C7800054214843A1680646411811A0FAF746F81B
:10C79000A0683018016C002903D00DA0FAF748F802
:10C7A00004E00A220D210BA0FAF738F8E0686D1CAE
:10C7B0008542E4D3F8BD0000436F6D6D616E647314
:10C7C000206C697374203A200000000010000020E3
:10C7D000257300002563256300000000FFB581B0CC
:10C7E00004460D460020C0430B9F0A9E1C49E06092
:10C7F00048680090401C2AD0002221460098FFF78C
:10C80000A7FD002D02D06068A8420ED1002F04D0F1
:10C810003A4621460098FFF79BFD002E05D02046A2
:10C82000049A0399B047002811D1E068411C10D048
:10C8300061694A1C10D04902401809494A6801211F
:10C8400089025118884202D20090401CD4D105B010
:10C85000F0BD03484068F7E7FF30FF300230ECE7F7
:10C860002C0000200378002B0CD04068012802D057
:10C87000022804D006E00868401C086002E0106846
:10C88000401C106000207047F8B501218E46134906
:10C890000A68511E00917146002919D0012501290D
:10C8A00016DB13464B431E18C15C8C460121012A3E
:10C8B00007DD44184F1E491C1C5DC9B2F455914256
:10C8C000F7DB009C614631556D1C71467545EBDD0B
:10C8D000491CC9B28E460429DDD3F8BD9001002061
:10C8E00010B501210148F8F781F810BD000800409B
:10C8F00010B500210148F8F779F810BD0008004094
:10C9000070B50B4C054604212046F8F753F8002873
:10C91000F9D029462046F8F766F802212046F8F7B4
:10C9200049F80028F9D02046F8F75AF870BD000001
:10C930000008004010B502480068FDF749FF10BD2F
:10C940000C00002070B5114D2868FDF73FFF040072
:10C950001AD0F6F7C1FA6168401AA168401C8142FA
:10C960000FD26069002803D0F6F7B6FA606003E0E2
:10C9700021462868FDF72FFFE168002901D02069D2
:10C9800088472468002CE4D170BD00000C00002012
:10C9900010B5040002980BD0E3606261A1602061D1
:10C9A000F6F79AFA6060034821460068FDF7E8FE52
:10C9B00010BD00000C000020002806D0014610B574
:10C9C00002480068FDF707FF10BD70470C0000200B
:10C9D00070B403460D4E01203070481E411C11D02A
:10C9E00001229207022110251C7814601469A40703
:10C9F000FCD554698C43546154682C4354605B1CCF
:10CA0000401EF1D20021317070BC70473D00002003
:10CA1000F8B500250E4607462C4600290CDD0748D0
:10CA2000FCF7E6FF002807D10448FCF7FDFF385566
:10CA3000641C6D1CB442F2DB2846F8BD580000208F
:10CA400010B50248FCF7CEFF10BD000058000020D2
:10CA5000F8B515460A461026014637460020FCF771
:10CA60009DFB010C20480024844620486A1C1AD0F3
:10CA7000E200835A8B4203D1E10008184560F8BDFB
:10CA800013185A68521C0AD05A88002A01D0521E24
:10CA90005A8092B2624512D2274694460FE0102E79
:10CAA0000DD126460BE0E200825A8A4207D10021CE
:10CAB000E200C9431018416000214180F8BD641CA8
:10CAC000102CD3D3102E06D2F3001A185560C15281
:10CAD00000205080F8BD102FFCD2FA0013185D60C2
:10CAE000815200205880F8BDFFFF0000940600200E
:10CAF000F0B4C51D04240022FF35144BFA358142E1
:10CB00000FD9A9420DD2D700DE59864203D1D200F7
:10CB10009850F81817E0761C0DD1042C0BD1144650
:10CB200009E0D6009E59864205D10020C043D100BD
:10CB30005850F0BC7047521C042AE0D3042CF8D2A1
:10CB4000E2009850D0184160F0BC704714070020F4
:10CB500010B504460420F7F733FB00202168FFF7E7
:10CB6000D5FD21790120FFF7D1FD61790220FFF782
:10CB7000CDFDA1790320FFF7C9FDE1790420FFF77E
:10CB8000C5FD217A0520FFF7C1FD607AFFF7B6FDEC
:10CB9000A089F7F71EFBA07BFFF7ACFD10BD70B5B9
:10CBA0000D460646934200D3FEE7002D12D0D0007A
:10CBB000401EC1081C46FF222846F4F7E7FA231E50
:10CBC00009D05C1E00212955291930190122FCF7D2
:10CBD000D2FC70BDFEE7002070BD00000080009612
:10CBE00000093D0000127A000024F4004086510143
:10CBF00000366E0104000000030000000000000089
:10CC0000963007772C610EEEBA51099919C46D0759
:10CC10008FF46A7035A563E9A395649E3288DB0EB4
:10CC2000A4B8DC791EE9D5E088D9D2972B4CB60997
:10CC3000BD7CB17E072DB8E7911DBF906410B71D74
:10CC4000F220B06A4871B9F3DE41BE847DD4DA1AAD
:10CC5000EBE4DD6D51B5D4F4C785D38356986C13DE
:10CC6000C0A86B647AF962FDECC9658A4F5C011457
:10CC7000D96C0663633D0FFAF50D088DC8206E3B35
:10CC80005E10694CE44160D5727167A2D1E4033C47
:10CC900047D4044BFD850DD26BB50AA5FAA8B5356E
:10CCA0006C98B242D6C9BBDB40F9BCACE36CD8325D
:10CCB000755CDF45CF0DD6DC593DD1ABAC30D92604
:10CCC0003A00DE518051D7C81661D0BFB5F4B42107
:10CCD00023C4B3569995BACF0FA5BDB89EB8022804
:10CCE0000888055FB2D90CC624E90BB1877C6F2F89
:10CCF000114C6858AB1D61C13D2D66B69041DC7684
:10CD00000671DB01BC20D2982A10D5EF8985B1715C
:10CD10001FB5B606A5E4BF9F33D4B8E8A2C907780B
:10CD200034F9000F8EA8099618980EE1BB0D6A7FA2
:10CD30002D3D6D08976C6491015C63E6F4516B6B5B
:10CD400062616C1CD83065854E0062F2ED95066C10
:10CD50007BA5011BC1F4088257C40FF5C6D9B06585
:10CD600050E9B712EAB8BE8B7C88B9FCDF1DDD62E2
:10CD7000492DDA15F37CD38C654CD4FB5861B24D48
:10CD8000CE51B53A7400BCA3E230BBD441A5DF4A12
:10CD9000D795D83D6DC4D1A4FBF4D6D36AE96943D5
:10CDA000FCD96E34468867ADD0B860DA732D044480
:10CDB000E51D03335F4C0AAAC97C0DDD3C710550AB
:10CDC000AA41022710100BBE86200CC925B5685752
:10CDD000B3856F2009D466B99FE461CE0EF9DE5E9B
:10CDE00098C9D9292298D0B0B4A8D7C7173DB3594C
:10CDF000810DB42E3B5CBDB7AD6CBAC02083B8EDDD
:10CE0000B6B3BF9A0CE2B6039AD2B1743947D5EAE9
:10CE1000AF77D29D1526DB048316DC73120B63E318
:10CE2000843B64943E6A6D0DA85A6A7A0BCF0EE477
:10CE30009DFF099327AE000AB19E077D44930FF032
:10CE4000D2A3088768F2011EFEC206695D5762F729
:10CE5000CB67658071366C19E7066B6E761BD4FE66
:10CE6000E02BD3895A7ADA10CC4ADD676FDFB9F943
:10CE7000F9EFBE8E43BEB717D58EB060E8A3D6D605
:10CE80007E93D1A1C4C2D83852F2DF4FF167BBD133
:10CE90006757BCA6DD06B53F4B36B248DA2B0DD836
:10CEA0004C1B0AAFF64A0336607A0441C3EF60DFD9
:10CEB00055DF67A8EF8E6E3179BE69468CB361CBC2
:10CEC0001A8366BCA0D26F2536E2685295770CCCE7
:10CED00003470BBBB91602222F260555BE3BBAC528
:10CEE000280BBDB2925AB42B046AB35CA7FFD7C219
:10CEF00031CFD0B58B9ED92C1DAEDE5BB0C2649B0A
:10CF000026F263EC9CA36A750A936D02A906099C3C
:10CF10003F360EEB8567077213570005824ABF95AF
:10CF2000147AB8E2AE2BB17B381BB60C9B8ED29232
:10CF30000DBED5E5B7EFDC7C21DFDB0BD4D2D38689
:10CF400042E2D4F1F8B3DD686E83DA1FCD16BE81FC
:10CF50005B26B9F6E177B06F7747B718E65A0888CD
:10CF6000706A0FFFCA3B06665C0B0111FF9E658F5E
:10CF700069AE62F8D3FF6B6145CF6C1678E20AA008
:10CF8000EED20DD75483044EC2B30339612667A78E
:10CF9000F71660D04D476949DB776E3E4A6AD1AEDD
:10CFA000DC5AD6D9660BDF40F03BD83753AEBCA96C
:10CFB000C59EBBDE7FCFB247E9FFB5301CF2BDBDD9
:10CFC0008AC2BACA3093B353A6A3B4240536D0BAE2
:10CFD0009306D7CD2957DE54BF67D9232E7A66B37F
:10CFE000B84A61C4021B685D942B6F2A37BE0BB42C
:10CFF000A18E0CC31BDF055A8DEF022D00D6000059
:10D00000FCD500000000000080FFB817C041C81721
:10D010000084D71740C6E6178008F617C04A0518DF
:10D02000008D141840CF231880113318C0534218B4
:10D030000096511840D86018801A7018C05C7F188C
:10D04000009F8E1840E19D188023AD18C065BC1864
:10D0500000A8CB1840EADA18802CEA18C06EF9183C
:10D0600000B1081940F3171980352719C077361910
:10D0700000BA451940FC5419803E6419C0807319E8
:10D0800000C38219400592198047A119C089B019BF
:10D0900000CCBF19400ECF198050DE19C092ED1997
:10D0A00000D5FC1940170C1A80591B1AC09B2A1A6C
:10D0B00000DE391A4020491A8062581AC0A4671A43
:10D0C00000E7761A4029861A806B951AC0ADA41A1B
:10D0D00000F0B31A4032C31A8074D21AC0B6E11AF3
:10D0E00000F9F01A403B001B807D0F1BC0BF1E1BC8
:10D0F00000022E1B40443D1B80864C1BC0C85B1B9E
:10D10000000B6B1B404D7A1B808F891BC0D1981B75
:10D110000014A81B4056B71B8098C61BC0DAD51B4D
:10D12000001DE51B405FF41B80A1031CC0E3121C23
:10D130000026221C4068311C80AA401CC0EC4F1CF9
:10D14000002F5F1C40716E1C80B37D1CC0F58C1CD1
:10D1500000389C1C407AAB1C80BCBA1CC0FEC91CA9
:10D160000041D91C4083E81C80C5F71CC007071D7F
:10D17000004A161D408C251D80CE341DC010441D54
:10D180000053531D4095621D80D7711DC019811D2C
:10D19000005C901D409E9F1D80E0AE1DC022BE1D04
:10D1A0000065CD1D40A7DC1D80E9EB1DC02BFB1DDC
:10D1B000006E0A1E40B0191E80F2281EC034381EB0
:10D1C0000077471E40B9561E80FB651EC03D751E88
:10D1D0000080841E40C2931E8004A31EC046B21E5F
:10D1E0000089C11E40CBD01E800DE01EC04FEF1E37
:10D1F0000092FE1E40D40D1F80161D1FC0582C1F0C
:10D20000009B3B1F40DD4A1F801F5A1FC061691FE2
:10D2100000A4781F40E6871F8028971FC06AA61FBA
:10D2200000ADB51F40EFC41F8031D41FC073E31F92
:10D2300000B6F21F40F80120803A1120C07C202067
:10D2400000BF2F2040013F2080434E20C0855D203D
:10D2500000C86C20400A7C20804C8B20C08E9A2015
:10D2600000D1A9204013B9208055C820C097D720ED
:10D2700000DAE620401CF620805E0521C0A01421C3
:10D2800000E323214025332180674221C0A9512199
:10D2900000EC6021402E702180707F21C0B28E2171
:10D2A00000F59D214037AD218079BC21C0BBCB2149
:10D2B00000FEDA214040EA218082F921C0C4082220
:10D2C0000007182240492722808B3622C0CD4522F4
:10D2D000001055224052642280947322C0D68222CC
:10D2E00000199222405BA122809DB022C0DFBF22A4
:10D2F0000022CF224064DE2280A6ED22C0E8FC227C
:10D30000002B0C23406D1B2380AF2A23C0F139234F
:10D31000003449234076582380B86723C0FA762327
:10D32000003D8623407F952380C1A423C003B423FE
:10D330000046C3234088D22380CAE123C00CF123D6
:10D34000004F002440910F2480D31E24C0152E24AA
:10D3500000583D24409A4C2480DC5B24C01E6B2482
:10D3600000617A2440A3892480E59824C027A8245A
:10D37000006AB72440ACC62480EED524C030E52432
:10D380000073F42440B5032580F71225C039222507
:10D39000007C312540BE402580005025C0425F25DD
:10D3A00000856E2540C77D2580098D25C04B9C25B5
:10D3B000008EAB2540D0BA258012CA25C054D9258D
:10D3C0000097E82540D9F725801B0726C05D162663
:10D3D00000A0252640E2342680244426C066532639
:10D3E00000A9622640EB7126802D8126C06F902611
:10D3F00000B29F2640F4AE268036BE26C078CD26E9
:10D4000000BBDC2640FDEB26000000000000000011
:10D41000000000000000000000000000000000000C
:10D4200000007A420000FA4200007A430000FA430A
:10D43000009200010C06010D01010B0602E801013A
:10D440000A06031902010B07046F0301090605D13F
:10D4500003010A0706DE0601090707350C01080764
:10D46000086A180108080945040107080A735501EC
:10D47000070900000000000000000000000000009C
:10D4800000000000000000000000000000007A42E0
:10D490000000FA4200007A430000FA430000000056
:10D4A00004FA97999999D93FAF788E1DC571CC3FF1
:10D4B0009FC678D0099AC33F935555555555E53FBA
:10D4C000599322942449D23FDE03CB966446C73F4A
:10D4D00044523EDF12F1C23F000000000000000095
:10D4E000DDDDDDDDDCBBBBDDDDDDDDDDDDDDDDDDB1
:10D4F00098888888888888887777777777888888F1
:10D500008555555666666666666666666668888888
:10D510008333333222222222222222222228888D81
:10D52000596F752063616E2067657420746865208B
:10D530006C61746573742076657273696F6E206FA9
:10D540006E2068747470733A2F2F676974687562FF
:10D550002E636F6D2F61726D696E6B2F45617379EC
:10D56000466C617368202E0A000000005761726EDD
:10D57000696E673A20536563746F722068656164F1
:10D58000657220636865636B206661696C65642EF3
:10D5900020466F726D6174207468697320736563CF
:10D5A000746F722028307825303878292E0A0000D0
:10D5B000466F756E6420616E20454E562028252EDC
:10D5C0002A7329207768696368206861732063681B
:10D5D000616E6765642076616C7565206661696C53
:10D5E00065642E204E6F772077696C6C20726563BE
:10D5F0006F766572792069742E0A00003030310030
:10D6000074657374000000003D3C76616C75653E86
:10D61000000000003D3C7061796C6F61646C656E68
:10D620003E0000003D3C62617564726174653A3988
:10D630003630302C31393230302C33383430302CD5
:10D6400035373630302C3131353230303E2C3C6479
:10D650006174616269743A372C382C393E2C3C7302
:10D66000746F706269743A312C323E2C3C70617276
:10D670006974793A6E6F6E652D302C6F64642D314C
:10D680002C6576656E2D323E000000003D3C7266D2
:10D6900020726563762074696D656F75743A3130F8
:10D6A00030307E31353030306D733E003D3C776137
:10D6B0006B6575702074696D653A3130307E353038
:10D6C00030306D733B6966206974206973207A6518
:10D6D000726F2C6974206D65616E7320746861745B
:10D6E0002077616B657570206D6F646520697320AC
:10D6F00064697361626C65643E0000003D3C756165
:10D700007274207061636B696E6720696E746572F4
:10D7100076616C3A317E3130306D733E000000002E
:10D720003D3C6368616E6E656C3A307E3235353EE5
:10D73000000000003D3C66303E2C3C66313E2C3CF7
:10D7400066323E2C3C66333E2C3C66343E2C3C66B6
:10D75000353E2C3C66363E2C3C66373E00000000D1
:10D760003D3C726174653A312D302E326B2C322D76
:10D77000302E346B2C332D302E356B2C342D302E37
:10D78000396B2C352D316B2C362D312E376B2C37D8
:10D790002D333132352C382D362E32356B2C392D38
:10D7A00031302E396B2C31302D32312E386B3E001A
:10D7B0003D3C707265616D626C65206C656E3A30DF
:10D7C0007E36353533353E003D3C707265616D62A5
:10D7D0006C652074696D653A307E31303030306D63
:10D7E000733E00003D3C667265713A333938303023
:10D7F000303030307E3930303030303030303E00F4
:10D800003D3C636F6465726174653A312D435234F7
:10D81000352C322D435234362C332D435234372C91
:10D82000342D435234383E003D3C62616E6477696A
:10D8300074683A362D36322E356B2C372D31323511
:10D840006B2C382D3235306B2C392D3530306B3E0A
:10D85000000000003D3C53463A377E31323E000026
:10D860003D3C7478706F7765725B307E32395D3E17
:10D87000000000003D3C6C6F772064617461207291
:10D880006174653A302D4F46462C312D4F4E3E0087
:10D890003D3C6372633A302D4F46462C312D4F4E3E
:10D8A0003E0000003D3C646364633A302D4F4646C1
:10D8B0002C312D4F4E3E00003D3C6D6F6465726D06
:10D8C0003A312D6E6F726D616C2C322D6D756C74EA
:10D8D000793E00003D3C41646472303A307E32351E
:10D8E000353E2C3C41646472313A307E3235353EEF
:10D8F000000000003D3C686561642074696D653A14
:10D90000307E3235353E2C3C7461696C2074696D13
:10D91000653A307E3235353E000000003D3C617591
:10D92000785F6D6F64653A656D7074796D6F64656D
:10D930003A302C66756C6C6D6F64653A313E000050
:10D940003D3C6E6F64652069643A307E3635353310
:10D95000353E00003D3C6170702069643A307E3293
:10D9600035353E003D3C67617465776179206964B7
:10D970003A307E3235353E003D3C434C4153533ABC
:10D98000302D412C312D422C322D433E0000000021
:10D990003D3C776F726B6D6F64653A302D5054204B
:10D9A0006D6F64652C312D4E4554206D6F64653E5E
:10D9B000000000003D3C636C6173733A302D706170
:10D9C0007373207468726F7567682C312D706F697E
:10D9D0006E7420746F20706F696E743E00000000DA
:10D9E0003D3C656E61626C653A302D4F46462C3188
:10D9F0002D4F4E3E000000003D3C4B65793A3136DC
:10DA00002048455820537472696E673E000000003C
:10DA10003D3C656E61626C653A302D4F46462C3157
:10DA20002D4F4E3E2C3C736C656570206D733E002F
:10DA30003D3C667265713A333938303030303030C1
:10DA40007E3930303030303030303E2C3C63723AEA
:10DA5000317E343E2C3C62773A367E393E2C3C7324
:10DA6000663A377E31323E2C3C7478703A307E32E2
:10DA7000393E2C3C6372633A302F313E2C3C6C6F44
:10DA80007764723A302F313E2C3C6D6F64656D4D7A
:10DA90006F64653A312F323E2C3C707265616D6265
:10DAA0006C653E2C3C646364633A302F313E000069
:10DAB0003D3C61736320737472696E673E000000C1
:10DAC0003D3C68657820737472696E673E000000A3
:10DAD0003D3C6E657420646174612061636B3A3013
:10DAE0002D4F46462C312D4F4E3E00003D3C61638C
:10DAF0006B3A302F313E00003D3C636172727977A2
:10DB00006176653A302F313E000000003D3C726581
:10DB100063762077696E646F773A317E35303030C6
:10DB20006D733E0000EC0000000000203C0400008B
:10DB3000C426000050EF00003C040020D417000071
:10DB400012540000415400000000000000000000DA
:10DB500000000000000000000000000000000000C5
:10DB600000000000000000000000000000000000B5
:10DB700000000000000000000000000000000000A5
:10DB80000000000000000000000000000000000095
:10DB9000000000000B5E000041542B5A0000000002
:10DBA0000000000000000000000000000000000075
:10DBB0000000000000000000000000000000000065
:10DBC0000000000000000000000000000000000055
:10DBD0000000000000000000000000000000000045
:10DBE0000000000000000000D575000041542B52D9
:10DBF00045534554000000000000000000000000F4
:10DC00000000000000000000000000000000000014
:10DC10000000000000000000000000000000000004
:10DC200000000000000000000000000000000000F4
:10DC3000000000000000000000000000A5660000D9
:10DC400041542B45000000000000000000000000CF
:10DC500000000000000000000000000000000000C4
:10DC600000000000000000000000000000000000B4
:10DC700000000000000000000000000000000000A4
:10DC800008D600000000000085750000A1750000A6
:10DC9000000000004154264C00000000000000007D
:10DCA0000000000000000000000000000000000074
:10DCB0000000000000000000000000000000000064
:10DCC0000000000000000000000000000000000054
:10DCD0000000000000000000000000000000000044
:10DCE000000000001574000041542B5054494D456C
:10DCF0000000000000000000000000000000000024
:10DD00000000000000000000000000000000000013
:10DD10000000000000000000000000000000000003
:10DD2000000000000000000014D600000000000009
:10DD300000000000616100000000000041542B550C
:10DD400041525400000000000000000000000000EC
:10DD500000000000000000000000000000000000C3
:10DD600000000000000000000000000000000000B3
:10DD700000000000000000000000000024D60000A9
:10DD80000000000021740000597400000000000031
:10DD900041542B454E544D0000000000000000008F
:10DDA0000000000000000000000000000000000073
:10DDB0000000000000000000000000000000000063
:10DDC0000000000000000000000000000000000053
:10DDD0000000000000000000000000000000000043
:10DDE000FD5D000041542B534156450000000000EA
:10DDF0000000000000000000000000000000000023
:10DE00000000000000000000000000000000000012
:10DE10000000000000000000000000000000000002
:10DE200000000000000000000000000000000000F2
:10DE300000000000F35D000041542B44454641556D
:10DE40004C54000000000000000000000000000032
:10DE500000000000000000000000000000000000C2
:10DE600000000000000000000000000000000000B2
:10DE700000000000000000000000000000000000A2
:10DE80000000000000000000A564000041542B5673
:10DE900045520000000000000000000000000000EB
:10DEA0000000000000000000000000000000000072
:10DEB0000000000000000000000000000000000062
:10DEC0000000000000000000000000000000000052
:10DED00000000000316400000000000000000000AD
:10DEE00041542B4E414D4500000000000000000051
:10DEF0000000000000000000000000000000000022
:10DF00000000000000000000000000000000000011
:10DF10000000000000000000000000000000000001
:10DF20000000000000000000196100000000000077
:10DF30000000000041542B52544F0000000000002C
:10DF400000000000000000000000000000000000D1
:10DF500000000000000000000000000000000000C1
:10DF600000000000000000000000000000000000B1
:10DF7000000000008CD6000000000000AD6300002F
:10DF8000797200000000000041542B525847415361
:10DF90000000000000000000000000000000000081
:10DFA0000000000000000000000000000000000071
:10DFB0000000000000000000000000000000000061
:10DFC0000000000000000000ACD6000000000000CF
:10DFD0002D600000D97300000000000041542B5553
:10DFE000415254494E54000000000000000000005F
:10DFF0000000000000000000000000000000000021
:10E000000000000000000000000000000000000010
:10E01000000000000000000000000000FCD600002E
:10E0200000000000116400007D730000000000008B
:10E0300041542B4348000000000000000000000095
:10E0400000000000000000000000000000000000D0
:10E0500000000000000000000000000000000000C0
:10E0600000000000000000000000000000000000B0
:10E0700020D7000000000000AD5E0000F16C000041
:10E080000000000041542B554348000000000000F0
:10E090000000000000000000000000000000000080
:10E0A0000000000000000000000000000000000070
:10E0B0000000000000000000000000000000000060
:10E0C0000000000034D7000000000000195F0000CD
:10E0D000A16D00000000000041542B4443480000A3
:10E0E0000000000000000000000000000000000030
:10E0F0000000000000000000000000000000000020
:10E10000000000000000000000000000000000000F
:10E11000000000000000000034D7000000000000F4
:10E12000C95E0000356D00000000000041542B5214
:10E130004154450000000000000000000000000005
:10E1400000000000000000000000000000000000CF
:10E1500000000000000000000000000000000000BF
:10E1600000000000000000000000000060D7000078
:10E1700000000000056300005D7100000000000069
:10E1800041542B505245414D4C454E00000000007B
:10E19000000000000000000000000000000000007F
:10E1A000000000000000000000000000000000006F
:10E1B000000000000000000000000000000000005F
:10E1C000B0D7000000000000A1620000C570000090
:10E1D0000000000041542B505245414D424C450037
:10E1E000000000000000000000000000000000002F
:10E1F000000000000000000000000000000000001F
:10E20000000000000000000000000000000000000E
:10E2100000000000C8D7000000000000C562000038
:10E22000ED7000000000000041542B4652455100A3
:10E2300000000000000000000000000000000000DE
:10E2400000000000000000000000000000000000CE
:10E2500000000000000000000000000000000000BE
:10E260000000000000000000E4D7000000000000F3
:10E270000D6000001D6F00000000000041542B43A2
:10E28000520000000000000000000000000000003C
:10E29000000000000000000000000000000000007E
:10E2A000000000000000000000000000000000006E
:10E2B00000000000000000000000000000D8000086
:10E2C00000000000795F00000D6E000000000000FB
:10E2D00041542B42570000000000000000000000E5
:10E2E000000000000000000000000000000000002E
:10E2F000000000000000000000000000000000001E
:10E30000000000000000000000000000000000000D
:10E3100028D8000000000000915E0000696C000039
:10E320000000000041542B53460000000000000094
:10E3300000000000000000000000000000000000DD
:10E3400000000000000000000000000000000000CD
:10E3500000000000000000000000000000000000BD
:10E360000000000054D8000000000000F563000029
:10E37000C97200000000000041542B5246504F5714
:10E3800045520000000000000000000000000000F6
:10E39000000000000000000000000000000000007D
:10E3A000000000000000000000000000000000006D
:10E3B000000000000000000060D800000000000025
:10E3C000816200004D7300000000000041542B4C9E
:10E3D00044520000000000000000000000000000A7
:10E3E000000000000000000000000000000000002D
:10E3F000000000000000000000000000000000001D
:10E4000000000000000000000000000074D80000C0
:10E41000000000009D600000CD6F000000000000C3
:10E4200041542B4352430000000000000000000054
:10E4300000000000000000000000000000000000DC
:10E4400000000000000000000000000000000000CC
:10E4500000000000000000000000000000000000BC
:10E4600090D8000000000000955F0000356E0000AD
:10E470000000000041542B444344430000000000CE
:10E48000000000000000000000000000000000008C
:10E49000000000000000000000000000000000007C
:10E4A000000000000000000000000000000000006C
:10E4B00000000000A4D8000000000000D15F0000B0
:10E4C000AD6E00000000000041542B4D4F44454DFF
:10E4D0004D4F444500000000000000000000000017
:10E4E000000000000000000000000000000000002C
:10E4F000000000000000000000000000000000001C
:10E500000000000000000000B8D80000000000007B
:10E51000B9600000097000000000000041542B5257
:10E52000464144445200000000000000000000008A
:10E5300000000000000000000000000000000000DB
:10E5400000000000000000000000000000000000CB
:10E55000000000000000000000000000D4D800000F
:10E560000000000025630000AD7100000000000005
:10E5700041542B4155585400000000000000000099
:10E58000000000000000000000000000000000008B
:10E59000000000000000000000000000000000007B
:10E5A000000000000000000000000000000000006B
:10E5B000F4D80000000000006D5E0000256C000033
:10E5C0000000000041542B4155584D000000000050
:10E5D000000000000000000000000000000000003B
:10E5E000000000000000000000000000000000002B
:10E5F000000000000000000000000000000000001B
:10E60000000000001CD90000000000004D5E00006A
:10E61000F96B00000000000041542B4E49440000FB
:10E6200000000000000000000000000000000000EA
:10E6300000000000000000000000000000000000DA
:10E6400000000000000000000000000000000000CA
:10E65000000000000000000040D9000000000000A1
:10E66000FD600000657000000000000041542B4177
:10E67000494400000000000000000000000000000D
:10E68000000000000000000000000000000000008A
:10E69000000000000000000000000000000000007A
:10E6A00000000000000000000000000054D900003D
:10E6B00000000000315E0000C96B00000000000097
:10E6C00041542B475749440000000000000000005F
:10E6D000000000000000000000000000000000003A
:10E6E000000000000000000000000000000000002A
:10E6F000000000000000000000000000000000001A
:10E7000064D90000000000004D600000456F00006B
:10E710000000000041542B4E45544300000000000F
:10E7200000000000000000000000000000000000E9
:10E7300000000000000000000000000000000000D9
:10E7400000000000000000000000000000000000C9
:10E750000000000078D9000000000000DD6000002B
:10E76000397000000000000041542B574D4F4445C4
:10E770000000000000000000000000000000000099
:10E780000000000000000000000000000000000089
:10E790000000000000000000000000000000000079
:10E7A000000000000000000090D900000000000000
:10E7B000416100008D7000000000000041542B50AA
:10E7C00054430000000000000000000000000000B2
:10E7D0000000000000000000000000000000000039
:10E7E0000000000000000000000000000000000029
:10E7F000000000000000000000000000B4D900008C
:10E8000000000000E9620000257100000000000027
:10E8100041542B454E430000000000000000000062
:10E8200000000000000000000000000000000000E8
:10E8300000000000000000000000000000000000D8
:10E8400000000000000000000000000000000000C8
:10E85000E0D9000000000000F15F0000E96E000058
:10E860000000000041542B4B4559000000000000FF
:10E870000000000000000000000000000000000098
:10E880000000000000000000000000000000000088
:10E890000000000000000000000000000000000078
:10E8A00000000000F8D90000000000006D600000CA
:10E8B000756F00000000000041542B534C4545503B
:10E8C0004D4F444500000000000000000000000023
:10E8D0000000000000000000000000000000000038
:10E8E0000000000000000000000000000000000028
:10E8F000000000000000000010DA0000000000002E
:10E9000000000000FD7200000000000041542B5286
:10E91000465F494E4954000000000000000000001E
:10E9200000000000000000000000000000000000E7
:10E9300000000000000000000000000000000000D7
:10E9400000000000000000000000000000000000C7
:10E9500000000000000000000000000001BC0000FA
:10E9600041542B52465F50415241000000000000CC
:10E970000000000000000000000000000000000097
:10E980000000000000000000000000000000000087
:10E990000000000000000000000000000000000077
:10E9A00030DA0000000000004D630000E571000057
:10E9B0000000000041542B545800000000000000EB
:10E9C0000000000000000000000000000000000047
:10E9D0000000000000000000000000000000000037
:10E9E0000000000000000000000000000000000027
:10E9F00000000000B0DA000000000000000000008D
:10EA0000356500000000000041542B54584845581B
:10EA100000000000000000000000000000000000F6
:10EA200000000000000000000000000000000000E6
:10EA300000000000000000000000000000000000D6
:10EA40000000000000000000C0DA0000000000002C
:10EA500000000000DD6500000000000041542B4F65
:10EA60005441000000000000000000000000000011
:10EA70000000000000000000000000000000000096
:10EA80000000000000000000000000000000000086
:10EA90000000000000000000000000000000000076
:10EAA00000000000000000000000000055640000AD
:10EAB00041542B4441434B00000000000000000083
:10EAC0000000000000000000000000000000000046
:10EAD0000000000000000000000000000000000036
:10EAE0000000000000000000000000000000000026
:10EAF000D0DA000000000000B15F0000716E00007D
:10EB00000000000041542B41434B54000000000022
:10EB100000000000000000000000000000000000F5
:10EB200000000000000000000000000000000000E5
:10EB300000000000000000000000000000000000D5
:10EB400000000000ECDA000000000000115E000090
:10EB5000816B00000000000041542B434152524998
:10EB6000455200000000000000000000000000000E
:10EB70000000000000000000000000000000000095
:10EB80000000000000000000000000000000000085
:10EB90000000000000000000F8DA000000000000A3
:10EBA00000000000916C00000000000041542B5256
:10EBB0005857494E0000000000000000000000000F
:10EBC0000000000000000000000000000000000045
:10EBD0000000000000000000000000000000000035
:10EBE0000000000000000000000000000CDB00003E
:10EBF00000000000C9630000A172000000000000D6
:10EC00001193093D220842204B7C0408012513C2C0
:10EC1000013205031790E862014B14085413A00C4D
:10EC20004C209C0B0C591B113202367777CDAB551B
:10EC30001AAA1630425035CF1960B6C019805EB29C
:10EC40001990DFA319B0879519C0088719E0B0782B
:10EC500019F0316A19502EE519E033F51980600575
:10EC60001A1066151AB092251A4098351AE0C44554
:10EC70001A70CA551A0723581B2D8813E803A03AA7
:10EC8000086A29A638140131323334353637383919
:10EC90003061626364656664641A3A0222180A404D
:10ECA0000ECF1904080719010E320802130A021BBD
:10ECB000031401020327090A0B088D7C23598923B9
:10ECC0000D7A23F9791AE5041AD1042369871A9970
:10ECD000041AED0423897B2A410C22881A51081A50
:10ECE00079201A21303204B2021053637C777BF210
:10ECF0006B6FC53001672BFED7AB76CA82C97DFA30
:10ED00005947F0ADD4A2AF9CA472C0B7FD9326368C
:10ED10003FF7CC34A5E5F171D8311504C723C318EA
:10ED200096059A071280E2EB27B27509832C1A1B0D
:10ED30006E5AA0523BD6B329E32F8453D100FF0073
:10ED4000ED20FCB15B6ACBBE394A4C58CFD0EFAA5C
:10ED5000FB434D338545F9027F503C9FA851A340AA
:10ED60008F929D38F5BCB6DA2110FFF3D2CD0C138B
:10ED7000EC5F974417C4A77E3D645D197360814FB3
:10ED8000DC222A908846EEB814DE5E0BDBE0323AD5
:10ED90000A4906245CC2D3AC629195E479E7C8378E
:10EDA0006D8DD54EA96C56F4EA657AAE08BA782511
:10EDB0002E1CA6B4C6E8DD741F4BBD8B8A703EB511
:10EDC000664803F60E613557B986C11D9EE1F89875
:10EDD0001169D98E949B1E87E9CE5528DF8CA189B5
:10EDE0000DBFE6426841992D0FB054BB1652096A17
:10EDF000D53036A538BF40A39E81F3D7FB7CE339DD
:10EE0000829B2FFF87348E4344C4DEE9CB547B942E
:10EE100032A6C2233DEE4C950B42FAC34E082EA1FA
:10EE20006628D924B2765BA2496D8BD12572F8F69B
:10EE30006486689816D4A45CCC5D65B6926C101399
:10EE4000704850FDEDB9DA5E154657A78D9D849048
:10EE5000D8AB109D8CBCD30AF7E45805B8B345066F
:10EE6000D02C1E8FCA3F0F02C1AFBD0301138A6BA6
:10EE70003A9111414F67DCEA97F2CFCEF0B4E673D6
:10EE800096AC7422E7AD3585E2F937E81C75DF6E84
:10EE900047F11A711D29C5896FB7620EAA18BE1BEA
:10EEA000FC563E4BC6D279209ADBC0FE78CD5AF490
:10EEB0001FDDA8338807C731B11210592780EC5FD6
:10EEC00060517FA919B54A0D2DE57A9F93C99CEF32
:10EED000A0E03B4DAE2AF5B0C8EBBB3C8353996133
:10EEE000172B047EBA77D626E169146355210C7D71
:10EEF0001590FF64240B26032404202A2A20032AC9
:10EF000030400330366003363B80033B418403418D
:10EF1000468803464B8C034B509003505691035642
:10EF200006FF40420F1D01F42FF30721237DC52367
:10EF300065C71AB1081A9D041A69041A63102301DF
:10EF4000C923E1C81AF1041AE9141AF104C1000036
:04000005000010C126
:00000001FF
